:0400000007EF00F016
:0A0008006E8203ED08F0CFEF0BF05D
:05100000002575000051
:101006000600FACF65F0FBCF66F0D9CF67F0DACFEE
:1010160068F0F3CF69F0F4CF6AF0F2A815EF08F0A4
:1010260017EF08F020EF08F0F2A21CEF08F01EEF11
:1010360008F020EF08F0A9EC0CF0F0A625EF08F078
:1010460027EF08F030EF08F0F0A02CEF08F02EEFB5
:1010560008F030EF08F0A7EC0CF0F0A835EF08F038
:1010660037EF08F040EF08F0F0A23CEF08F03EEF53
:1010760008F040EF08F0A5EC0CF0F2A645EF08F0FA
:1010860047EF08F062EF08F0F2A04CEF08F04EEFE1
:1010960008F062EF08F081A853EF08F055EF08F06A
:1010A60062EF08F05104D8A45BEF08F05DEF08F09A
:1010B60062EF08F0000E516E010E89EC0CF0F2A6FC
:1010C60067EF08F069EF08F084EF08F0F2A06EEF22
:1010D60008F070EF08F084EF08F081B875EF08F0BB
:1010E60077EF08F084EF08F05150D8A47DEF08F0B0
:1010F6007FEF08F084EF08F0010E516E000E89ECC8
:101106000CF0F2A689EF08F08BEF08F0A6EF08F0D6
:10111600F2A090EF08F092EF08F0A6EF08F081AA8F
:1011260097EF08F099EF08F0A6EF08F05004D8A45E
:101136009FEF08F0A1EF08F0A6EF08F0000E506E42
:10114600010E7CEC0CF0F2A6ABEF08F0ADEF08F068
:10115600C8EF08F0F2A0B2EF08F0B4EF08F0C8EF5D
:1011660008F081BAB9EF08F0BBEF08F0C8EF08F055
:101176005050D8A4C1EF08F0C3EF08F0C8EF08F04C
:10118600010E506E000E7CEC0CF0F2A6CDEF08F0CE
:10119600CFEF08F0EAEF08F0F2A0D4EF08F0D6EFB0
:1011A60008F0EAEF08F081ACDBEF08F0DDEF08F0BD
:1011B600EAEF08F04F04D8A4E3EF08F0E5EF08F0F3
:1011C600EAEF08F0000E4F6E010E6FEC0CF0F2A67F
:1011D600EFEF08F0F1EF08F00CEF09F0F2A0F6EFF0
:1011E60008F0F8EF08F00CEF09F081BCFDEF08F00D
:1011F600FFEF08F00CEF09F04F50D8A405EF09F007
:1012060007EF09F00CEF09F0010E4F6E000E6FECC0
:101216000CF0F2A611EF09F013EF09F02EEF09F02A
:10122600F2A018EF09F01AEF09F02EEF09F081AEDF
:101236001FEF09F021EF09F02EEF09F04E04D8A4B4
:1012460027EF09F029EF09F02EEF09F0000E4E6E98
:10125600010E62EC0CF0F2A633EF09F035EF09F05F
:1012660050EF09F0F2A03AEF09F03CEF09F050EF29
:1012760009F081BE41EF09F043EF09F050EF09F0A4
:101286004E50D8A449EF09F04BEF09F050EF09F0A2
:10129600010E4E6E000E62EC0CF09DAC55EF09F09F
:1012A60057EF09F060EF09F09EAC5CEF09F05EEFD6
:1012B60009F060EF09F0ABEC0CF0F2AA65EF09F06B
:1012C60067EF09F070EF09F0F2A46CEF09F06EEF2A
:1012D60009F070EF09F020EC0CF06AC0F4FF69C069
:1012E600F3FF68C0DAFF67C0D9FF66C0FBFF65C0C1
:1012F600FAFF6E9211006B506C10D8B485EF09F0AE
:1013060087EF09F014EF0AF020EE04F06B50D926AF
:101316006C50DA22DECF0BF0DDCF0CF0D59E20EE3E
:1013260006F06B50D9266C50DA22DFA69DEF09F045
:101336009FEF09F0AAEF09F0D58C20EE04F06B5070
:10134600D9266C50DA22DF50D66EC3EF09F0D59C51
:1013560020EE04F06B50D9266C50DA22DECF90F0E6
:10136600DDCF91F091C090F00001916B9051D76E56
:1013760020EE04F06B50D9266C50DA22DF50D66E80
:1013860020EE06F06B50D9266C50DA22DFB4CEEF91
:1013960009F0D0EF09F0E1EF09F0D59620EE03F061
:1013A6006B50D9266C50DA22DF500001906FD55071
:1013B6009019F80B9019D56EE2EF09F0D58620EE5C
:1013C60006F06B50D9266C50DA22DFA0EDEF09F05B
:1013D600EFEF09F003EF0AF0D58A20EE06F06B5026
:1013E600D9266C50DA22DFA2FBEF09F0FDEF09F0F7
:1013F60000EF0AF0D58804EF0AF0D59804EF0AF05A
:10140600D59AF29AF2946BC0D9FF6CC0DAFFDECFA0
:101416000DF0DDCF0EF0F28EF28CF28AD58E14EF3F
:101426000AF012006B506C10D8B41CEF0AF01EEFD5
:101436000AF0A3EF0AF081EF0AF06BC0D9FF6CC087
:10144600DAFFDF30E832070B906F010E916F902BB9
:101456002FEF0AF0D8909137902F2DEF0AF0000168
:101466009151FF0A926F6BC0D9FF6CC0DAFFDF386B
:10147600E832070B936F9351020D2F0EF324D96EAA
:10148600000EF420DA6EDECF94F0DDCF95F094C036
:10149600D9FF95C0DAFF9251DF16A3EF0AF06BC0B1
:1014A600D9FF6CC0DAFFDF30E832070B906F010E10
:1014B600916F902B61EF0AF0D8909137902F5FEFE4
:1014C6000AF06BC0D9FF6CC0DAFFDF38E832070BD1
:1014D6000001926F9251020D2F0EF324D96E000E69
:1014E600F420DA6EDECF93F0DDCF94F093C0D9FF0F
:1014F60094C0DAFF9151DF1250EF0AF06BC0D9FFAA
:101506006CC0DAFFDFB08AEF0AF08DEF0AF0010E49
:101516008EEF0AF0000E0001906F916B9151000A58
:10152600D8B498EF0AF0A3EF0AF09051000AD8B4A5
:1015360020EF0AF0010AD8B452EF0AF0A3EF0AF03E
:1015460012006B506C10D8B4ABEF0AF0ADEF0AF096
:1015560026EF0BF010EF0BF06BC0D9FF6CC0DAFF73
:10156600DF30E832070B906F010E916F902BBEEFC4
:101576000AF0D8909137902FBCEF0AF06BC0D9FFD4
:101586006CC0DAFFDF38E832070B0001926F925128
:10159600020D390EF324D96E000EF420DA6EDECF7A
:1015A60093F0DDCF94F093C0D9FF94C0DAFF915148
:1015B600DF1226EF0BF06BC0D9FF6CC0DAFFDF300D
:1015C600E832070B906F010E916F902BEDEF0AF04A
:1015D600D8909137902FEBEF0AF000019151FF0A56
:1015E600926F6BC0D9FF6CC0DAFFDF38E832070BA9
:1015F600936F9351020D390EF324D96E000EF42029
:10160600DA6EDECF94F0DDCF95F094C0D9FF95C0A9
:10161600DAFF9251DF1626EF0BF06D500001906F46
:10162600916B9151000AD8B41BEF0BF026EF0BF02B
:101636009051000AD8B4DEEF0AF0010AD8B4AFEF31
:101646000AF026EF0BF012002EC09BF000019B91D2
:1016560098C0D9FF99C0DAFFDFAE02D09B8302D0D3
:1016660000019B9398C0D9FF99C0DAFFDF38070BBA
:101676009A6F9A479A479B519A19E30B9A199B6F4F
:1016860098C0D9FF99C0DAFFDF500F0B9A6F9A3BCB
:101696009A479B519A191F0B9A199B6F985199114A
:1016A600D8B458EF0BF05AEF0BF060EF0BF09B0E2F
:1016B600966F000E976F00EC0CF012002BC064F0D2
:1016C600649061C0D9FF62C0DAFFDFAE02D06482E7
:1016D60001D0649261C0D9FF62C0DAFFDF38070B20
:1016E600636E6346634664506318E30B6318646E67
:1016F60061C0D9FF62C0DAFFDF500F0B636E633A39
:101706006346645063181F0B6318646E6150621061
:10171600D8B490EF0BF092EF0BF098EF0BF0640E4D
:101726005A6E000E5B6E99EC0BF012005A505B106D
:10173600D8B4A0EF0BF0A2EF0BF0CEEF0BF05AC02F
:10174600D9FF5BC0DAFFDF30E832070B5C6E010EB3
:101756005D6E5C2AB1EF0BF0D8905D365C2EAFEF74
:101766000BF05AC0D9FF5BC0DAFFDF38E832070B4F
:101776005E6E5E50020D390EF324D96E000EF42013
:10178600DA6EDECF5FF0DDCF60F05FC0D9FF60C0FC
:10179600DAFF5D50DF1A12002C0EF66E190EF76E88
:1017A600000EF86E00EE80F010EE10F00900F5CF96
:1017B600EEFFE550E150FAE1760EF66E180EF76E82
:1017C600000EF86E00EE2FF010EE2BF00900F5CFAC
:1017D600EEFFE550E150FAE100EE9CF00B0EEE6AEA
:1017E600E806FDE100EE01F02E0EEE6AE806FDE1E8
:1017F6006E906E92000151EF0CF000019651971118
:10180600D8B408EF0CF00AEF0CF01FEF0CF096C0FE
:101816006BF097C06CF015EC0AF096C06BF097C0B1
:101826006CF096C0D9FF97C0DAFF0001000EDFB258
:10183600010E6D6EA4EC0AF01200F2940C50D76EF5
:101846000BC0D6FF0D500E10D8B42CEF0CF02EEFB7
:101856000CF03AEF0CF002D83AEF0CF00500FA6EF5
:101866000D50FD6E0E50FE6EFF6AFA501200120009
:10187600920F930F940F950F960F890F8A0F8B0F68
:101886008C0F8D0F800F810F820F830F840F110134
:0B1896000101013C19000300000702E3
:1018A200590E0001986F000E996F27EC0BF0520E43
:1018B2006B6E000E6C6E7EEC09F05EEF0CF007EFC3
:1018C20000F05A6EF2905A04D8A46AEF0CF06CEF52
:1018D2000CF06EEF0CF06EEF0CF012005A6EF290FC
:1018E2005A04D8A477EF0CF079EF0CF07BEF0CF0F0
:1018F2007BEF0CF012005A6EF2905A04D8A484EFD7
:101902000CF086EF0CF088EF0CF088EF0CF0120070
:101912005A6EF2905A04D8A491EF0CF093EF0CF0A7
:1019220095EF0CF095EF0CF012003738392F343563
:10193200362A3132332D23303D2B590E616E000E83
:10194200626E61EC0BF01200F0921200F090120045
:08195200F29212009E9C1200AB
:020000040020DA
:08000000FFFFFFFFFFFFFFFF00
:020000040030CA
:0E000000FF02091EFF8181FF0FC00FE00F40BD
:00000001FF
