:0400000007EF00F016
:0A0008007E8245ED0EF047EF14F084
:05100000002575000051
:101006005150800B5A6E515051245C6E50AE0EEF0B
:1010160008F010EF08F011EF08F05C805C50D8B4CF
:1010260017EF08F019EF08F02EEF08F05C28D8A4A7
:101036001FEF08F021EF08F029EF08F0000E4E6EC2
:10104600000E4F6E000E506E000E516E508E000E4A
:10105600516E36EF08F0000E4E6E000E4F6E000E0B
:10106600506E000E516E5550800B5B6E5A505B18D9
:10107600D8B440EF08F042EF08F043EF08F05A8C7E
:10108600555055245B6E54AE4BEF08F04DEF08F00B
:101096004EEF08F05B805B50D8B454EF08F056EF83
:1010A60008F06BEF08F05B28D8A45CEF08F05EEF61
:1010B60008F066EF08F0000E526E000E536E000E3A
:1010C600546E000E556E548E000E556E73EF08F07A
:1010D600000E526E000E536E000E546E000E556ECC
:1010E6005C505B5CD8B07AEF08F07CEF08F0A3EFB9
:1010F60008F05AAC81EF08F083EF08F085EF08F0AE
:10110600800E5A1A5CC05DF05BC05CF05DC05BF09F
:101116004EC05DF052C04EF05DC052F04FC05DF063
:1011260053C04FF05DC053F050C05DF054C050F056
:101136005DC054F051C05DF055C051F05DC055F032
:10114600000E5D6E5C505BC056F0576A565E000E30
:10115600575A57BEB8EF08F0575009E11A0E565CB9
:10116600D8A0B8EF08F0BAEF08F0F1EF08F04E504B
:101176004F1050105110D8A4C3EF08F0C6EF08F076
:10118600010EC7EF08F0000E5D6E000E4E6E000EEB
:101196004F6E000E506E000E516E5BC05CF0FAEFA3
:1011A60008F05DA0D9EF08F0DBEF08F0E1EF08F0FA
:1011B600D8905D3001095D6EE3EF08F0D8905D329E
:1011C6004EA0E8EF08F0EAEF08F0EBEF08F05D8ECE
:1011D6005134513250324F324E325C2A5B505C5C95
:1011E600D8A0F8EF08F0FAEF08F0D4EF08F05ABCF0
:1011F600FFEF08F001EF09F041EF09F05C50D8A4C9
:1012060007EF09F009EF09F013EF09F0000E4E6E33
:10121600000E4F6E000E506E000E516E62EF0AF019
:1012260052504E2653504F22545050225550512260
:1012360051A020EF09F022EF09F0CEEF09F05DA0F2
:1012460027EF09F029EF09F02FEF09F0D8905D306C
:1012560001095D6E31EF09F0D8905D324EA036EF90
:1012660009F038EF09F039EF09F05D8E513451324B
:1012760050324F324E325C2ACEEF09F052504E5C5D
:1012860053504F58545050585150800A566E55502E
:10129600800A5658D8B052EF09F054EF09F07FEFA4
:1012A60009F04E50525C566E4F505358576E505080
:1012B6005458586E51505558596EFF0E56244E6E5E
:1012C600FF0E57204F6EFF0E5820506EFF0E59200E
:1012D600516E800E5A1A5D6C5D50D8A475EF09F0F8
:1012E60077EF09F087EF09F0010E4E26000E4F2228
:1012F6005022512287EF09F052504E5E53504F5AFA
:101306005450505A5550515A4E504F10501051107B
:10131600D8A490EF09F092EF09F0C7EF09F05D50FD
:10132600D8A498EF09F09AEF09F0C7EF09F0000E7C
:101336004E6E000E4F6E000E506E000E516E62EF36
:101346000AF0D8904E364F36503651365DAEAEEF77
:1013560009F0B0EF09F0B1EF09F04E805DA0B6EFED
:1013660009F0B8EF09F0BCEF09F0D8805D36BEEFA2
:1013760009F0D8905D365C50D8B4C4EF09F0C6EFDA
:1013860009F0C7EF09F05C0650AECCEF09F0CEEFDE
:1013960009F0A4EF09F0000E5B6E5DAED5EF09F023
:1013A600D7EF09F0EFEF09F05DC056F07F0E561645
:1013B600D8B4E0EF09F0E2EF09F0E6EF09F0010E2C
:1013C6005B6EEFEF09F04EA0EBEF09F0EDEF09F0E1
:1013D600EFEF09F0E2EF09F05B50D8B4F5EF09F052
:1013E600F7EF09F022EF0AF0010E4E26000E4F220B
:1013F6005022512251A002EF0AF004EF0AF022EF28
:101406000AF04EC056F04FC057F050C058F051C0C9
:1014160059F05934593258325732563256C04EF076
:1014260057C04FF058C050F059C051F05C28D8B49E
:101436001FEF0AF021EF0AF022EF0AF05C2A5C287F
:10144600D8B428EF0AF02AEF0AF032EF0AF05C501F
:10145600D8A430EF0AF032EF0AF044EF0AF0000E9B
:101466004E6E000E4F6E000E506E000E516E5C50AA
:10147600D8A440EF0AF042EF0AF044EF0AF0000E5B
:101486005A6E5CA049EF0AF04BEF0AF04EEF0AF0F5
:10149600508E4FEF0AF0509ED8905C30516E5AAE87
:1014A60057EF0AF059EF0AF05AEF0AF0518E4EC084
:1014B6004EF04FC04FF050C050F051C051F01200E6
:1014C6003850800B416E38503824476E37AE6EEF79
:1014D6000AF070EF0AF071EF0AF047804750D8B46F
:1014E60077EF0AF079EF0AF08CEF0AF04728D8A4D4
:1014F6007FEF0AF081EF0AF089EF0AF0000E356EF1
:10150600000E366E000E376E000E386E378E94EF74
:101516000AF0000E356E000E366E000E376E000EA7
:10152600386E3C50800B411A3C503C24466E3BAE14
:101536009FEF0AF0A1EF0AF0A2EF0AF046804650AC
:10154600D8B4A8EF0AF0AAEF0AF0BDEF0AF04628D1
:10155600D8A4B0EF0AF0B2EF0AF0BAEF0AF0000E24
:10156600396E000E3A6E000E3B6E000E3C6E3B8EE0
:10157600C5EF0AF0000E396E000E3A6E000E3B6E95
:10158600000E3C6E4650D8B4CBEF0AF0CDEF0AF011
:10159600D5EF0AF04750D8A4D3EF0AF0D5EF0AF0FA
:1015A600DFEF0AF0000E356E000E366E000E376E57
:1015B600000E386E77EF0CF03B503502F3CF4CF04F
:1015C600F4CF4DF04C50426E436A446A456A4D5022
:1015D600486E496A4A6A4B6A3A503602F3CF4CF073
:1015E600F4CF4DF04C504226000E432244224522B1
:1015F6004D504826000E49224A224B2239503702C6
:10160600F3CF4CF0F4CF4DF04C504226000E43225F
:10161600442245224D504826000E49224A224B229A
:1016260044C045F043C044F042C043F0426A3950DA
:101636003602F3CF4CF0F4CF4DF04C5042264D50CD
:101646004322000E4422000E45223A503502F3CFC3
:101656004CF0F4CF4DF04C5042264D504322000E34
:101666004422000E452244C045F043C044F042C027
:1016760043F0426A39503502F3CF4CF0F4CF4DF0C7
:101686004C5042264D504322000E4422000E452265
:101696003B503602F3CF4CF0F4CF4DF04C50482679
:1016A6004D504922000E4A22000E4B223A50370274
:1016B600F3CF4CF0F4CF4DF04C5048264D50492214
:1016C600000E4A22000E4B223B503702F3CF4CF05D
:1016D600F4CF4DF04C503D6E4D503E6E3F6A406A21
:1016E6003FC040F03EC03FF03DC03EF03D6A3D5039
:1016F60048263E5049223F504A2240504B2242C083
:101706003DF043C03EF044C03FF045C040F0190EE6
:1017160092EF0BF0D89040323F323E323D32E82E07
:101726008DEF0BF03D5048263E5049223F504A224D
:1017360040504B2244C045F043C044F042C043F001
:10174600426A465047C03DF03E6A3D26000E3E22A4
:10175600820E3D244C6EFF0E3E204D6EC8EF0BF000
:10176600D890483649364A364B3645AEBDEF0BF073
:10177600BFEF0BF0C0EF0BF04880D89042364336EF
:10178600443645364C06D8A04D064AAECDEF0BF092
:10179600CFEF0BF0B3EF0BF0000E466E45AED6EF73
:1017A6000BF0D8EF0BF0FCEF0BF0FF0E42143D6E82
:1017B600FF0E43143E6EFF0E44143F6E7F0E45141B
:1017C600406E3D503E103F104010D8B4EDEF0BF088
:1017D600EFEF0BF0F3EF0BF0010E466EFCEF0BF0A4
:1017E60048A0F8EF0BF0FAEF0BF0FCEF0BF0EFEF81
:1017F6000BF04650D8B402EF0CF004EF0CF028EFD3
:101806000CF0010E4826000E49224A224B224BA01C
:101816000FEF0CF011EF0CF028EF0CF048C03DF084
:1018260049C03EF04AC03FF04BC040F04034403221
:101836003F323E323D323DC048F03EC049F03FC0E7
:101846004AF040C04BF04C4A4D2A4DBE33EF0CF0E7
:101856004D5008E14C28D8A033EF0CF035EF0CF0D2
:101866003FEF0CF0000E486E000E496E800E4A6E79
:101876007F0E4B6E6DEF0CF04DBE4CEF0CF04D50E5
:1018860006E14C04D8B04AEF0CF04CEF0CF058EFE0
:101896000CF0000E486E000E496E000E4A6E000EE9
:1018A6004B6E000E416E6DEF0CF04CC047F0FF0E14
:1018B6004816FF0E49167F0E4A16000E4B1647A015
:1018C60067EF0CF069EF0CF06AEF0CF04A8ED890D7
:1018D60047304B6E41504B1248C035F049C036F088
:1018E6004AC037F04BC038F012001F50800B2C6EE8
:1018F6001F501F24336E1EAE83EF0CF085EF0CF0E5
:1019060086EF0CF033803350D8B48CEF0CF08EEFAA
:101916000CF0A3EF0CF03328D8A494EF0CF096EF5C
:101926000CF09EEF0CF0000E1C6E000E1D6E000EED
:101936001E6E000E1F6E1E8E000E1F6EABEF0CF09D
:10194600000E1C6E000E1D6E000E1E6E000E1F6E2B
:101956002350800B2C1A23502324346E22AEB6EF6C
:101966000CF0B8EF0CF0B9EF0CF034803450D8B46A
:10197600BFEF0CF0C1EF0CF0D6EF0CF03428D8A472
:10198600C7EF0CF0C9EF0CF0D1EF0CF0000E206E93
:10199600000E216E000E226E000E236E228E000EA9
:1019A600236EDEEF0CF0000E206E000E216E000E90
:1019B600226E000E236E2050211022102310D8A470
:1019C600E7EF0CF0E9EF0CF001EF0DF0000E1C6EE6
:1019D600000E1D6E000E1E6E000E1F6E800E1E1275
:1019E6007F0E1F122C501F121CC01CF01DC01DF0B4
:1019F6001EC01EF01FC01FF044EF0EF03350D8A4D7
:101A060007EF0DF009EF0DF013EF0DF0000E1C6E51
:101A1600000E1D6E000E1E6E000E1F6E44EF0EF0C1
:101A2600345033C024F0256A245E000E255A7F0EFA
:101A360024242D6E000E25202E6E1CC028F01DC0FD
:101A460029F01EC02AF01FC02BF0000E1C6E000EDF
:101A56001D6E000E1E6E000E1F6E000E2F6E000E07
:101A6600306E000E316E000E326E000E346E74EF64
:101A76000DF03450D8B442EF0DF044EF0DF05BEFAB
:101A86000DF0D890283629362A362B36D8901C36B3
:101A96001D361E361F3632AE53EF0DF055EF0DF0E4
:101AA60056EF0DF01C80D8902F3630363136323650
:101AB6002050285C2150295822502A5823502B5850
:101AC600D8A068EF0DF06AEF0DF073EF0DF0328CD1
:101AD6002050285E2150295A22502A5A23502B5A28
:101AE600342A190E34647AEF0DF07CEF0DF03CEFDA
:101AF6000DF0285029102A102B10D8B485EF0DF0C0
:101B060087EF0DF09FEF0DF02F809FEF0DF0D8902F
:101B16001C361D361E361F3632AE94EF0DF096EF8C
:101B26000DF097EF0DF01C80D8902F3630363136F9
:101B360032362D06D8A02E061EAEA4EF0DF0A6EF67
:101B46000DF08AEF0DF0000E346E32AEADEF0DF0F3
:101B5600AFEF0DF0D3EF0DF0FF0E2F14246EFF0E36
:101B66003014256EFF0E3114266E7F0E3214276E4A
:101B76002450251026102710D8B4C4EF0DF0C6EF58
:101B86000DF0CAEF0DF0010E346ED3EF0DF01CA070
:101B9600CFEF0DF0D1EF0DF0D3EF0DF0C6EF0DF056
:101BA6003450D8B4D9EF0DF0DBEF0DF0FFEF0DF0A8
:101BB600010E1C26000E1D221E221F221FA0E6EF6C
:101BC6000DF0E8EF0DF0FFEF0DF01CC024F01DC086
:101BD60025F01EC026F01FC027F0273427322632F4
:101BE6002532243224C01CF025C01DF026C01EF06C
:101BF60027C01FF02D4A2E2A2EBE0AEF0EF02E50B9
:101C060008E12D28D8A00AEF0EF00CEF0EF017EF22
:101C16000EF0000E2E6E2D68000E1C6E000E1D6E50
:101C2600000E1E6E000E1F6E2EBE24EF0EF02E50FE
:101C360006E12D04D8B022EF0EF024EF0EF032EFBD
:101C46000EF0000E2E6E000E2D6E000E1C6E000E97
:101C56001D6E000E1E6E000E1F6E000E2C6E2DC029
:101C660033F033A039EF0EF03BEF0EF03EEF0EF0FF
:101C76001E8E3FEF0EF01E9ED89033301F6EF5EF8E
:101C86000CF012000600F2A84BEF0EF04DEF0EF02E
:101C960056EF0EF0F2A252EF0EF054EF0EF056EFA2
:101CA6000EF005EC15F0F0A65BEF0EF05DEF0EF012
:101CB60066EF0EF0F0A062EF0EF064EF0EF066EF46
:101CC6000EF003EC15F0F0A86BEF0EF06DEF0EF0D2
:101CD60076EF0EF0F0A272EF0EF074EF0EF076EFE4
:101CE6000EF001EC15F0F2A67BEF0EF07DEF0EF094
:101CF60098EF0EF0F2A082EF0EF084EF0EF098EF60
:101D06000EF081A889EF0EF08BEF0EF098EF0EF033
:101D16007D04D8A491EF0EF093EF0EF098EF0EF03D
:101D2600000E7D6E010ED1EC14F0F2A69DEF0EF0C2
:101D36009FEF0EF0BAEF0EF0F2A0A4EF0EF0A6EFB2
:101D46000EF0BAEF0EF081B8ABEF0EF0ADEF0EF07D
:101D5600BAEF0EF07D50D8A4B3EF0EF0B5EF0EF04B
:101D6600BAEF0EF0010E7D6E000ED1EC14F0F2A665
:101D7600BFEF0EF0C1EF0EF0DCEF0EF0F2A0C6EFF3
:101D86000EF0C8EF0EF0DCEF0EF081AACDEF0EF0EC
:101D9600CFEF0EF0DCEF0EF07C04D8A4D5EF0EF0FA
:101DA600D7EF0EF0DCEF0EF0000E7C6E010EC4ECE9
:101DB60014F0F2A6E1EF0EF0E3EF0EF0FEEF0EF0F8
:101DC600F2A0E8EF0EF0EAEF0EF0FEEF0EF081BAA9
:101DD600EFEF0EF0F1EF0EF0FEEF0EF07C50D8A410
:101DE600F7EF0EF0F9EF0EF0FEEF0EF0010E7C6E3F
:101DF600000EC4EC14F0F2A603EF0FF005EF0FF09F
:101E060020EF0FF0F2A00AEF0FF00CEF0FF020EF2B
:101E16000FF081AC11EF0FF013EF0FF020EF0FF082
:101E26007B04D8A419EF0FF01BEF0FF020EF0FF093
:101E3600000E7B6E010EB7EC14F0F2A625EF0FF044
:101E460027EF0FF042EF0FF0F2A02CEF0FF02EEF7E
:101E56000FF042EF0FF081BC33EF0FF035EF0FF0CC
:101E660042EF0FF07B50D8A43BEF0FF03DEF0FF0A1
:101E760042EF0FF0010E7B6E000EB7EC14F0F2A6E7
:101E860047EF0FF049EF0FF064EF0FF0F2A04EEFBF
:101E96000FF050EF0FF064EF0FF081AE55EF0FF03B
:101EA60057EF0FF064EF0FF07A04D8A45DEF0FF050
:101EB6005FEF0FF064EF0FF0000E7A6E010EAAECE2
:101EC60014F0F2A669EF0FF06BEF0FF086EF0FF04C
:101ED600F2A070EF0FF072EF0FF086EF0FF081BEF9
:101EE60077EF0FF079EF0FF086EF0FF07A50D8A466
:101EF6007FEF0FF081EF0FF086EF0FF0010E7A6E95
:101F0600000EAAEC14F09DAC8BEF0FF08DEF0FF0E6
:101F160096EF0FF09EAC92EF0FF094EF0FF096EF66
:101F26000FF009EC15F0F2AA9BEF0FF09DEF0FF002
:101F3600A6EF0FF0F2A4A2EF0FF0A4EF0FF0A6EFBA
:101F46000FF0EEEC14F09DA0ABEF0FF0ADEF0FF03D
:101F5600B6EF0FF09EA0B2EF0FF0B4EF0FF0B6EFB2
:101F66000FF0E7EC14F09DA2BBEF0FF0BDEF0FF002
:101F7600C6EF0FF09EA2C2EF0FF0C4EF0FF0C6EF50
:101F86000FF0FBEC14F0A0A2CBEF0FF0CDEF0FF0AB
:101F9600D6EF0FF0A1A2D2EF0FF0D4EF0FF0D6EFED
:101FA6000FF0F5EC14F09DA4DBEF0FF0DDEF0FF072
:101FB600E6EF0FF09EA4E2EF0FF0E4EF0FF0E6EF8E
:101FC6000FF007EC15F0A0A0EBEF0FF0EDEF0FF020
:101FD600EEEF0FF0A1507E92110068506910D8B450
:101FE600F7EF0FF0F9EF0FF05DEF11F0F00EBD1601
:101FF60068C0D9FF69C0DAFFDF50D8A405EF10F03A
:1020060007EF10F05AEF10F029EF10F0BD50F00B6B
:102016000809BD6E50EF10F0BD50F00B0909BD6EFA
:1020260050EF10F0BD50F00B0A09BD6E50EF10F0E6
:10203600BD50F00B0209BD6E50EF10F0BD50F00B15
:102046000B09BD6E50EF10F050EF10F020EE01F0CE
:102056006850D9266950DA22DF506A6E6B6A6B5077
:10206600000AD8B439EF10F027EF10F06A50020AD0
:10207600D8B41BEF10F00A0AD8B409EF10F0010A21
:10208600D8B40FEF10F0030AD8B415EF10F0010A18
:10209600D8B421EF10F027EF10F0020E6824026E7C
:1020A600000E6920036E38EC12F04EEF11F068C096
:1020B600D9FF69C0DAFFDE04D8A464EF10F066EF3A
:1020C60010F0AFEF10F082EF10F0BD50F00B0409E6
:1020D600BD6EA5EF10F0BD50F00B0509BD6EA5EF66
:1020E60010F0BD50F00B0609BD6EA5EF10F0BD5007
:1020F600F00B0709BD6EA5EF10F0A5EF10F020EE6E
:1021060001F06850D9266950DA22DF506A6E6B6A90
:102116006B50000AD8B492EF10F080EF10F06A50BE
:10212600040AD8B468EF10F0010AD8B46EEF10F0C4
:10213600030AD8B474EF10F0010AD8B47AEF10F09D
:1021460080EF10F0020E6824026E000E6920036E06
:1021560038EC12F04EEF11F068C0D9FF69C0DAFF13
:10216600020EDE18D8A4BAEF10F0BCEF10F04EEF56
:1021760011F020EE01F06850D9266950DA220C0ED3
:10218600DE18D8A4C9EF10F0CBEF10F04EEF11F027
:10219600BD50F00B0C09BD6E020E6824026E000ED7
:1021A6006920036E38EC12F0000E526E000E536E6C
:1021B600800E546EBF0E556E000E396E000E3A6ECE
:1021C600800E3B6E400E3C6E20EE0AF06850D9261B
:1021D6006950DA22DF506A6E20EE09F06850D9267F
:1021E6006950DA22DF506B6E6B506A02F3CF02F051
:1021F600F4CF03F0046A056A20EE05F06850D9268C
:102206006950DA22DECF06F0DECF07F0DECF08F027
:10221600DECF09F012EC14F002C00EF003C00FF08E
:1022260004C010F005C011F0000E5EEC11F00EC0F7
:1022360035F00FC036F010C037F011C038F063EC3F
:102246000AF035C020F036C021F037C022F038C081
:1022560023F0000E1C6E240E1D6EF40E1E6E4A0E2A
:102266001F6E78EC0CF01CC04EF01DC04FF01EC067
:1022760050F01FC051F003EC08F04EC05EF04FC0A6
:102286005FF050C060F051C061F047EC13F05E5053
:10229600CB6E4EEF11F09D949E9420EE03F06850A5
:1022A600D9266950DA22DECFB9F0DDCFBAF0F28E48
:1022B600F28C9D841200166E1650D8B465EF11F09C
:1022C60067EF11F089EF11F011BE6EEF11F06CEFB0
:1022D60011F089EF11F00EC012F00FC013F010C00C
:1022E60014F011C015F0121E131E141E151E122A0C
:1022F600000E13221422152212C018F013C019F072
:1023060014C01AF015C01BF091EF11F00EC018F0B2
:102316000FC019F010C01AF011C01BF00E500F10AC
:1023260010101110D8A49AEF11F09CEF11F0A6EF3F
:1023360011F0000E0E6E000E0F6E000E106E000EE7
:10234600116E37EF12F0960E176EB0EF11F0172AD6
:10235600D8901B321A3219321832000E1814126E27
:10236600000E1914136E000E1A14146EFE0E1B14B2
:10237600156E1250131014101510D8A4C5EF11F0D5
:10238600C7EF11F0AAEF11F0D5EF11F0172A010EE1
:102396001826000E19221A221B22D8901B321A3236
:1023A60019321832000E1814126E000E1914136E1C
:1023B600000E1A14146EFF0E1B14156E1250131015
:1023C60014101510D8A4EAEF11F0ECEF11F0C9EFD4
:1023D60011F0F4EF11F01706D890183619361A36A0
:1023E6001B361ABEF9EF11F0FBEF11F003EF12F0F6
:1023F600020E176001EF12F003EF12F0EEEF11F08C
:1024060017B008EF12F00AEF12F00BEF12F01A9E57
:10241600D890173217C012F0136A146A156A12C0E0
:1024260015F0146A136A126A125018121350191210
:1024360014501A1215501B121650D8B425EF12F06C
:1024460027EF12F02FEF12F011BE2EEF12F02CEF45
:1024560012F02FEF12F01B8E18C00EF019C00FF0FD
:102466001AC010F01BC011F0120002500310D8B4AD
:102476003FEF12F041EF12F0C3EF12F0A2EF12F0AD
:1024860002C0D9FF03C0DAFFDF30E832070B046E63
:10249600010E056E042A52EF12F0D8900536042E6E
:1024A60050EF12F00550FF0A066E02C0D9FF03C0B6
:1024B600DAFFDF38E832070B076E0750020DD20E3F
:1024C600F324D96E000EF420DA6EDECF08F0DDCFED
:1024D60009F008C0D9FF09C0DAFF0650DF16C3EFBE
:1024E60012F002C0D9FF03C0DAFFDF30E832070B73
:1024F600046E010E056E042A83EF12F0D89005369D
:10250600042E81EF12F002C0D9FF03C0DAFFDF38D4
:10251600E832070B066E0650020DD20EF324D96E72
:10252600000EF420DA6EDECF07F0DDCF08F007C02C
:10253600D9FF08C0DAFF0550DF1272EF12F002C0B1
:10254600D9FF03C0DAFFDFB0ABEF12F0AEEF12F047
:10255600010EAFEF12F0000E046E056A0550000A78
:10256600D8B4B8EF12F0C3EF12F00450000AD8B492
:1025760043EF12F0010AD8B474EF12F0C3EF12F071
:1025860012006E6E000E706E000E6F6E000E206EE4
:10259600000E216EC80E226E420E236E6E500E6E17
:1025A6000F6A106A116A010E5EEC11F00EC01CF083
:1025B6000FC01DF010C01EF011C01FF078EC0CF01B
:1025C6001CC039F01DC03AF01EC03BF01FC03CF0E5
:1025D600CB50686E696A010E6826000E692268C0D3
:1025E6000EF069C00FF0000E0FBEFF0E106E116EDA
:1025F600010E5EEC11F00EC035F00FC036F010C0C3
:1026060037F011C038F063EC0AF035C06AF036C016
:102616006BF037C06CF038C06DF0000E396E000EEE
:102626003A6E800E3B6E400E3C6E6AC035F06BC053
:1026360036F06CC037F06DC038F063EC0AF035C088
:102646005EF036C05FF037C060F038C061F047EC2E
:1026560013F05EC06FF05FC070F06FC068F0030EDD
:102666006816683ABD506818CF0B6818BD6E6FC003
:1026760068F070C069F0D89069326832D8906932D3
:1026860068326850BE6E120060346134676E6750FF
:10269600D8A450EF13F052EF13F05CEF13F0000ED6
:1026A6005E6E000E5F6E000E606E000E616EC9EF0C
:1026B60013F05EC062F05FC063F060C064F061C09A
:1026C60065F0200E6CEF13F0D890653264326332F9
:1026D6006232E82E67EF13F06250666E608EFF0E70
:1026E6005E16FF0E5F16FF0E6016000E6116960E42
:1026F600675E67BE83EF13F081EF13F099EF13F077
:102706006750800A970FD8B08BEF13F08DEF13F058
:102716008FEF13F052EF13F0D890613260325F32D0
:102726005E32673E8FEF13F0B1EF13F01F0E676452
:102736009FEF13F0A1EF13F0A9EF13F052EF13F090
:10274600D8905E365F366036613667066750D8A425
:10275600AFEF13F0B1EF13F0A3EF13F06650D8B458
:10276600B7EF13F0B9EF13F0C1EF13F0611E601E5F
:102776005F1E5E6C000E5F22602261225EC05EF00C
:102786005FC05FF060C060F061C061F0120002508F
:102796000310D8B4D1EF13F0D3EF13F011EF14F008
:1027A600CA9420EE04F00250D9260350DA22DF50F4
:1027B600046ECA500418FC0B0418CA6E20EE03F00F
:1027C6000250D9260350DA22DF50046E044604462E
:1027D6000446CA500418870B0418CA6E20EE02F08D
:1027E6000250D9260350DA22DF50CC6E20EE02F0DA
:1027F6000250D9260350DA22DF50716E9D929E92C6
:1028060002C0D9FF03C0DAFFDECF99F0DDCF9AF020
:10281600F28EF28C9D82CA8411EF14F01200000E23
:102826000A6E000E0B6E000E0C6E000E0D6E02A0F0
:102836001FEF14F021EF14F029EF14F006500A26CA
:1028460007500B2208500C2209500D22D89006364C
:10285600073608360936D89005320432033202327A
:102866000250031004100510D8A43CEF14F03EEFFC
:1028760014F01AEF14F00AC002F00BC003F00CC0FB
:1028860004F00DC005F01200F00EF66E280EF76E7D
:10289600000EF86E00EEC2F010EE39F00900F5CF2A
:1028A600EEFFE550E150FAE1FE0EF66E290EF76EE8
:1028B600000EF86E00EE7AF010EE04F00900F5CF87
:1028C600EEFFE550E150FAE100EE80F0420EEE6ACE
:1028D600E806FDE100EE71F0090EEE6AE806FDE19C
:1028E6007E907E92000195EF14F03738392F3435FB
:1028F600362A3132332D23303D2B920F930F940F0E
:10290600950F960F890F8A0F8B0F8C0F8D0F800FE7
:10291600810F820F830F840F020C480000204E00A7
:03292600000101AC
:10292A00F00E686E000E696EF0EC0FF0BD0E026ECE
:10293A00000E036ECAEC13F0620EC4EC12F0DEEC69
:10294A0014F0A6EF14F007EF00F0016EF290010404
:10295A00D8A4B2EF14F0B4EF14F0B6EF14F0B6EF57
:10296A0014F01200016EF2900104D8A4BFEF14F023
:10297A00C1EF14F0C3EF14F0C3EF14F01200016EAC
:10298A00F2900104D8A4CCEF14F0CEEF14F0D0EFFB
:10299A0014F0D0EF14F01200016EF2900104D8A4E2
:1029AA00D9EF14F0DBEF14F0DDEF14F0DDEF14F0E3
:1029BA001200010E026EBD50F00B0C09BD6E000E26
:1029CA00026E12009E9000019C51CF6E9BC0CEFFFA
:1029DA001200F2940001A051D76E9FC0D6FF1200D8
:1029EA00A19295C0B2FF96C0B3FF12009E9271C029
:1029FA00CCFF120001010101F0921200F0901200C6
:0C2A0A00F29212009E9412009E9C12009A
:020000040020DA
:08000000FFFFFFFFFFFFFFFF00
:020000040030CA
:0E000000FF02091EFF8181FF0FC00FE00F40BD
:00000001FF
