:0400000007EF00F016
:0A000800738220ED0AF087EF14F078
:10100000004465675F313A20004465675F323A20EB
:05101000002575000041
:101016001D50800B266E1D501D242C6E1CAE16EF27
:1010260008F018EF08F019EF08F02C802C50D8B40F
:101036001FEF08F021EF08F034EF08F02C28D8A4B1
:1010460027EF08F029EF08F031EF08F0000E1A6ECE
:10105600000E1B6E000E1C6E000E1D6E1C8E3CEFED
:1010660008F0000E1A6E000E1B6E000E1C6E000EAF
:101076001D6E2150800B261A215021242B6E20AE86
:1010860047EF08F049EF08F04AEF08F02B802B50A5
:10109600D8B450EF08F052EF08F065EF08F02B28AF
:1010A600D8A458EF08F05AEF08F062EF08F0000EE7
:1010B6001E6E000E1F6E000E206E000E216E208E1C
:1010C6006DEF08F0000E1E6E000E1F6E000E206EF5
:1010D600000E216E2B50D8B473EF08F075EF08F0B0
:1010E6007DEF08F02C50D8A47BEF08F07DEF08F0D8
:1010F60087EF08F0000E1A6E000E1B6E000E1C6EB7
:10110600000E1D6E1FEF0AF020501A02F3CF31F0C9
:10111600F4CF32F03150276E286A296A2A6A325093
:101126002D6E2E6A2F6A306A1F501B02F3CF31F0E4
:10113600F4CF32F031502726000E282229222A2207
:1011460032502D26000E2E222F2230221E501C0237
:10115600F3CF31F0F4CF32F031502726000E28229B
:1011660029222A2232502D26000E2E222F2230220C
:1011760029C02AF028C029F027C028F0276A1E5067
:101186001B02F3CF31F0F4CF32F031502726325024
:101196002822000E2922000E2A221F501A02F3CFFF
:1011A60031F0F4CF32F03150272632502822000E8B
:1011B6002922000E2A2229C02AF028C029F027C099
:1011C60028F0276A1E501A02F3CF31F0F4CF32F01E
:1011D6003150272632502822000E2922000E2A22BC
:1011E60020501B02F3CF31F0F4CF32F031502D26D0
:1011F60032502E22000E2F22000E30221F501C02CB
:10120600F3CF31F0F4CF32F031502D2632502E226A
:10121600000E2F22000E302220501C02F3CF31F098
:10122600F4CF32F03150226E3250236E246A256A92
:1012360024C025F023C024F022C023F0226A2250C5
:101246002D2623502E2224502F222550302227C00F
:1012560022F028C023F029C024F02AC025F0190E58
:101266003AEF09F0D8902532243223322232E82E82
:1012760035EF09F022502D2623502E2224502F22FE
:101286002550302229C02AF028C029F027C028F08E
:10129600276A2B502CC022F0236A2226000E232216
:1012A600820E2224316EFF0E2320326E70EF09F07B
:1012B600D8902D362E362F3630362AAE65EF09F009
:1012C60067EF09F068EF09F02D80D89027362836A9
:1012D60029362A363106D8A032062FAE75EF09F028
:1012E60077EF09F05BEF09F0000E2B6E2AAE7EEF6A
:1012F60009F080EF09F0A4EF09F0FF0E2714226E23
:10130600FF0E2814236EFF0E2914246E7F0E2A1456
:10131600256E2250231024102510D8B495EF09F01D
:1013260097EF09F09BEF09F0010E2B6EA4EF09F081
:101336002DA0A0EF09F0A2EF09F0A4EF09F097EFB6
:1013460009F02B50D8B4AAEF09F0ACEF09F0D0EFB2
:1013560009F0010E2D26000E2E222F22302230A05B
:10136600B7EF09F0B9EF09F0D0EF09F02DC022F080
:101376002EC023F02FC024F030C025F025342532AE
:1013860024322332223222C02DF023C02EF024C074
:101396002FF025C030F0314A322A32BEDBEF09F099
:1013A600325008E13128D8A0DBEF09F0DDEF09F073
:1013B600E7EF09F0000E2D6E000E2E6E800E2F6EDA
:1013C6007F0E306E15EF0AF032BEF4EF09F03250A0
:1013D60006E13104D8B0F2EF09F0F4EF09F000EFBE
:1013E6000AF0000E2D6E000E2E6E000E2F6E000EF1
:1013F600306E000E266E15EF0AF031C02CF0FF0E8F
:101406002D16FF0E2E167F0E2F16000E30162CA050
:101416000FEF0AF011EF0AF012EF0AF02F8ED890B4
:101426002C30306E265030122DC01AF02EC01BF014
:101436002FC01CF030C01DF012000600FACF08F0D5
:10144600FBCF09F0D9CF0AF0DACF0BF0F2A82EEFD6
:101456000AF030EF0AF039EF0AF0F2A235EF0AF09F
:1014660037EF0AF039EF0AF067EC17F0F0A63EEF17
:101476000AF040EF0AF049EF0AF0F0A045EF0AF053
:1014860047EF0AF049EF0AF065EC17F0F0A84EEFC7
:101496000AF050EF0AF059EF0AF0F0A255EF0AF001
:1014A60057EF0AF059EF0AF063EC17F0F2A65EEF79
:1014B6000AF060EF0AF07BEF0AF0F2A065EF0AF09F
:1014C60067EF0AF07BEF0AF081A86CEF0AF06EEF87
:1014D6000AF07BEF0AF07204D8A474EF0AF076EFF4
:1014E6000AF07BEF0AF0000E726E010E47EC17F061
:1014F600F2A680EF0AF082EF0AF09DEF0AF0F2A062
:1015060087EF0AF089EF0AF09DEF0AF081B88EEFB7
:101516000AF090EF0AF09DEF0AF07250D8A496EF09
:101526000AF098EF0AF09DEF0AF0010E726E000EB7
:1015360047EC17F0F2A6A2EF0AF0A4EF0AF0BFEF0D
:101546000AF0F2A0A9EF0AF0ABEF0AF0BFEF0AF03B
:1015560081AAB0EF0AF0B2EF0AF0BFEF0AF0710409
:10156600D8A4B8EF0AF0BAEF0AF0BFEF0AF0000EFF
:10157600716E010E3AEC17F0F2A6C4EF0AF0C6EF50
:101586000AF0E1EF0AF0F2A0CBEF0AF0CDEF0AF095
:10159600E1EF0AF081BAD2EF0AF0D4EF0AF0E1EFF8
:1015A6000AF07150D8A4DAEF0AF0DCEF0AF0E1EFA6
:1015B6000AF0010E716E000E3AEC17F0F2A6E6EF95
:1015C6000AF0E8EF0AF003EF0BF0F2A0EDEF0AF0F5
:1015D600EFEF0AF003EF0BF081ACF4EF0AF0F6EF51
:1015E6000AF003EF0BF07004D8A4FCEF0AF0FEEF4C
:1015F6000AF003EF0BF0000E706E010E2DEC17F0E3
:10160600F2A608EF0BF00AEF0BF025EF0BF0F2A0B5
:101616000FEF0BF011EF0BF025EF0BF081BC16EF7F
:101626000BF018EF0BF025EF0BF07050D8A41EEF5F
:101636000BF020EF0BF025EF0BF0010E706E000E95
:101646002DEC17F0F2A62AEF0BF02CEF0BF047EF7C
:101656000BF0F2A031EF0BF033EF0BF047EF0BF08E
:1016660081AE38EF0BF03AEF0BF047EF0BF06F045B
:10167600D8A440EF0BF042EF0BF047EF0BF0000E53
:101686006F6E010E20EC17F0F2A64CEF0BF04EEF4A
:101696000BF069EF0BF0F2A053EF0BF055EF0BF0E8
:1016A60069EF0BF081BE5AEF0BF05CEF0BF069EFC0
:1016B6000BF06F50D8A462EF0BF064EF0BF069EFFC
:1016C6000BF0010E6F6E000E20EC17F09DAC6EEF66
:1016D6000BF070EF0BF079EF0BF09EAC75EF0BF0A3
:1016E60077EF0BF079EF0BF0F3EC16F0F2AA7EEF42
:1016F6000BF080EF0BF089EF0BF0F2A485EF0BF007
:1017060087EF0BF089EF0BF061EC17F00BC0DAFFF7
:101716000AC0D9FF09C0FBFF08C0FAFF7392110087
:10172600ED0E0F6E000E106E13EC13F0F40E206E1D
:10173600000E216EF2EC0FF0F40E1D6E000E1E6E02
:101746000C0E1F6E88EC15F0F40E1D6E000E1E6E4C
:10175600010E1F6E88EC15F0F40E266E000E276E35
:10176600010E286E010E296E010E2A6E100E2B6ECA
:101776006DEC13F0F40E266E000E276E020E286E28
:10178600010E296E090E2A6E100E2B6E6DEC13F0EB
:101796006250D8A4D1EF0BF0D3EF0BF0DDEF0BF0D6
:1017A600ED0E136E000E146E000E156EDBEC16F0C9
:1017B600EDEF0BF06204D8A4E3EF0BF0E5EF0BF0CE
:1017C600EDEF0BF0ED0E136E000E146E010E156E9E
:1017D600DBEC16F0F60E1E6E280E1F6E9C0E206EAB
:1017E600400E216E6DC00CF06EC00DF00E6A0F6AD1
:1017F600000E91EC0CF00CC01AF00DC01BF00EC0E0
:101806001CF00FC01DF00BEC08F01AC033F01BC023
:1018160034F01CC035F01DC036F07CEC10F033C03F
:101826005DF034C05EF05DC00CF05EC00DF0000EE1
:101836000F6E0A0E0E6E4DEC14F00CC05DF00DC06E
:101846005EF0F60E1E6E280E1F6E9C0E206E400E6B
:10185600216E6BC00CF06CC00DF00E6A0F6A000EA4
:1018660091EC0CF00CC01AF00DC01BF00EC01CF071
:101876000FC01DF00BEC08F01AC033F01BC034F09B
:101886001CC035F01DC036F07CEC10F033C099F06A
:1018960034C09AF099C00CF09AC00DF0000E0F6E8D
:1018A6000A0E0E6E4DEC14F00CC099F00DC09AF0B5
:1018B6005DC0FAF05EC0FBF0B90E0001FC6F000ED1
:1018C600FD6F5DEC12F099C0FAF09AC0FBF0B30E12
:1018D6000001FC6F000EFD6F5DEC12F0F40E266E3B
:1018E600000E276E010E286E070E296EB90E2A6E9F
:1018F600000E2B6E6DEC13F0F40E266E000E276EA6
:10190600020E286E070E296EB30E2A6E000E2B6E7F
:101916006DEC13F0CBEF0BF007EF00F0146E1450E4
:10192600D8B498EF0CF09AEF0CF0BCEF0CF00FBEA9
:10193600A1EF0CF09FEF0CF0BCEF0CF00CC010F018
:101946000DC011F00EC012F00FC013F0101E111EC4
:10195600121E131E102A000E11221222132210C06C
:1019660016F011C017F012C018F013C019F0C4EF2A
:101976000CF00CC016F00DC017F00EC018F00FC01A
:1019860019F00C500D100E100F10D8A4CDEF0CF05E
:10199600CFEF0CF0D9EF0CF0000E0C6E000E0D6EB2
:1019A600000E0E6E000E0F6E6AEF0DF0960E156E9F
:1019B600E3EF0CF0152AD890193218321732163286
:1019C600000E1614106E000E1714116E000E181469
:1019D600126EFE0E1914136E105011101210131001
:1019E600D8A4F8EF0CF0FAEF0CF0DDEF0CF008EFEE
:1019F6000DF0152A010E1626000E1722182219229E
:101A0600D8901932183217321632000E1614106E8C
:101A1600000E1714116E000E1814126EFF0E191414
:101A2600136E1050111012101310D8A41DEF0DF0E4
:101A36001FEF0DF0FCEF0CF027EF0DF01506D89018
:101A4600163617361836193618BE2CEF0DF02EEF4F
:101A56000DF036EF0DF0020E156034EF0DF036EF97
:101A66000DF021EF0DF015B03BEF0DF03DEF0DF051
:101A76003EEF0DF0189ED890153215C010F0116A81
:101A8600126A136A10C013F0126A116A106A1050B3
:101A96001612115017121250181213501912145010
:101AA600D8B458EF0DF05AEF0DF062EF0DF00FBEFF
:101AB60061EF0DF05FEF0DF062EF0DF0198E16C0BD
:101AC6000CF017C00DF018C00EF019C00FF0120080
:101AD6000CC016F00DC017F010501110D8A476EFF8
:101AE6000DF078EF0DF07AEF0DF025EF0EF016C041
:101AF600D9FF17C0DAFF0EC0DFFF10501624126E92
:101B060011501720136EFF0E1224D96EFF0E1320EC
:101B1600DA6E0EC0DFFF115007E1030E105CD8B07D
:101B260097EF0DF099EF0DF09BEF0DF025EF0EF00E
:101B360020EE01F01650D9261750DA220EC0DFFF2C
:101B460020EE02F01650D9261750DA220EC0DFFF1B
:101B560010501624126E11501720136EFE0E12240A
:101B6600D96EFF0E1320DA6E0EC0DFFF105016245A
:101B7600126E11501720136EFD0E1224D96EFF0E31
:101B86001320DA6E0EC0DFFF115007E1070E105C5E
:101B9600D8B0D0EF0DF0D2EF0DF0D4EF0DF025EF69
:101BA6000EF020EE03F01650D9261750DA220EC09A
:101BB600DFFF10501624126E11501720136EFC0E04
:101BC6001224D96EFF0E1320DA6E0EC0DFFF1150FD
:101BD60007E1090E105CD8B0F3EF0DF0F5EF0DF04C
:101BE600F7EF0DF025EF0EF016C012F017C013F048
:101BF600121E131E124A132A030E1214146E156AAD
:101C060014501626155017221450105E1550115AEE
:101C1600FC0E1016FF0E11161CEF0EF016C0D9FFA3
:101C260017C0DAFF0EC0DFFF1006D8A01106164A4D
:101C3600172A10501110D8A423EF0EF025EF0EF03E
:101C460011EF0EF0120033C0D9FF34C0DAFFDECF39
:101C5600F6FFDDCFF7FFF86A0800F550250AD8A48D
:101C660037EF0EF039EF0EF0B0EF0EF033C0D9FFBC
:101C760034C0DAFFDE2A000EDD22000E0001966F68
:101C8600000E956F95C061F09769986933C0D9FFCA
:101C960034C0DAFFDECF3DF0DDCF3EF03DC0F6FFCB
:101CA6003EC0F7FFF86A0800F550750AD8A45EEF43
:101CB6000EF060EF0EF0A7EF0EF035C0D9FF36C07C
:101CC600DAFFDFCF37F0020EDE26DFCF38F0000E68
:101CD600DD2237C0D9FF38C0DAFFDECF39F0DDCFDD
:101CE6003AF0010E3D24376E000E3E20386E33C0AA
:101CF600D9FF34C0DAFF37C0DEFF38C0DDFF90EF12
:101D06000EF031C027F032C028F039C029F03AC0B1
:101D16002AF07FEC11F0C5EF0EF03DC0F6FF3EC095
:101D2600F7FFF86A0800F550376E386A3850000A2F
:101D3600D8B4A0EF0EF0A7EF0EF03750750AD8B45E
:101D460084EF0EF0A7EF0EF033C0D9FF34C0DAFFF0
:101D5600DE2A000EDD22C5EF0EF033C0D9FF34C0F7
:101D6600DAFFDECFF6FFDDCFF7FFF86A0800F550A1
:101D76000C6E0D6A31C00EF032C00FF0F8EC11F0A7
:101D8600A7EF0EF012000E6E24EF0FF09280C150F6
:101D9600F00B0E09C16E65EF0FF09282C150F00B89
:101DA6000D09C16E65EF0FF09284C150F00B0C095E
:101DB600C16E65EF0FF09286C150F00B0B09C16E34
:101DC60065EF0FF0928AC150F00B0A09C16E65EFFC
:101DD6000FF09680C150F00B0909C16E65EF0FF048
:101DE6009682C150F00B0809C16E65EF0FF096841C
:101DF600C150F00B0709C16E65EF0FF09384C15017
:101E0600F00B0609C16E65EF0FF09386C150F00B1B
:101E16000509C16E65EF0FF09382C150F00B0409FE
:101E2600C16E65EF0FF09388C150F00B0309C16EC8
:101E360065EF0FF09380C150F00B0209C16E65EF9C
:101E46000FF00E500C6E0D6A0D50000AD8B42EEF2E
:101E56000FF065EF0FF00C50000AD8B4C9EF0EF082
:101E6600010AD8B4D0EF0EF0030AD8B4D7EF0EF0BB
:101E7600010AD8B4DEEF0EF0070AD8B4E5EF0EF08B
:101E8600010AD8B4ECEF0EF0030AD8B4F3EF0EF063
:101E9600010AD8B4FAEF0EF00F0AD8B401EF0FF02A
:101EA600010AD8B408EF0FF0030AD8B40FEF0FF009
:101EB600010AD8B416EF0FF0070AD8B41DEF0FF0D9
:101EC60065EF0FF012000C500D10D8B46DEF0FF047
:101ED6006FEF0FF0F1EF0FF0D0EF0FF00CC0D9FF5E
:101EE6000DC0DAFFDF30E832070B0E6E010E0F6E03
:101EF6000E2A80EF0FF0D8900F360E2E7EEF0FF0E1
:101F06000F50FF0A106E0CC0D9FF0DC0DAFFDF3884
:101F1600E832070B116E1150020DCF0EF324D96E65
:101F2600000EF420DA6EDECF12F0DDCF13F012C011
:101F3600D9FF13C0DAFF1050DF16F1EF0FF00CC017
:101F4600D9FF0DC0DAFFDF30E832070B0E6E010E47
:101F56000F6E0E2AB1EF0FF0D8900F360E2EAFEFA0
:101F66000FF00CC0D9FF0DC0DAFFDF38E832070BDF
:101F7600106E1050020DCF0EF324D96E000EF42011
:101F8600DA6EDECF11F0DDCF12F011C0D9FF12C02C
:101F9600DAFF0F50DF12A0EF0FF00CC0D9FF0DC013
:101FA600DAFFDFB0D9EF0FF0DCEF0FF0010EDDEF57
:101FB6000FF0000E0E6E0F6A0F50000AD8B4E6EF4F
:101FC6000FF0F1EF0FF00E50000AD8B471EF0FF0DA
:101FD600010AD8B4A2EF0FF0F1EF0FF01200205073
:101FE6002110D8B4F9EF0FF0FBEF0FF07BEF10F0F4
:101FF600010E2024156E000E2120166E9FEC16F0A1
:1020060020C015F021C016F09FEC16F0000E246ECD
:1020160024502024226E000E2120236E020E22243C
:10202600156E000E2320166E9FEC16F0242A030E62
:10203600246420EF10F022EF10F00BEF10F0340EB6
:10204600226EF20EE82EFED7222EFCD720C01DF0FF
:1020560021C01EF0380E1F6E88EC15F00D0E226E94
:10206600FC0EE82EFED7222EFCD720C01DF021C084
:102076001EF0380E1F6E88EC15F0640EE82EFED7A3
:1020860020C01DF021C01EF0380E1F6E88EC15F022
:1020960020C01DF021C01EF0010E1F6E88EC15F049
:1020A60020C01DF021C01EF0020E1F6E88EC15F038
:1020B60020C01DF021C01EF0060E1F6E88EC15F024
:1020C60020C01DF021C01EF00F0E1F6E88EC15F00B
:1020D60020C01DF021C01EF0280E1F6E88EC15F0E2
:1020E60020C01DF021C01EF0800E1F6E88EC15F07A
:1020F6001200353436343C6E3C50D8A485EF10F0CF
:1021060087EF10F091EF10F0000E336E000E346E74
:10211600000E356E000E366EFEEF10F033C037F04F
:1021260034C038F035C039F036C03AF0200EA1EF91
:1021360010F0D8903A32393238323732E82E9CEFE6
:1021460010F037503B6E358EFF0E3316FF0E3416E9
:10215600FF0E3516000E3616960E3C5E3CBEB8EFE8
:1021660010F0B6EF10F0CEEF10F03C50800A970F4B
:10217600D8B0C0EF10F0C2EF10F0C4EF10F087EF48
:1021860010F0D89036323532343233323C3EC4EF1A
:1021960010F0E6EF10F01F0E3C64D4EF10F0D6EF0F
:1021A60010F0DEEF10F087EF10F0D89033363436AB
:1021B600353636363C063C50D8A4E4EF10F0E6EF50
:1021C60010F0D8EF10F03B50D8B4ECEF10F0EEEF73
:1021D60010F0F6EF10F0361E351E341E336C000E6E
:1021E60034223522362233C033F034C034F035C0C1
:1021F60035F036C036F012000C500D10D8B406EF8C
:1022060011F008EF11F07EEF11F069EF11F00CC03C
:10221600D9FF0DC0DAFFDF30E832070B0F6E010E73
:10222600106E0F2A19EF11F0D89010360F2E17EFF7
:1022360011F00CC0D9FF0DC0DAFFDF38E832070B0A
:10224600116E1150020DD90EF324D96E000EF42032
:10225600DA6EDECF12F0DDCF13F012C0D9FF13C055
:10226600DAFF1050DF127EEF11F00CC0D9FF0DC05F
:10227600DAFFDF30E832070B0F6E010E106E0F2A01
:1022860047EF11F0D89010360F2E45EF11F0105091
:10229600FF0A116E0CC0D9FF0DC0DAFFDF38E83235
:1022A600070B126E1250020DD90EF324D96E000ED2
:1022B600F420DA6EDECF13F0DDCF14F013C0D9FFB1
:1022C60014C0DAFF1150DF167EEF11F00E500F6EBC
:1022D600106A1050000AD8B473EF11F07EEF11F0B7
:1022E6000F50000AD8B438EF11F0010AD8B40AEF3B
:1022F60011F07EEF11F01200000198BF87EF11F088
:1023060085EF11F08DEF11F0000E2E6E010E2D6E81
:1023160091EF11F097C02DF098C02EF095C02BF0DC
:1023260096C02CF0000E306E1F0E2F6E000E0101AF
:102336001F6FC8EF11F02F06D8A03006000E2F240D
:10234600D96E010E3020DA6E29C00CF02AC00DF0CD
:10235600000E0F6E0A0E0E6EF5EC14F00C50300FD8
:10236600DF6E2D06D8A02E062B06D8A02C0629C077
:102376000CF02AC00DF0000E0F6E0A0E0E6E4DEC1C
:1023860014F00CC029F00DC02AF02F503010D8B42C
:10239600CFEF11F0D1EF11F0E7EF11F029502A102D
:1023A600D8A4D8EF11F0DAEF11F09EEF11F02EBE9F
:1023B600E7EF11F02E5006E12D04D8B0E5EF11F04D
:1023C600E7EF11F09EEF11F027C01CF028C01DF0BA
:1023D600000E2F241E6E010E30201F6E2BC020F023
:1023E6002CC021F010EC14F012000E500F10D8B4CF
:1023F600FFEF11F001EF12F00AEF12F00E500F107E
:10240600D8A408EF12F00AEF12F00FEF12F00C50FA
:1024160069EC17F05CEF12F020EE0AF00E50D926A8
:102426000F50DA22DE50DE10D8B41CEF12F01EEF89
:1024360012F039EF12F020EE0AF00E50D9260F50A6
:10244600DA2210EE03F00E50E1260F50E222DE50A3
:10245600E65CE650800A146EDE50800A1458D8B046
:1024660037EF12F039EF12F05CEF12F020EE03F0C6
:102476000E50D9260F50DA22DECF10F0DDCF11F044
:102486000EC0D9FF0FC0DAFFDECF12F0DDCF13F09A
:1024960010501224D96E11501320DA6E0CC0DFFFD3
:1024A60020EE03F00E50D9260F50DA22DE2A000E57
:1024B600DD22120021EE20F0050EDE6AE806FDE2BE
:1024C600000E0101266FFCC00CF0FDC00DF0000EE1
:1024D6000F6E200E0E6E000E116E050E106E6BEC5A
:1024E6000DF0000120EE05F0FC51D926FD51DA224F
:1024F600DF6AFC51FD11D8B483EF12F085EF12F0BC
:10250600A8EF12F0200E476E010E486E110E496EAE
:10251600100E4A6EFAC04BF0FBC04CF035EC16F0CC
:10252600A8EF12F0200E2625D96EDA6A010EDA22FD
:1025360026510001FC25E16E0101000E0001FD217E
:10254600E26EDFCFE7FF0101262B200E01012625D3
:10255600D96EDA6A010EDA22DF50D8A4B5EF12F08E
:10256600B7EF12F095EF12F0120001500210D8B436
:10257600BFEF12F0C1EF12F012EF13F00350041088
:10258600D8B4C8EF12F0CAEF12F012EF13F020EE33
:1025960006F00150D9260250DA22DFA0D5EF12F05C
:1025A600D7EF12F0EBEF12F0C350C4CF05F0066A76
:1025B60005C006F0056A0526000E062203C0D9FFEF
:1025C60004C0DAFF05C0DEFF06C0DDFF12EF13F020
:1025D60020EE06F00150D9260250DA22DFB0F6EFDF
:1025E60012F0F8EF12F0D7EF12F0C350C4CF05F097
:1025F600066A05C006F0056A0526000E0622060EC6
:10260600076E063406320532072E04EF13F003C0B8
:10261600D9FF04C0DAFF05C0DEFF06C0DDFF1200E9
:102626000F501010D8B41AEF13F01CEF13F06CEF24
:1026360013F0C29020EE03F00F50D9261050DA2284
:10264600DF50116E114611461146C0501118C70BC6
:102656001118C06E20EE04F00F50D9261050DA2261
:10266600DF50116EC0501118F80B1118C06E20EE15
:1026760005F00F50D9261050DA22DF50116E1146A0
:102686001146C2501118C30B1118C26E20EE05F088
:102696000F50D9261050DA22DF50C6EC0EF00FC0CC
:1026A6000CF010C00DF0BEEC14F00FC00CF010C012
:1026B6000DF0B7EC15F00FC0D9FF10C0DAFFDECF72
:1026C6005FF0DDCF60F09D9C9E9CF28EF28C9D8C1F
:1026D600C2801200000E2E6E26502710D8B476EF58
:1026E60013F078EF13F0C2EF13F026C020F027C0E6
:1026F60021F028C022F029C023F0C3EC13F0A3EF89
:1027060013F026C01DF027C01EF02E502A242C6E72
:10271600000E2B202D6E2CC0F6FF2DC0F7FF000EED
:10272600F86E0F0EF76403D00800F55005D0F6CF0B
:10273600E9FFF7CFEAFFEF501F6E59EC15F02E2A8E
:102746002E502A242C6E000E2B202D6E2CC0F6FF48
:102756002DC0F7FF000EF86E0F0EF76403D00800C9
:10276600F55005D0F6CFE9FFF7CFEAFFEF500009A5
:10277600D8A4C0EF13F0C2EF13F084EF13F01200E9
:102786002306F2EF13F020C01DF021C01EF02350E7
:10279600800F1F6E88EC15F00FEF14F020C01DF0AF
:1027A60021C01EF02350C00F1F6E88EC15F00FEFEE
:1027B60014F020C01DF021C01EF02350940F1F6E90
:1027C60088EC15F00FEF14F020C01DF021C01EF0AC
:1027D6002350D40F1F6E88EC15F00FEF14F0225023
:1027E600246E256A2550000AD8B4FCEF13F00FEFCB
:1027F60014F02450010AD8B4C6EF13F0030AD8B473
:10280600D1EF13F0010AD8B4DCEF13F0070AD8B4FD
:10281600E7EF13F00FEF14F0120021BE15EF14F0DE
:1028260017EF14F01DEF14F020C025F021C026F09C
:1028360021EF14F0000E266E000E256E000E246E9B
:10284600000E236E33EF14F0000E0D6E200E0C6E8C
:102856001CC00EF01DC00FF0F8EC11F0234A242A1C
:102866002550235C2450800A226E2650800A225866
:10287600D8A040EF14F042EF14F027EF14F01EC07A
:1028860015F01FC016F01CC017F01DC018F05BEC49
:1028960016F01200000E126E000E116E0E500F1082
:1028A600D8B458EF14F05AEF14F082EF14F0010E7A
:1028B600106E62EF14F0D8900E360F36102A0FAE57
:1028C60067EF14F069EF14F05EEF14F0D89011364C
:1028D60012360E500C5C0F500D58D8A075EF14F040
:1028E60077EF14F07CEF14F00E500C5E0F500D5A7B
:1028F6001180D8900F320E32102E69EF14F011C0ED
:102906000CF012C00DF012007A0EF66E2D0EF76E58
:10291600000EF86E00EEBFF010EE3BF00900F5CFAA
:10292600EEFFE550E150FAE1BE0EF66E2E0EF76EA2
:10293600000EF86E00EE6FF010EE04F00900F5CF11
:10294600EEFFE550E150FAE101EE00F0200EEE6AEE
:10295600E806FDE100EE80F03F0EEE6AE806FDE1D6
:1029660000EE5DF0120EEE6AE806FDE173907392DA
:10297600000193EF0BF00C500D10D8B4C5EF14F016
:10298600C7EF14F0F4EF14F00C500D10D8B4CEEFDE
:1029960014F0D0EF14F0F4EF14F020EE06F00C5023
:1029A600D9260D50DA22DFA2DBEF14F0DDEF14F0AA
:1029B600E1EF14F0C18AC188F4EF14F020EE06F0BE
:1029C6000C50D9260D50DA22DFB2ECEF14F0EEEF00
:1029D60014F0F2EF14F0C19AC198F4EF14F0C19A12
:1029E600C19812000E500F10D8B4FCEF14F0FEEF91
:1029F60014F022EF15F0010E106E06EF15F0D890C8
:102A06000E360F36102A0FAE0BEF15F00DEF15F040
:102A160002EF15F00E500C5C0F500D58D8A016EFB3
:102A260015F018EF15F01CEF15F00E500C5E0F5058
:102A36000D5AD8900F320E32102E0DEF15F00CC035
:102A46000CF00DC00DF0120015501610D8B42EEF74
:102A560015F030EF15F058EF15F0000E1C6E1C50F7
:102A66001524186E000E1620196E020E18240C6E10
:102A7600000E19200D6E1CC01AF017C01BF01A2A82
:102A860047EF15F0D8901B321A2E45EF15F01B5064
:102A9600010B0E6EFFEC10F01C2A030E1C6456EFA1
:102AA60015F058EF15F032EF15F012001D501E10FC
:102AB600D8B460EF15F062EF15F087EF15F01DC082
:102AC6000CF01EC00DF0010E0E6EFFEC10F01DC0D6
:102AD60015F01EC016F01F380F0B176E27EC15F0F9
:102AE6001DC015F01EC016F07DEC16F01DC015F0C9
:102AF6001EC016F01FC017F027EC15F01DC015F00C
:102B06001EC016F07DEC16F012001D501E10D8B433
:102B16008FEF15F091EF15F0B6EF15F01DC00CF024
:102B26001EC00DF0000E0E6EFFEC10F01DC015F06D
:102B36001EC016F01F380F0B176E27EC15F01DC0C0
:102B460015F01EC016F07DEC16F01DC015F01EC067
:102B560016F01FC017F027EC15F01DC015F01EC0AB
:102B660016F07DEC16F012000C500D10D8B4BEEF26
:102B760015F0C0EF15F0E1EF15F020EE06F00C5061
:102B8600D9260D50DA22DFA0CBEF15F0CDEF15F0E8
:102B9600D0EF15F0C08EE1EF15F020EE06F00C50E8
:102BA600D9260D50DA22DFB0DBEF15F0DDEF15F098
:102BB600E0EF15F0C09EE1EF15F0C08E12006250F6
:102BC600D8A4E8EF15F0EAEF15F0F8EF15F0ED0EE2
:102BD600016E000E026E6D0E036E000E046EB8ECF2
:102BE60012F0010E626E0CEF16F06204D8A4FEEF2E
:102BF60015F000EF16F00CEF16F0ED0E016E000E5C
:102C0600026E6B0E036E000E046EB8EC12F0000E30
:102C1600626E120041C045F042C046F021EF16F048
:102C26003FC031F040C032F0450E336E000E346EB8
:102C360043C035F044C036F026EC0EF045C0F6FF32
:102C460046C0F7FFF86A0800F5500009D8A42EEF31
:102C560016F030EF16F013EF16F0000E406E000E71
:102C66003F6E12004B0E4F6E000E506E47C051F075
:102C760048C052F0000E556E000E546E000E5C6E8B
:102C8600000E5B6E510E3F6E000E406E49C041F065
:102C96004AC042F04F0E436E000E446E0DEC16F025
:102CA60054504724D96E55504820DA6EDF6A120018
:102CB600000E1B6E000E1A6E6CEF16F019C00CF0AB
:102CC6000D6A17C00EF018C00FF0F8EC11F01A4A92
:102CD6001B2A1A501524D96E1B501620DA6EDF50A7
:102CE600196E1950D8A47AEF16F07CEF16F061EF42
:102CF60016F0120015501610D8B484EF16F086EFB1
:102D060016F09EEF16F0010E15240C6E000E16201E
:102D16000D6E010E0E6EFFEC10F0030EE82EFED7C0
:102D260000F0010E15240C6E000E16200D6E000E1E
:102D36000E6EFFEC10F0120015501610D8B4A6EF68
:102D460016F0A8EF16F0BCEF16F015C00CF016C082
:102D56000DF066EC0FF015C00CF016C00DF015C0A6
:102D6600D9FF16C0DAFF000EDFB2010E0E6EFFECC1
:102D760010F012003738392F3435362A3132332DD8
:102D860023303D2B920F930F940F950F960F890FBB
:102D96008A0F8B0F8C0F8D0F800F810F820F830F81
:0F2DA600840FC42B01050500014044484C5054D4
:102DB60013501410D8B4E2EF16F0E4EF16F0F2EF69
:102DC60016F013C00FF014C010F015C011F00AEC85
:102DD60017F013C00CF014C00DF054EC17F01200ED
:102DE6009E9C5F506010D8B4FBEF16F0FDEF16F016
:102DF60009EF17F002D809EF17F00500FA6E5F50D9
:102E0600FD6E6050FE6EFF6AFA50120012000F50FF
:102E16001010D8B411EF17F013EF17F01FEF17F0DB
:102E260011C012F012461246C2501218C30B1218E5
:102E3600C26E1150C6EC0EF01200016EF290010443
:102E4600D8A428EF17F02AEF17F02CEF17F02CEF85
:102E560017F01200016EF2900104D8A435EF17F0B6
:102E660037EF17F039EF17F039EF17F01200016E50
:102E7600F2900104D8A442EF17F044EF17F046EFA2
:102E860017F046EF17F01200016EF2900104D8A475
:102E96004FEF17F051EF17F053EF17F053EF17F00E
:102EA60012000C500D10D8B45BEF17F05DEF17F061
:102EB6005EEF17F0C282120001010101F2941200C6
:0E2EC600F0921200F0901200F2921200120030
:020000040020DA
:08000000FFFFFFFFFFFFFFFF00
:020000040030CA
:0E000000FF02091EFF8181FF0FC00FE00F40BD
:00000001FF
