:0400000007EF00F016
:0A0008007182F7ED0CF039EF13F0F0
:10100000004B68616C6564204164656C00546172DA
:10101000656B204164656C00257500000001F95185
:10102000FA11D8B416EF08F018EF08F096EF0AF0AE
:10103000000E0101006F000E016F000E026F000E26
:10104000036F4BEF0AF0AC94B896AC9820EE08F022
:10105000F951D926FA51DA22DECF0FF0DECF10F0A7
:10106000DECF11F0DECF12F0000EBFEC10F00FC09B
:1010700021F010C022F011C023F012C024F0000EA5
:101080001D6E240E1E6EF40E1F6E4A0E206EF2ECC4
:101090000EF01DC004F11EC005F11FC006F120C0F6
:1010A00007F1000E216E000E226E800E236E420E9E
:1010B000246E04C11DF005C11EF006C11FF007C15A
:1010C00020F0F2EC0EF01DC036F01EC037F01FC04D
:1010D00038F020C039F0000E3A6E000E3B6E800EE4
:1010E0003C6EBF0E3D6E97EC0AF036C000F137C083
:1010F00001F138C002F139C003F177EF0AF0AC8496
:10110000B896AC9820EE08F0F951D926FA51DA22B7
:10111000DECF0FF0DECF10F0DECF11F0DECF12F019
:10112000000EBFEC10F00FC021F010C022F011C073
:1011300023F012C024F0000E1D6E240E1E6EF40E5D
:101140001F6E4A0E206EF2EC0EF01DC004F11EC0A0
:1011500005F11FC006F120C007F1000E216E000E40
:10116000226E800E236E410E246E04C11DF005C157
:101170001EF006C11FF007C120F0F2EC0EF01DC0FA
:1011800036F01EC037F01FC038F020C039F0000E16
:101190003A6E000E3B6E800E3C6EBF0E3D6E97ECBD
:1011A0000AF036C000F137C001F138C002F139C091
:1011B00003F177EF0AF0AC94B886AC9820EE08F013
:1011C000F951D926FA51DA22DECF0FF0DECF10F036
:1011D000DECF11F0DECF12F0000EBFEC10F00FC02A
:1011E00021F010C022F011C023F012C024F0000E34
:1011F0001D6E240E1E6EF40E1F6E4A0E206EF2EC53
:101200000EF01DC004F11EC005F11FC006F120C084
:1012100007F1000E216E000E226E800E236E410E2D
:10122000246E04C11DF005C11EF006C11FF007C1E8
:1012300020F0F2EC0EF01DC036F01EC037F01FC0DB
:1012400038F020C039F0000E3A6E000E3B6E800E72
:101250003C6EBF0E3D6E97EC0AF036C000F137C011
:1012600001F138C002F139C003F177EF0AF0AC8424
:10127000B886AC9820EE08F0F951D926FA51DA2256
:10128000DECF0FF0DECF10F0DECF11F0DECF12F0A8
:10129000000EBFEC10F00FC021F010C022F011C002
:1012A00023F012C024F0000E1D6E240E1E6EF40EEC
:1012B0001F6E4A0E206EF2EC0EF01DC004F11EC02F
:1012C00005F11FC006F120C007F1000E216E000ECF
:1012D000226E800E236E400E246E04C11DF005C1E7
:1012E0001EF006C11FF007C120F0F2EC0EF01DC089
:1012F00036F01EC037F01FC038F020C039F0000EA5
:101300003A6E000E3B6E800E3C6EBF0E3D6E97EC4B
:101310000AF036C000F137C001F138C002F139C01F
:1013200003F177EF0AF0AC84B896AC8820EE08F0B1
:10133000F951D926FA51DA22DECF0FF0DECF10F0C4
:10134000DECF11F0DECF12F0000EBFEC10F00FC0B8
:1013500021F010C022F011C023F012C024F0000EC2
:101360001D6E240E1E6EF40E1F6E4A0E206EF2ECE1
:101370000EF01DC004F11EC005F11FC006F120C013
:1013800007F1000E216E000E226E800E236E400EBD
:10139000246E04C11DF005C11EF006C11FF007C177
:1013A00020F0F2EC0EF01DC036F01EC037F01FC06A
:1013B00038F020C039F0000E3A6E000E3B6E800E01
:1013C0003C6EBF0E3D6E97EC0AF036C000F137C0A0
:1013D00001F138C002F139C003F177EF0AF0AC84B3
:1013E000B886AC8820EE08F0F951D926FA51DA22F5
:1013F000DECF0FF0DECF10F0DECF11F0DECF12F037
:10140000000EBFEC10F00FC021F010C022F011C090
:1014100023F012C024F0000E1D6E240E1E6EF40E7A
:101420001F6E4A0E206EF2EC0EF01DC004F11EC0BD
:1014300005F11FC006F120C007F1000E216E000E5D
:10144000226E800E236E400E246E04C11DF005C175
:101450001EF006C11FF007C120F0F2EC0EF01DC017
:1014600036F01EC037F01FC038F020C039F0000E33
:101470003A6E000E3B6E800E3C6EBF0E3D6E97ECDA
:101480000AF036C000F137C001F138C002F139C0AE
:1014900003F177EF0AF0000120EE0CF0F951D926A4
:1014A000FA51DA22DF50FB6FFC6BFC51000AD8B412
:1014B0005CEF0AF077EF0AF0FB51000AD8B423EF93
:1014C00008F0010AD8B47FEF08F0030AD8B4DBEFC4
:1014D00008F0010AD8B437EF09F0070AD8B493EF3F
:1014E00009F0010AD8B4EFEF09F077EF0AF000C174
:1014F0000FF001C110F002C111F003C112F099EC1C
:1015000011F00F50AF6E00C10FF001C110F002C119
:1015100011F003C112F099EC11F010C00FF011C0DE
:1015200010F012C011F0126A0F50B06E1200395054
:10153000800B426E39503924446E38AEA2EF0AF067
:10154000A4EF0AF0A5EF0AF044804450D8B4ABEF02
:101550000AF0ADEF0AF0C2EF0AF04428D8A4B3EFC6
:101560000AF0B5EF0AF0BDEF0AF0000E366E000E7D
:10157000376E000E386E000E396E388E000E396EE2
:10158000CAEF0AF0000E366E000E376E000E386E8F
:10159000000E396E3D50800B436E42504318D8B454
:1015A000D4EF0AF0D6EF0AF0D7EF0AF0428C3D50A4
:1015B0003D24436E3CAEDFEF0AF0E1EF0AF0E2EFCC
:1015C0000AF043804350D8B4E8EF0AF0EAEF0AF09B
:1015D000FFEF0AF04328D8A4F0EF0AF0F2EF0AF088
:1015E000FAEF0AF0000E3A6E000E3B6E000E3C6EF3
:1015F000000E3D6E3C8E000E3D6E07EF0BF0000EB0
:101600003A6E000E3B6E000E3C6E000E3D6E445076
:10161000435CD8B00EEF0BF010EF0BF037EF0BF090
:1016200042AC15EF0BF017EF0BF019EF0BF0800E3B
:10163000421A44C045F043C044F045C043F036C0B0
:1016400045F03AC036F045C03AF037C045F03BC0EF
:1016500037F045C03BF038C045F03CC038F045C0DD
:101660003CF039C045F03DC039F045C03DF0000EBA
:10167000456E445043C03EF03F6A3E5E000E3F5A06
:101680003FBE4CEF0BF03F5009E11A0E3E5CD8A074
:101690004CEF0BF04EEF0BF085EF0BF036503710A0
:1016A00038103910D8A457EF0BF05AEF0BF0010E99
:1016B0005BEF0BF0000E456E000E366E000E376EBF
:1016C000000E386E000E396E43C044F08EEF0BF002
:1016D00045A06DEF0BF06FEF0BF075EF0BF0D890AE
:1016E00045300109456E77EF0BF0D890453236A0B2
:1016F0007CEF0BF07EEF0BF07FEF0BF0458E393473
:101700003932383237323632442A4350445CD8A01A
:101710008CEF0BF08EEF0BF068EF0BF042BC93EF09
:101720000BF095EF0BF0D5EF0BF04450D8A49BEFE6
:101730000BF09DEF0BF0A7EF0BF0000E366E000ED6
:10174000376E000E386E000E396EF6EF0CF03A5020
:1017500036263B5037223C5038223D50392239A0A2
:10176000B4EF0BF0B6EF0BF062EF0CF045A0BBEF5F
:101770000BF0BDEF0BF0C3EF0BF0D8904530010933
:10178000456EC5EF0BF0D890453236A0CAEF0BF08E
:10179000CCEF0BF0CDEF0BF0458E393439323832C7
:1017A00037323632442A62EF0CF03A50365C3B5006
:1017B00037583C5038583950800A3E6E3D50800AA8
:1017C0003E58D8B0E6EF0BF0E8EF0BF013EF0CF05B
:1017D00036503A5C3E6E37503B583F6E38503C585E
:1017E000406E39503D58416EFF0E3E24366EFF0E5E
:1017F0003F20376EFF0E4020386EFF0E4120396EBD
:10180000800E421A456C4550D8A409EF0CF00BEF3E
:101810000CF01BEF0CF0010E3626000E372238229A
:1018200039221BEF0CF03A50365E3B50375A3C5091
:10183000385A3D50395A3650371038103910D8A41C
:1018400024EF0CF026EF0CF05BEF0CF04550D8A421
:101850002CEF0CF02EEF0CF05BEF0CF0000E366E60
:10186000000E376E000E386E000E396EF6EF0CF07B
:10187000D890363637363836393645AE42EF0CF02A
:1018800044EF0CF045EF0CF0368045A04AEF0CF029
:101890004CEF0CF050EF0CF0D880453652EF0CF0C6
:1018A000D89045364450D8B458EF0CF05AEF0CF0AD
:1018B0005BEF0CF0440638AE60EF0CF062EF0CF01A
:1018C00038EF0CF0000E436E45AE69EF0CF06BEF95
:1018D0000CF083EF0CF045C03EF07F0E3E16D8B4FE
:1018E00074EF0CF076EF0CF07AEF0CF0010E436E13
:1018F00083EF0CF036A07FEF0CF081EF0CF083EF5C
:101900000CF076EF0CF04350D8B489EF0CF08BEF6D
:101910000CF0B6EF0CF0010E3626000E37223822FE
:10192000392239A096EF0CF098EF0CF0B6EF0CF0DE
:1019300036C03EF037C03FF038C040F039C041F00B
:101940004134413240323F323E323EC036F03FC039
:1019500037F040C038F041C039F04428D8B4B3EF74
:101960000CF0B5EF0CF0B6EF0CF0442A4428D8B4D4
:10197000BCEF0CF0BEEF0CF0C6EF0CF04450D8A456
:10198000C4EF0CF0C6EF0CF0D8EF0CF0000E366E82
:10199000000E376E000E386E000E396E4450D8A41B
:1019A000D4EF0CF0D6EF0CF0D8EF0CF0000E426E36
:1019B00044A0DDEF0CF0DFEF0CF0E2EF0CF0388E1E
:1019C000E3EF0CF0389ED8904430396E42AEEBEF26
:1019D0000CF0EDEF0CF0EEEF0CF0398E36C036F077
:1019E00037C037F038C038F039C039F0120006007F
:1019F000FACF09F0FBCF0AF0F6CF0BF0F7CF0CF0DF
:101A0000F8CF0DF0F5CF0EF0F2A809EF0DF00BEFC7
:101A10000DF014EF0DF0F2A210EF0DF012EF0DF03B
:101A200014EF0DF067EC14F0F0A619EF0DF01BEFBA
:101A30000DF024EF0DF0F0A020EF0DF022EF0DF0EF
:101A400024EF0DF065EC14F0F0A829EF0DF02BEF6A
:101A50000DF034EF0DF0F0A230EF0DF032EF0DF09D
:101A600034EF0DF063EC14F0F2A639EF0DF03BEF1C
:101A70000DF056EF0DF0F2A040EF0DF042EF0DF03B
:101A800056EF0DF081A847EF0DF049EF0DF056EF3E
:101A90000DF07004D8A44FEF0DF051EF0DF056EF9C
:101AA0000DF0000E706E010E14EC14F0F2A65BEF58
:101AB0000DF05DEF0DF078EF0DF0F2A062EF0DF09C
:101AC00064EF0DF078EF0DF081B869EF0DF06BEF7A
:101AD0000DF078EF0DF07050D8A471EF0DF073EFAA
:101AE0000DF078EF0DF0010E706E000E14EC14F096
:101AF000F2A67DEF0DF07FEF0DF09AEF0DF0F2A062
:101B000084EF0DF086EF0DF09AEF0DF081AA8BEFC8
:101B10000DF08DEF0DF09AEF0DF06F04D8A493EF58
:101B20000DF095EF0DF09AEF0DF0000E6F6E010EB7
:101B300007EC14F0F2A69FEF0DF0A1EF0DF0BCEF53
:101B40000DF0F2A0A6EF0DF0A8EF0DF0BCEF0DF038
:101B500081BAADEF0DF0AFEF0DF0BCEF0DF06F50AF
:101B6000D8A4B5EF0DF0B7EF0DF0BCEF0DF0010EFE
:101B70006F6E000E07EC14F0F2A6C1EF0DF0C3EF8C
:101B80000DF0DEEF0DF0F2A0C8EF0DF0CAEF0DF092
:101B9000DEEF0DF081ACCFEF0DF0D1EF0DF0DEEF09
:101BA0000DF06E04D8A4D7EF0DF0D9EF0DF0DEEFF5
:101BB0000DF0000E6E6E010EFAEC13F0F2A6E3EFDC
:101BC0000DF0E5EF0DF000EF0EF0F2A0EAEF0DF0F2
:101BD000ECEF0DF000EF0EF081BCF1EF0DF0F3EF44
:101BE0000DF000EF0EF06E50D8A4F9EF0DF0FBEF02
:101BF0000DF000EF0EF0010E6E6E000EFAEC13F019
:101C0000F2A605EF0EF007EF0EF022EF0EF0F2A0B5
:101C10000CEF0EF00EEF0EF022EF0EF081AE13EF90
:101C20000EF015EF0EF022EF0EF06D04D8A41BEFAE
:101C30000EF01DEF0EF022EF0EF0000E6D6E010E95
:101C4000EDEC13F0F2A627EF0EF029EF0EF044EFC3
:101C50000EF0F2A02EEF0EF030EF0EF044EF0EF08B
:101C600081BE35EF0EF037EF0EF044EF0EF06D5001
:101C7000D8A43DEF0EF03FEF0EF044EF0EF0010E52
:101C80006D6E000EEDEC13F09DAC49EF0EF04BEFD6
:101C90000EF054EF0EF09EAC50EF0EF052EF0EF03F
:101CA00054EF0EF071EC14F0F2AA59EF0EF05BEF66
:101CB0000EF064EF0EF0F2A460EF0EF062EF0EF0A3
:101CC00064EF0EF04CEC14F09DA069EF0EF06BEF9A
:101CD0000EF074EF0EF09EA070EF0EF072EF0EF0AB
:101CE00074EF0EF046EC14F09DA279EF0EF07BEF4E
:101CF0000EF084EF0EF09EA280EF0EF082EF0EF059
:101D000084EF0EF052EC14F0A0A289EF0EF08BEFEE
:101D10000EF094EF0EF0A1A290EF0EF092EF0EF005
:101D200094EF0EF040EC14F09DA499EF0EF09BEFB1
:101D30000EF0A4EF0EF09EA4A0EF0EF0A2EF0EF0B6
:101D4000A4EF0EF06FEC14F0A0A0A9EF0EF0ABEF33
:101D50000EF0B4EF0EF0A1A0B0EF0EF0B2EF0EF067
:101D6000B4EF0EF06DEC14F09DA8B9EF0EF0BBEFE0
:101D70000EF0C4EF0EF09EA8C0EF0EF0C2EF0EF012
:101D8000C4EF0EF0D6EC13F09DAAC9EF0EF0CBEF26
:101D90000EF0D4EF0EF09EAAD0EF0EF0D2EF0EF0C0
:101DA000D4EF0EF0BEEC12F09DAED9EF0EF0DBEFEB
:101DB0000EF0DCEF0EF09E509DA6E1EF0EF0E3EF8B
:101DC0000EF0E4EF0EF09E500EC0F5FF0DC0F8FFD0
:101DD0000CC0F7FF0BC0F6FF0AC0FBFF09C0FAFFFB
:101DE000719211002050800B2D6E20502024346EF3
:101DF0001FAEFDEF0EF0FFEF0EF000EF0FF034809E
:101E00003450D8B406EF0FF008EF0FF01DEF0FF0CD
:101E10003428D8A40EEF0FF010EF0FF018EF0FF0EA
:101E2000000E1D6E000E1E6E000E1F6E000E206E48
:101E30001F8E000E206E25EF0FF0000E1D6E000E9F
:101E40001E6E000E1F6E000E206E2450800B2D1A89
:101E500024502424356E23AE30EF0FF032EF0FF014
:101E600033EF0FF035803550D8B439EF0FF03BEF3A
:101E70000FF050EF0FF03528D8A441EF0FF043EFEB
:101E80000FF04BEF0FF0000E216E000E226E000ED1
:101E9000236E000E246E238E000E246E58EF0FF07A
:101EA000000E216E000E226E000E236E000E246EB8
:101EB0002150221023102410D8A461EF0FF063EFFB
:101EC0000FF07BEF0FF0000E1D6E000E1E6E000E69
:101ED0001F6E000E206E800E1F127F0E20122D50DE
:101EE00020121DC01DF01EC01EF01FC01FF020C01C
:101EF00020F0BEEF10F03450D8A481EF0FF083EF44
:101F00000FF08DEF0FF0000E1D6E000E1E6E000E16
:101F10001F6E000E206EBEEF10F0355034C025F05D
:101F2000266A255E000E265A7F0E25242E6E000E90
:101F300026202F6E1DC029F01EC02AF01FC02BF0D6
:101F400020C02CF0000E1D6E000E1E6E000E1F6EC7
:101F5000000E206E000E306E000E316E000E326EDE
:101F6000000E336E000E356EEEEF0FF03550D8B424
:101F7000BCEF0FF0BEEF0FF0D5EF0FF0D890293681
:101F80002A362B362C36D8901D361E361F36203674
:101F900033AECDEF0FF0CFEF0FF0D0EF0FF01D808D
:101FA000D89030363136323633362150295C2250C3
:101FB0002A5823502B5824502C58D8A0E2EF0FF069
:101FC000E4EF0FF0EDEF0FF0338C2150295E22503B
:101FD0002A5A23502B5A24502C5A352A190E35646C
:101FE000F4EF0FF0F6EF0FF0B6EF0FF029502A10D4
:101FF0002B102C10D8B4FFEF0FF001EF10F019EFF9
:1020000010F0308019EF10F0D8901D361E361F36B4
:10201000203633AE0EEF10F010EF10F011EF10F08D
:102020001D80D89030363136323633362E06D8A061
:102030002F061FAE1EEF10F020EF10F004EF10F08F
:10204000000E356E33AE27EF10F029EF10F04DEF94
:1020500010F0FF0E3014256EFF0E3114266EFF0EA9
:102060003214276E7F0E3314286E25502610271049
:102070002810D8B43EEF10F040EF10F044EF10F00D
:10208000010E356E4DEF10F01DA049EF10F04BEF33
:1020900010F04DEF10F040EF10F03550D8B453EF82
:1020A00010F055EF10F079EF10F0010E1D26000E24
:1020B0001E221F22202220A060EF10F062EF10F0FD
:1020C00079EF10F01DC025F01EC026F01FC027F0CC
:1020D00020C028F02834283227322632253225C065
:1020E0001DF026C01EF027C01FF028C020F02E4A89
:1020F0002F2A2FBE84EF10F02F5008E12E28D8A0F1
:1021000084EF10F086EF10F091EF10F0000E2F6EBC
:102110002E68000E1D6E000E1E6E000E1F6E000E4D
:10212000206E2FBE9EEF10F02F5006E12E04D8B087
:102130009CEF10F09EEF10F0ACEF10F0000E2F6E41
:10214000000E2E6E000E1D6E000E1E6E000E1F6E17
:10215000000E206E000E2D6E2EC034F034A0B3EFB2
:1021600010F0B5EF10F0B8EF10F01F8EB9EF10F0CF
:102170001F9ED8903430206E6FEF0FF01200176E54
:102180001750D8B4C6EF10F0C8EF10F0EAEF10F017
:1021900012BECFEF10F0CDEF10F0EAEF10F00FC04D
:1021A00013F010C014F011C015F012C016F0131E79
:1021B000141E151E161E132A000E14221522162296
:1021C00013C019F014C01AF015C01BF016C01CF093
:1021D000F2EF10F00FC019F010C01AF011C01BF090
:1021E00012C01CF00F50101011101210D8A4FBEFE9
:1021F00010F0FDEF10F007EF11F0000E0F6E000E63
:10220000106E000E116E000E126E98EF11F0960E09
:10221000186E11EF11F0182AD8901C321B321A32A6
:102220001932000E1914136E000E1A14146E000EDB
:102230001B14156EFE0E1C14166E13501410151080
:102240001610D8A426EF11F028EF11F00BEF11F0C3
:1022500036EF11F0182A010E1926000E1A221B2241
:102260001C22D8901C321B321A321932000E19145B
:10227000136E000E1A14146E000E1B14156EFF0E52
:102280001C14166E1350141015101610D8A44BEF12
:1022900011F04DEF11F02AEF11F055EF11F0180683
:1022A000D89019361A361B361C361BBE5AEF11F061
:1022B0005CEF11F064EF11F0020E186062EF11F0A4
:1022C00064EF11F04FEF11F018B069EF11F06BEF00
:1022D00011F06CEF11F01B9ED890183218C013F05B
:1022E000146A156A166A13C016F0156A146A136A1E
:1022F0001350191214501A1215501B1216501C129A
:102300001750D8B486EF11F088EF11F090EF11F06C
:1023100012BE8FEF11F08DEF11F090EF11F01C8EC7
:1023200019C00FF01AC010F01BC011F01CC012F041
:10233000120011341234186E1850D8A4A2EF11F004
:10234000A4EF11F0AEEF11F0000E0F6E000E106E44
:10235000000E116E000E126E1BEF12F00FC013F084
:1023600010C014F011C015F012C016F0200EBEEF10
:1023700011F0D8901632153214321332E82EB9EF1C
:1023800011F01350176E118EFF0E0F16FF0E101660
:10239000FF0E1116000E1216960E185E18BED5EF1F
:1023A00011F0D3EF11F0EBEF11F01850800A970FF6
:1023B000D8B0DDEF11F0DFEF11F0E1EF11F0A4EF95
:1023C00011F0D8901232113210320F32183EE1EF74
:1023D00011F003EF12F01F0E1864F1EF11F0F3EF9C
:1023E00011F0FBEF11F0A4EF11F0D8900F3610367A
:1023F0001136123618061850D8A401EF12F003EF68
:1024000012F0F5EF11F01750D8B409EF12F00BEFFE
:1024100012F013EF12F0121E111E101E0F6C000EA0
:102420001022112212220FC00FF010C010F011C0A4
:1024300011F012C012F012000F501010D8B423EF98
:1024400012F025EF12F077EF12F020EE0EF00F50A1
:10245000D9261050DA22DFAA30EF12F032EF12F054
:1024600076EF12F0AB8820EE0EF00F50D926105008
:10247000DA22DFAE3EEF12F040EF12F043EF12F03F
:10248000AB8C44EF12F0AB9C20EE0EF00F50D9262F
:102490001050DA22DFAC4FEF12F051EF12F073EF71
:1024A00012F09D9A20EE02F00F50D9261050DA2239
:1024B000DECF46F0DDCF47F020EE04F00F50D926F6
:1024C0001050DA22DECF4CF0DDCF4DF020EE06F0DA
:1024D0000F50D9261050DA22DECF4AF0DDCF4BF074
:1024E0009D8A77EF12F09D9A77EF12F0AB98120069
:1024F0000F501010D8B47FEF12F081EF12F0BDEF43
:1025000012F020EE0DF00F50D9261050DA22DFAA7B
:102510008CEF12F08EEF12F0BCEF12F0AC8A20EECE
:102520000DF00F50D9261050DA22DFAE9AEF12F0DC
:102530009CEF12F09FEF12F0AC8CA0EF12F0AC9C6D
:1025400020EE0DF00F50D9261050DA22DFACABEFA1
:1025500012F0ADEF12F0B9EF12F09D980FC0D9FF55
:1025600010C0DAFFDECF48F0DDCF49F09D88BDEF27
:1025700012F09D98BDEF12F0AC9A12004650471031
:10258000D8B4C5EF12F0C7EF12F0D3EF12F002D8B3
:10259000D3EF12F00500FA6E4650FD6E4750FE6E06
:1025A000FF6AFA5012004C504D10D8B4DAEF12F016
:1025B000DCEF12F0E8EF12F002D8E8EF12F00500BD
:1025C000FA6E4C50FD6E4D50FE6EFF6AFA501200CE
:1025D0004A504B10D8B4EFEF12F0F1EF12F0FDEFCC
:1025E00012F002D8FDEF12F00500FA6E4A50FD6EAF
:1025F0004B50FE6EFF6AFA5012001200010E0001ED
:10260000CF27000ED023D123D22369EC14F0616EC2
:10261000615021EC14F00D0E21EC14F020EF13F0BA
:102620000D0E026E100E036E6AEC13F035EF13F010
:10263000010E026E100E036E6AEC13F035EF13F00C
:102640006150076E086A0850000AD8B42AEF13F0E8
:1026500035EF13F00750610AD8B410EF13F00A0AEF
:10266000D8B418EF13F035EF13F00D0E21EC14F081
:1026700012006E0EF66E270EF76E000EF86E00EE6C
:1026800080F010EE3EF00900F5CFEEFFE550E1508E
:10269000FAE1C20EF66E280EF76E000EF86E00EE2E
:1026A0006DF010EE04F00900F5CFEEFFE550E150BB
:1026B000FAE100EEBEF03B0EEE6AE806FDE100EE48
:1026C00046F0270EEE6AE806FDE171907192000176
:1026D0002DEF14F0000E066E7EEF13F0065002246C
:1026E000046E000E0320056E04C0F6FF05C0F7FF60
:1026F000F86A0800F55021EC14F0062A065002246E
:10270000046E000E0320056E04C0F6FF05C0F7FF3F
:10271000F86A0800F5500009D8A491EF13F093EF80
:1027200013F06EEF13F012000001FD51FE11D8B44A
:102730009CEF13F09EEF13F0B6EF13F0AB9E948C6A
:10274000948EFDC0F9F0FEC0FAF00EEC08F0FDC06A
:102750000FF0FEC010F078EC12F0FDC00FF0FEC0DC
:1027600010F01CEC12F0F28EF28CAB8E12003738A7
:10277000392F3435362A3132332D23303D2B920F09
:10278000930F940F950F960F890F8A0F8B0F8C0F55
:102790008D0F800F810F820F830F840F7028FC250F
:1027A000B428AC2880250000006060009D98485047
:1027B0004910D8B4DEEF13F0E0EF13F0ECEF13F0B4
:1027C00002D8ECEF13F00500FA6E4850FD6E495048
:1027D000FE6EFF6AFA5012001200016EF2900104C0
:1027E000D8A4F5EF13F0F7EF13F0F9EF13F0F9EFCA
:1027F00013F01200016EF2900104D8A402EF14F05D
:1028000004EF14F006EF14F006EF14F01200016E5E
:10281000F2900104D8A40FEF14F011EF14F013EFAD
:1028200014F013EF14F01200016EF2900104D8A41A
:102830001CEF14F01EEF14F020EF14F020EF14F052
:102840001200016EACA227EF14F029EF14F022EF72
:1028500014F001C0ADFF9D881200AE0E0001FD6FA7
:10286000000EFE6F94EC13F034EF14F007EF00F05D
:10287000010E0001D327000ED423D523D623120046
:10288000A1924F50B36E4EC0B2FF12009E905150B5
:10289000CF6E50C0CEFF1200F2945350D76E52C08C
:1028A000D6FF12009E9264C0CCFF1200632A5EEC39
:1028B00014F01200622A6BEC14F01200AB98AB8893
:1028C000120001010101F0921200F0901200F29248
:1028D0001200AE501200AE501200A19012009E9451
:0628E00012009E9C120094
:020000040020DA
:08000000FFFFFFFFFFFFFFFF00
:020000040030CA
:0E000000FF02091EFF8181FF0FC00FE00F40BD
:00000001FF
