:0400000007EF00F016
:0A000800738220ED0AF077EF14F088
:10100000004465675F313A20004465675F323A20EB
:05101000002575000041
:101016001D50800B266E1D501D242C6E1CAE16EF27
:1010260008F018EF08F019EF08F02C802C50D8B40F
:101036001FEF08F021EF08F034EF08F02C28D8A4B1
:1010460027EF08F029EF08F031EF08F0000E1A6ECE
:10105600000E1B6E000E1C6E000E1D6E1C8E3CEFED
:1010660008F0000E1A6E000E1B6E000E1C6E000EAF
:101076001D6E2150800B261A215021242B6E20AE86
:1010860047EF08F049EF08F04AEF08F02B802B50A5
:10109600D8B450EF08F052EF08F065EF08F02B28AF
:1010A600D8A458EF08F05AEF08F062EF08F0000EE7
:1010B6001E6E000E1F6E000E206E000E216E208E1C
:1010C6006DEF08F0000E1E6E000E1F6E000E206EF5
:1010D600000E216E2B50D8B473EF08F075EF08F0B0
:1010E6007DEF08F02C50D8A47BEF08F07DEF08F0D8
:1010F60087EF08F0000E1A6E000E1B6E000E1C6EB7
:10110600000E1D6E1FEF0AF020501A02F3CF31F0C9
:10111600F4CF32F03150276E286A296A2A6A325093
:101126002D6E2E6A2F6A306A1F501B02F3CF31F0E4
:10113600F4CF32F031502726000E282229222A2207
:1011460032502D26000E2E222F2230221E501C0237
:10115600F3CF31F0F4CF32F031502726000E28229B
:1011660029222A2232502D26000E2E222F2230220C
:1011760029C02AF028C029F027C028F0276A1E5067
:101186001B02F3CF31F0F4CF32F031502726325024
:101196002822000E2922000E2A221F501A02F3CFFF
:1011A60031F0F4CF32F03150272632502822000E8B
:1011B6002922000E2A2229C02AF028C029F027C099
:1011C60028F0276A1E501A02F3CF31F0F4CF32F01E
:1011D6003150272632502822000E2922000E2A22BC
:1011E60020501B02F3CF31F0F4CF32F031502D26D0
:1011F60032502E22000E2F22000E30221F501C02CB
:10120600F3CF31F0F4CF32F031502D2632502E226A
:10121600000E2F22000E302220501C02F3CF31F098
:10122600F4CF32F03150226E3250236E246A256A92
:1012360024C025F023C024F022C023F0226A2250C5
:101246002D2623502E2224502F222550302227C00F
:1012560022F028C023F029C024F02AC025F0190E58
:101266003AEF09F0D8902532243223322232E82E82
:1012760035EF09F022502D2623502E2224502F22FE
:101286002550302229C02AF028C029F027C028F08E
:10129600276A2B502CC022F0236A2226000E232216
:1012A600820E2224316EFF0E2320326E70EF09F07B
:1012B600D8902D362E362F3630362AAE65EF09F009
:1012C60067EF09F068EF09F02D80D89027362836A9
:1012D60029362A363106D8A032062FAE75EF09F028
:1012E60077EF09F05BEF09F0000E2B6E2AAE7EEF6A
:1012F60009F080EF09F0A4EF09F0FF0E2714226E23
:10130600FF0E2814236EFF0E2914246E7F0E2A1456
:10131600256E2250231024102510D8B495EF09F01D
:1013260097EF09F09BEF09F0010E2B6EA4EF09F081
:101336002DA0A0EF09F0A2EF09F0A4EF09F097EFB6
:1013460009F02B50D8B4AAEF09F0ACEF09F0D0EFB2
:1013560009F0010E2D26000E2E222F22302230A05B
:10136600B7EF09F0B9EF09F0D0EF09F02DC022F080
:101376002EC023F02FC024F030C025F025342532AE
:1013860024322332223222C02DF023C02EF024C074
:101396002FF025C030F0314A322A32BEDBEF09F099
:1013A600325008E13128D8A0DBEF09F0DDEF09F073
:1013B600E7EF09F0000E2D6E000E2E6E800E2F6EDA
:1013C6007F0E306E15EF0AF032BEF4EF09F03250A0
:1013D60006E13104D8B0F2EF09F0F4EF09F000EFBE
:1013E6000AF0000E2D6E000E2E6E000E2F6E000EF1
:1013F600306E000E266E15EF0AF031C02CF0FF0E8F
:101406002D16FF0E2E167F0E2F16000E30162CA050
:101416000FEF0AF011EF0AF012EF0AF02F8ED890B4
:101426002C30306E265030122DC01AF02EC01BF014
:101436002FC01CF030C01DF012000600FACF08F0D5
:10144600FBCF09F0D9CF0AF0DACF0BF0F2A82EEFD6
:101456000AF030EF0AF039EF0AF0F2A235EF0AF09F
:1014660037EF0AF039EF0AF055EC17F0F0A63EEF29
:101476000AF040EF0AF049EF0AF0F0A045EF0AF053
:1014860047EF0AF049EF0AF053EC17F0F0A84EEFD9
:101496000AF050EF0AF059EF0AF0F0A255EF0AF001
:1014A60057EF0AF059EF0AF051EC17F0F2A65EEF8B
:1014B6000AF060EF0AF07BEF0AF0F2A065EF0AF09F
:1014C60067EF0AF07BEF0AF081A86CEF0AF06EEF87
:1014D6000AF07BEF0AF07204D8A474EF0AF076EFF4
:1014E6000AF07BEF0AF0000E726E010E37EC17F071
:1014F600F2A680EF0AF082EF0AF09DEF0AF0F2A062
:1015060087EF0AF089EF0AF09DEF0AF081B88EEFB7
:101516000AF090EF0AF09DEF0AF07250D8A496EF09
:101526000AF098EF0AF09DEF0AF0010E726E000EB7
:1015360037EC17F0F2A6A2EF0AF0A4EF0AF0BFEF1D
:101546000AF0F2A0A9EF0AF0ABEF0AF0BFEF0AF03B
:1015560081AAB0EF0AF0B2EF0AF0BFEF0AF0710409
:10156600D8A4B8EF0AF0BAEF0AF0BFEF0AF0000EFF
:10157600716E010E2AEC17F0F2A6C4EF0AF0C6EF60
:101586000AF0E1EF0AF0F2A0CBEF0AF0CDEF0AF095
:10159600E1EF0AF081BAD2EF0AF0D4EF0AF0E1EFF8
:1015A6000AF07150D8A4DAEF0AF0DCEF0AF0E1EFA6
:1015B6000AF0010E716E000E2AEC17F0F2A6E6EFA5
:1015C6000AF0E8EF0AF003EF0BF0F2A0EDEF0AF0F5
:1015D600EFEF0AF003EF0BF081ACF4EF0AF0F6EF51
:1015E6000AF003EF0BF07004D8A4FCEF0AF0FEEF4C
:1015F6000AF003EF0BF0000E706E010E1DEC17F0F3
:10160600F2A608EF0BF00AEF0BF025EF0BF0F2A0B5
:101616000FEF0BF011EF0BF025EF0BF081BC16EF7F
:101626000BF018EF0BF025EF0BF07050D8A41EEF5F
:101636000BF020EF0BF025EF0BF0010E706E000E95
:101646001DEC17F0F2A62AEF0BF02CEF0BF047EF8C
:101656000BF0F2A031EF0BF033EF0BF047EF0BF08E
:1016660081AE38EF0BF03AEF0BF047EF0BF06F045B
:10167600D8A440EF0BF042EF0BF047EF0BF0000E53
:101686006F6E010E10EC17F0F2A64CEF0BF04EEF5A
:101696000BF069EF0BF0F2A053EF0BF055EF0BF0E8
:1016A60069EF0BF081BE5AEF0BF05CEF0BF069EFC0
:1016B6000BF06F50D8A462EF0BF064EF0BF069EFFC
:1016C6000BF0010E6F6E000E10EC17F09DAC6EEF76
:1016D6000BF070EF0BF079EF0BF09EAC75EF0BF0A3
:1016E60077EF0BF079EF0BF0E3EC16F00BC0DAFFB7
:1016F6000AC0D9FF09C0FBFF08C0FAFF73921100A8
:10170600EB0E0F6E000E106E03EC13F0F20E206E51
:10171600000E216EE2EC0FF0F20E1D6E000E1E6E34
:101726000C0E1F6E78EC15F0F20E1D6E000E1E6E7E
:10173600010E1F6E78EC15F0F20E266E000E276E67
:10174600010E286E010E296E010E2A6E100E2B6EEA
:101756005DEC13F0F20E266E000E276E020E286E5A
:10176600010E296E090E2A6E100E2B6E5DEC13F01B
:101776006250D8A4C1EF0BF0C3EF0BF0CDEF0BF026
:10178600EB0E136E000E146E000E156ECBEC16F0FB
:10179600DDEF0BF06204D8A4D3EF0BF0D5EF0BF01E
:1017A600DDEF0BF0EB0E136E000E146E010E156ED0
:1017B600CBEC16F0F60E1E6E280E1F6E9C0E206EDB
:1017C600400E216E6DC00CF06EC00DF00E6A0F6AF1
:1017D600000E81EC0CF00CC01AF00DC01BF00EC010
:1017E6001CF00FC01DF00BEC08F01AC033F01BC044
:1017F60034F01CC035F01DC036F06CEC10F033C070
:101806005DF034C05EF05DC00CF05EC00DF0000E01
:101816000F6E0A0E0E6E3DEC14F00CC05DF00DC09E
:101826005EF0F60E1E6E280E1F6E9C0E206E400E8B
:10183600216E6BC00CF06CC00DF00E6A0F6A000EC4
:1018460081EC0CF00CC01AF00DC01BF00EC01CF0A1
:101856000FC01DF00BEC08F01AC033F01BC034F0BB
:101866001CC035F01DC036F06CEC10F033C099F09A
:1018760034C09AF099C00CF09AC00DF0000E0F6EAD
:101886000A0E0E6E3DEC14F00CC099F00DC09AF0E5
:101896005DC0F8F05EC0F9F0B70E0001FA6F000EF9
:1018A600FB6F4DEC12F099C0F8F09AC0F9F0B10E4A
:1018B6000001FA6F000EFB6F4DEC12F0F20E266E71
:1018C600000E276E010E286E070E296EB70E2A6EC1
:1018D600000E2B6E5DEC13F0F20E266E000E276ED8
:1018E600020E286E070E296EB10E2A6E000E2B6EA2
:1018F6005DEC13F0BBEF0BF007EF00F0146E145025
:10190600D8B488EF0CF08AEF0CF0ACEF0CF00FBEF9
:1019160091EF0CF08FEF0CF0ACEF0CF00CC010F068
:101926000DC011F00EC012F00FC013F0101E111EE4
:10193600121E131E102A000E11221222132210C08C
:1019460016F011C017F012C018F013C019F0B4EF5A
:101956000CF00CC016F00DC017F00EC018F00FC03A
:1019660019F00C500D100E100F10D8A4BDEF0CF08E
:10197600BFEF0CF0C9EF0CF0000E0C6E000E0D6EF2
:10198600000E0E6E000E0F6E5AEF0DF0960E156ECF
:10199600D3EF0CF0152AD8901932183217321632B6
:1019A600000E1614106E000E1714116E000E181489
:1019B600126EFE0E1914136E105011101210131021
:1019C600D8A4E8EF0CF0EAEF0CF0CDEF0CF0F8EF4E
:1019D6000CF0152A010E1626000E172218221922BF
:1019E600D8901932183217321632000E1614106EAD
:1019F600000E1714116E000E1814126EFF0E191435
:101A0600136E1050111012101310D8A40DEF0DF014
:101A16000FEF0DF0ECEF0CF017EF0DF01506D89068
:101A2600163617361836193618BE1CEF0DF01EEF8F
:101A36000DF026EF0DF0020E156024EF0DF026EFE7
:101A46000DF011EF0DF015B02BEF0DF02DEF0DF0A1
:101A56002EEF0DF0189ED890153215C010F0116AB1
:101A6600126A136A10C013F0126A116A106A1050D3
:101A76001612115017121250181213501912145030
:101A8600D8B448EF0DF04AEF0DF052EF0DF00FBE4F
:101A960051EF0DF04FEF0DF052EF0DF0198E16C00D
:101AA6000CF017C00DF018C00EF019C00FF01200A0
:101AB6000CC016F00DC017F010501110D8A466EF28
:101AC6000DF068EF0DF06AEF0DF015EF0EF016C091
:101AD600D9FF17C0DAFF0EC0DFFF10501624126EB2
:101AE60011501720136EFF0E1224D96EFF0E13200D
:101AF600DA6E0EC0DFFF115007E1030E105CD8B09E
:101B060087EF0DF089EF0DF08BEF0DF015EF0EF06E
:101B160020EE01F01650D9261750DA220EC0DFFF4C
:101B260020EE02F01650D9261750DA220EC0DFFF3B
:101B360010501624126E11501720136EFE0E12242A
:101B4600D96EFF0E1320DA6E0EC0DFFF105016247A
:101B5600126E11501720136EFD0E1224D96EFF0E51
:101B66001320DA6E0EC0DFFF115007E1070E105C7E
:101B7600D8B0C0EF0DF0C2EF0DF0C4EF0DF015EFC9
:101B86000EF020EE03F01650D9261750DA220EC0BA
:101B9600DFFF10501624126E11501720136EFC0E24
:101BA6001224D96EFF0E1320DA6E0EC0DFFF11501D
:101BB60007E1090E105CD8B0E3EF0DF0E5EF0DF08C
:101BC600E7EF0DF015EF0EF016C012F017C013F088
:101BD600121E131E124A132A030E1214146E156ACD
:101BE60014501626155017221450105E1550115A0F
:101BF600FC0E1016FF0E11160CEF0EF016C0D9FFD4
:101C060017C0DAFF0EC0DFFF1006D8A01106164A6D
:101C1600172A10501110D8A413EF0EF015EF0EF07E
:101C260001EF0EF0120033C0D9FF34C0DAFFDECF69
:101C3600F6FFDDCFF7FFF86A0800F550250AD8A4AD
:101C460027EF0EF029EF0EF0A0EF0EF033C0D9FF0C
:101C560034C0DAFFDE2A000EDD22000E0001966F88
:101C6600000E956F95C061F09769986933C0D9FFEA
:101C760034C0DAFFDECF3DF0DDCF3EF03DC0F6FFEB
:101C86003EC0F7FFF86A0800F550750AD8A44EEF73
:101C96000EF050EF0EF097EF0EF035C0D9FF36C0BC
:101CA600DAFFDFCF37F0020EDE26DFCF38F0000E88
:101CB600DD2237C0D9FF38C0DAFFDECF39F0DDCFFD
:101CC6003AF0010E3D24376E000E3E20386E33C0CA
:101CD600D9FF34C0DAFF37C0DEFF38C0DDFF80EF42
:101CE6000EF031C027F032C028F039C029F03AC0D2
:101CF6002AF06FEC11F0B5EF0EF03DC0F6FF3EC0D6
:101D0600F7FFF86A0800F550376E386A3850000A4F
:101D1600D8B490EF0EF097EF0EF03750750AD8B49E
:101D260074EF0EF097EF0EF033C0D9FF34C0DAFF30
:101D3600DE2A000EDD22B5EF0EF033C0D9FF34C027
:101D4600DAFFDECFF6FFDDCFF7FFF86A0800F550C1
:101D56000C6E0D6A31C00EF032C00FF0E8EC11F0D7
:101D660097EF0EF012000E6E14EF0FF09280C15036
:101D7600F00B0E09C16E55EF0FF09282C150F00BB9
:101D86000D09C16E55EF0FF09284C150F00B0C098E
:101D9600C16E55EF0FF09286C150F00B0B09C16E64
:101DA60055EF0FF0928AC150F00B0A09C16E55EF3C
:101DB6000FF09680C150F00B0909C16E55EF0FF078
:101DC6009682C150F00B0809C16E55EF0FF096844C
:101DD600C150F00B0709C16E55EF0FF09384C15047
:101DE600F00B0609C16E55EF0FF09386C150F00B4C
:101DF6000509C16E55EF0FF09382C150F00B04092F
:101E0600C16E55EF0FF09388C150F00B0309C16EF8
:101E160055EF0FF09380C150F00B0209C16E55EFDC
:101E26000FF00E500C6E0D6A0D50000AD8B41EEF5E
:101E36000FF055EF0FF00C50000AD8B4B9EF0EF0C2
:101E4600010AD8B4C0EF0EF0030AD8B4C7EF0EF0FB
:101E5600010AD8B4CEEF0EF0070AD8B4D5EF0EF0CB
:101E6600010AD8B4DCEF0EF0030AD8B4E3EF0EF0A3
:101E7600010AD8B4EAEF0EF00F0AD8B4F1EF0EF06B
:101E8600010AD8B4F8EF0EF0030AD8B4FFEF0EF04B
:101E9600010AD8B406EF0FF0070AD8B40DEF0FF019
:101EA60055EF0FF012000C500D10D8B45DEF0FF087
:101EB6005FEF0FF0E1EF0FF0C0EF0FF00CC0D9FFAE
:101EC6000DC0DAFFDF30E832070B0E6E010E0F6E23
:101ED6000E2A70EF0FF0D8900F360E2E6EEF0FF021
:101EE6000F50FF0A106E0CC0D9FF0DC0DAFFDF38A5
:101EF600E832070B116E1150020DCD0EF324D96E88
:101F0600000EF420DA6EDECF12F0DDCF13F012C031
:101F1600D9FF13C0DAFF1050DF16E1EF0FF00CC047
:101F2600D9FF0DC0DAFFDF30E832070B0E6E010E67
:101F36000F6E0E2AA1EF0FF0D8900F360E2E9FEFE0
:101F46000FF00CC0D9FF0DC0DAFFDF38E832070BFF
:101F5600106E1050020DCD0EF324D96E000EF42033
:101F6600DA6EDECF11F0DDCF12F011C0D9FF12C04C
:101F7600DAFF0F50DF1290EF0FF00CC0D9FF0DC043
:101F8600DAFFDFB0C9EF0FF0CCEF0FF0010ECDEFA7
:101F96000FF0000E0E6E0F6A0F50000AD8B4D6EF7F
:101FA6000FF0E1EF0FF00E50000AD8B461EF0FF01A
:101FB600010AD8B492EF0FF0E1EF0FF012002050B3
:101FC6002110D8B4E9EF0FF0EBEF0FF06BEF10F044
:101FD600010E2024156E000E2120166E8FEC16F0D1
:101FE60020C015F021C016F08FEC16F0000E246EFE
:101FF60024502024226E000E2120236E020E22245D
:10200600156E000E2320166E8FEC16F0242A030E92
:10201600246410EF10F012EF10F0FBEF0FF0340E07
:10202600226EF20EE82EFED7222EFCD720C01DF01F
:1020360021C01EF0380E1F6E78EC15F00D0E226EC4
:10204600FC0EE82EFED7222EFCD720C01DF021C0A4
:102056001EF0380E1F6E78EC15F0640EE82EFED7D3
:1020660020C01DF021C01EF0380E1F6E78EC15F052
:1020760020C01DF021C01EF0010E1F6E78EC15F079
:1020860020C01DF021C01EF0020E1F6E78EC15F068
:1020960020C01DF021C01EF0060E1F6E78EC15F054
:1020A60020C01DF021C01EF00F0E1F6E78EC15F03B
:1020B60020C01DF021C01EF0280E1F6E78EC15F012
:1020C60020C01DF021C01EF0800E1F6E78EC15F0AA
:1020D6001200353436343C6E3C50D8A475EF10F0FF
:1020E60077EF10F081EF10F0000E336E000E346EB5
:1020F600000E356E000E366EEEEF10F033C037F080
:1021060034C038F035C039F036C03AF0200E91EFC1
:1021160010F0D8903A32393238323732E82E8CEF16
:1021260010F037503B6E358EFF0E3316FF0E341609
:10213600FF0E3516000E3616960E3C5E3CBEA8EF18
:1021460010F0A6EF10F0BEEF10F03C50800A970F8B
:10215600D8B0B0EF10F0B2EF10F0B4EF10F077EFA8
:1021660010F0D89036323532343233323C3EB4EF4A
:1021760010F0D6EF10F01F0E3C64C4EF10F0C6EF5F
:1021860010F0CEEF10F077EF10F0D89033363436EB
:10219600353636363C063C50D8A4D4EF10F0D6EF90
:1021A60010F0C8EF10F03B50D8B4DCEF10F0DEEFC3
:1021B60010F0E6EF10F0361E351E341E336C000E9E
:1021C60034223522362233C033F034C034F035C0E1
:1021D60035F036C036F012000C500D10D8B4F6EFBC
:1021E60010F0F8EF10F06EEF11F059EF11F00CC08F
:1021F600D9FF0DC0DAFFDF30E832070B0F6E010E94
:10220600106E0F2A09EF11F0D89010360F2E07EF37
:1022160011F00CC0D9FF0DC0DAFFDF38E832070B2A
:10222600116E1150020DD70EF324D96E000EF42054
:10223600DA6EDECF12F0DDCF13F012C0D9FF13C075
:10224600DAFF1050DF126EEF11F00CC0D9FF0DC08F
:10225600DAFFDF30E832070B0F6E010E106E0F2A21
:1022660037EF11F0D89010360F2E35EF11F01050D1
:10227600FF0A116E0CC0D9FF0DC0DAFFDF38E83255
:10228600070B126E1250020DD70EF324D96E000EF4
:10229600F420DA6EDECF13F0DDCF14F013C0D9FFD1
:1022A60014C0DAFF1150DF166EEF11F00E500F6EEC
:1022B600106A1050000AD8B463EF11F06EEF11F0F7
:1022C6000F50000AD8B428EF11F0010AD8B4FAEF7B
:1022D60010F06EEF11F01200000198BF77EF11F0C9
:1022E60075EF11F07DEF11F0000E2E6E010E2D6EC2
:1022F60081EF11F097C02DF098C02EF095C02BF00D
:1023060096C02CF0000E306E1F0E2F6E000E0101CF
:102316001F6FB8EF11F02F06D8A03006000E2F243D
:10232600D96E010E3020DA6E29C00CF02AC00DF0ED
:10233600000E0F6E0A0E0E6EE5EC14F00C50300F08
:10234600DF6E2D06D8A02E062B06D8A02C0629C097
:102356000CF02AC00DF0000E0F6E0A0E0E6E3DEC4C
:1023660014F00CC029F00DC02AF02F503010D8B44C
:10237600BFEF11F0C1EF11F0D7EF11F029502A107D
:10238600D8A4C8EF11F0CAEF11F08EEF11F02EBEEF
:10239600D7EF11F02E5006E12D04D8B0D5EF11F08D
:1023A600D7EF11F08EEF11F027C01CF028C01DF0FA
:1023B600000E2F241E6E010E30201F6E2BC020F043
:1023C6002CC021F000EC14F012000E500F10D8B4FF
:1023D600EFEF11F0F1EF11F0FAEF11F00E500F10D0
:1023E600D8A4F8EF11F0FAEF11F0FFEF11F00C504E
:1023F60057EC17F04CEF12F020EE0AF00E50D926EB
:102406000F50DA22DE50DE10D8B40CEF12F00EEFC9
:1024160012F029EF12F020EE0AF00E50D9260F50D6
:10242600DA2210EE03F00E50E1260F50E222DE50C3
:10243600E65CE650800A146EDE50800A1458D8B066
:1024460027EF12F029EF12F04CEF12F020EE03F016
:102456000E50D9260F50DA22DECF10F0DDCF11F064
:102466000EC0D9FF0FC0DAFFDECF12F0DDCF13F0BA
:1024760010501224D96E11501320DA6E0CC0DFFFF3
:1024860020EE03F00E50D9260F50DA22DE2A000E77
:10249600DD22120021EE20F0050EDE6AE806FDE2DE
:1024A600000E0101266FFAC00CF0FBC00DF0000E05
:1024B6000F6E200E0E6E000E116E050E106E5BEC8A
:1024C6000DF0000120EE05F0FA51D926FB51DA2273
:1024D600DF6AFA51FB11D8B473EF12F075EF12F000
:1024E60098EF12F0200E476E010E486E110E496EDF
:1024F600100E4A6EF8C04BF0F9C04CF025EC16F001
:1025060098EF12F0200E2625D96EDA6A010EDA222D
:1025160026510001FA25E16E0101000E0001FB21A2
:10252600E26EDFCFE7FF0101262B200E01012625F3
:10253600D96EDA6A010EDA22DF50D8A4A5EF12F0BE
:10254600A7EF12F085EF12F0120001500210D8B476
:10255600AFEF12F0B1EF12F002EF13F003500410D8
:10256600D8B4B8EF12F0BAEF12F002EF13F020EE83
:1025760006F00150D9260250DA22DFA0C5EF12F08C
:10258600C7EF12F0DBEF12F0C350C4CF05F0066AB6
:1025960005C006F0056A0526000E062203C0D9FF0F
:1025A60004C0DAFF05C0DEFF06C0DDFF02EF13F050
:1025B60020EE06F00150D9260250DA22DFB0E6EF0F
:1025C60012F0E8EF12F0C7EF12F0C350C4CF05F0D7
:1025D600066A05C006F0056A0526000E0622060EE6
:1025E600076E063406320532072EF4EF12F003C0EA
:1025F600D9FF04C0DAFF05C0DEFF06C0DDFF12000A
:102606000F501010D8B40AEF13F00CEF13F05CEF74
:1026160013F0C29020EE03F00F50D9261050DA22A4
:10262600DF50116E114611461146C0501118C70BE6
:102636001118C06E20EE04F00F50D9261050DA2281
:10264600DF50116EC0501118F80B1118C06E20EE35
:1026560005F00F50D9261050DA22DF50116E1146C0
:102666001146C2501118C30B1118C26E20EE05F0A8
:102676000F50D9261050DA22DF50B6EC0EF00FC0FC
:102686000CF010C00DF0AEEC14F00FC00CF010C042
:102696000DF0A7EC15F00FC0D9FF10C0DAFFDECFA2
:1026A6005FF0DDCF60F09D9C9E9CF28EF28C9D8C3F
:1026B600C2801200000E2E6E26502710D8B466EF88
:1026C60013F068EF13F0B2EF13F026C020F027C026
:1026D60021F028C022F029C023F0B3EC13F093EFC9
:1026E60013F026C01DF027C01EF02E502A242C6E93
:1026F600000E2B202D6E2CC0F6FF2DC0F7FF000E0E
:10270600F86E0F0EF76403D00800F55005D0F6CF2B
:10271600E9FFF7CFEAFFEF501F6E49EC15F02E2ABE
:102726002E502A242C6E000E2B202D6E2CC0F6FF68
:102736002DC0F7FF000EF86E0F0EF76403D00800E9
:10274600F55005D0F6CFE9FFF7CFEAFFEF500009C5
:10275600D8A4B0EF13F0B2EF13F074EF13F0120039
:102766002306E2EF13F020C01DF021C01EF0235017
:10277600800F1F6E78EC15F0FFEF13F020C01DF0F0
:1027860021C01EF02350C00F1F6E78EC15F0FFEF2E
:1027960013F020C01DF021C01EF02350940F1F6EB1
:1027A60078EC15F0FFEF13F020C01DF021C01EF0ED
:1027B6002350D40F1F6E78EC15F0FFEF13F0225064
:1027C600246E256A2550000AD8B4ECEF13F0FFEF0B
:1027D60013F02450010AD8B4B6EF13F0030AD8B4A4
:1027E600C1EF13F0010AD8B4CCEF13F0070AD8B43E
:1027F600D7EF13F0FFEF13F0120021BE05EF14F030
:1028060007EF14F00DEF14F020C025F021C026F0DC
:1028160011EF14F0000E266E000E256E000E246ECB
:10282600000E236E23EF14F0000E0D6E200E0C6EBC
:102836001CC00EF01DC00FF0E8EC11F0234A242A4C
:102846002550235C2450800A226E2650800A225886
:10285600D8A030EF14F032EF14F017EF14F01EC0CA
:1028660015F01FC016F01CC017F01DC018F04BEC79
:1028760016F01200000E126E000E116E0E500F10A2
:10288600D8B448EF14F04AEF14F072EF14F0010ECA
:10289600106E52EF14F0D8900E360F36102A0FAE87
:1028A60057EF14F059EF14F04EEF14F0D89011369C
:1028B60012360E500C5C0F500D58D8A065EF14F070
:1028C60067EF14F06CEF14F00E500C5E0F500D5ABB
:1028D6001180D8900F320E32102E59EF14F011C01D
:1028E6000CF012C00DF012005A0EF66E2D0EF76E99
:1028F600000EF86E00EEBDF010EE3BF00900F5CFCD
:10290600EEFFE550E150FAE19E0EF66E2E0EF76EE2
:10291600000EF86E00EE6FF010EE04F00900F5CF31
:10292600EEFFE550E150FAE101EE00F0200EEE6A0E
:10293600E806FDE100EE80F03D0EEE6AE806FDE1F8
:1029460000EE5DF0120EEE6AE806FDE173907392FA
:10295600000183EF0BF00C500D10D8B4B5EF14F056
:10296600B7EF14F0E4EF14F00C500D10D8B4BEEF2E
:1029760014F0C0EF14F0E4EF14F020EE06F00C5063
:10298600D9260D50DA22DFA2CBEF14F0CDEF14F0EA
:10299600D1EF14F0C18AC188E4EF14F020EE06F0FE
:1029A6000C50D9260D50DA22DFB2DCEF14F0DEEF40
:1029B60014F0E2EF14F0C19AC198E4EF14F0C19A52
:1029C600C19812000E500F10D8B4ECEF14F0EEEFD1
:1029D60014F012EF15F0010E106EF6EF14F0D89009
:1029E6000E360F36102A0FAEFBEF14F0FDEF14F083
:1029F600F2EF14F00E500C5C0F500D58D8A006EFF5
:102A060015F008EF15F00CEF15F00E500C5E0F5098
:102A16000D5AD8900F320E32102EFDEF14F00CC066
:102A26000CF00DC00DF0120015501610D8B41EEFA4
:102A360015F020EF15F048EF15F0000E1C6E1C5037
:102A46001524186E000E1620196E020E18240C6E30
:102A5600000E19200D6E1CC01AF017C01BF01A2AA2
:102A660037EF15F0D8901B321A2E35EF15F01B50A4
:102A7600010B0E6EEFEC10F01C2A030E1C6446EFE1
:102A860015F048EF15F022EF15F012001D501E103C
:102A9600D8B450EF15F052EF15F077EF15F01DC0D2
:102AA6000CF01EC00DF0010E0E6EEFEC10F01DC006
:102AB60015F01EC016F01F380F0B176E17EC15F029
:102AC6001DC015F01EC016F06DEC16F01DC015F0F9
:102AD6001EC016F01FC017F017EC15F01DC015F03C
:102AE6001EC016F06DEC16F012001D501E10D8B464
:102AF6007FEF15F081EF15F0A6EF15F01DC00CF075
:102B06001EC00DF0000E0E6EEFEC10F01DC015F09D
:102B16001EC016F01F380F0B176E17EC15F01DC0F0
:102B260015F01EC016F06DEC16F01DC015F01EC097
:102B360016F01FC017F017EC15F01DC015F01EC0DB
:102B460016F06DEC16F012000C500D10D8B4AEEF66
:102B560015F0B0EF15F0D1EF15F020EE06F00C50A1
:102B6600D9260D50DA22DFA0BBEF15F0BDEF15F028
:102B7600C0EF15F0C08ED1EF15F020EE06F00C5028
:102B8600D9260D50DA22DFB0CBEF15F0CDEF15F0D8
:102B9600D0EF15F0C09ED1EF15F0C08E1200625036
:102BA600D8A4D8EF15F0DAEF15F0E8EF15F0EB0E34
:102BB600016E000E026E6D0E036E000E046EA8EC22
:102BC60012F0010E626EFCEF15F06204D8A4EEEF6F
:102BD60015F0F0EF15F0FCEF15F0EB0E016E000EA0
:102BE600026E6B0E036E000E046EA8EC12F0000E61
:102BF600626E120041C045F042C046F011EF16F079
:102C06003FC031F040C032F0450E336E000E346ED8
:102C160043C035F044C036F016EC0EF045C0F6FF62
:102C260046C0F7FFF86A0800F5500009D8A41EEF61
:102C360016F020EF16F003EF16F0000E406E000EB1
:102C46003F6E12004B0E4F6E000E506E47C051F095
:102C560048C052F0000E556E000E546E000E5C6EAB
:102C6600000E5B6E510E3F6E000E406E49C041F085
:102C76004AC042F04F0E436E000E446EFDEC15F056
:102C860054504724D96E55504820DA6EDF6A120038
:102C9600000E1B6E000E1A6E5CEF16F019C00CF0DB
:102CA6000D6A17C00EF018C00FF0E8EC11F01A4AC2
:102CB6001B2A1A501524D96E1B501620DA6EDF50C7
:102CC600196E1950D8A46AEF16F06CEF16F051EF92
:102CD60016F0120015501610D8B474EF16F076EFF1
:102CE60016F08EEF16F0010E15240C6E000E16204F
:102CF6000D6E010E0E6EEFEC10F0030EE82EFED7F1
:102D060000F0010E15240C6E000E16200D6E000E3E
:102D16000E6EEFEC10F0120015501610D8B496EFA8
:102D260016F098EF16F0ACEF16F015C00CF016C0C2
:102D36000DF056EC0FF015C00CF016C00DF015C0D6
:102D4600D9FF16C0DAFF000EDFB2010E0E6EEFECF1
:102D560010F012003738392F3435362A3132332DF8
:102D660023303D2B920F930F940F950F960F890FDB
:102D76008A0F8B0F8C0F8D0F800F810F820F830FA1
:0F2D8600840FA42B01050500014044484C505414
:102D960013501410D8B4D2EF16F0D4EF16F0E2EFB9
:102DA60016F013C00FF014C010F015C011F0FAECB5
:102DB60016F013C00CF014C00DF044EC17F012001E
:102DC6009E9C5F506010D8B4EBEF16F0EDEF16F056
:102DD600F9EF16F002D8F9EF16F00500FA6E5F501B
:102DE600FD6E6050FE6EFF6AFA50120012000F5020
:102DF6001010D8B401EF17F003EF17F00FEF17F02C
:102E060011C012F012461246C2501218C30B121805
:102E1600C26E1150B6EC0EF01200016EF290010473
:102E2600D8A418EF17F01AEF17F01CEF17F01CEFE5
:102E360017F01200016EF2900104D8A425EF17F0E6
:102E460027EF17F029EF17F029EF17F01200016EA0
:102E5600F2900104D8A432EF17F034EF17F036EFF2
:102E660017F036EF17F01200016EF2900104D8A4A5
:102E76003FEF17F041EF17F043EF17F043EF17F06E
:102E860012000C500D10D8B44BEF17F04DEF17F0A1
:102E96004EEF17F0C282120001010101F0921200FA
:0A2EA600F0901200F29212001200E8
:020000040020DA
:08000000FFFFFFFFFFFFFFFF00
:020000040030CA
:0E000000FF02091EFF8181FF0FC00FE00F40BD
:00000001FF
