:0400000007EF00F016
:0A0008007B8278ED0CF019EF13F085
:05100000002575000051
:101006004750800B506E47504724526E46AE0EEF47
:1010160008F010EF08F011EF08F052805250D8B4E3
:1010260017EF08F019EF08F02EEF08F05228D8A4B1
:101036001FEF08F021EF08F029EF08F0000E446ECC
:10104600000E456E000E466E000E476E468E000E72
:10105600476E36EF08F0000E446E000E456E000E29
:10106600466E000E476E4B50800B516E5050511815
:10107600D8B440EF08F042EF08F043EF08F0508C88
:101086004B504B24516E4AAE4BEF08F04DEF08F033
:101096004EEF08F051805150D8B454EF08F056EF97
:1010A60008F06BEF08F05128D8A45CEF08F05EEF6B
:1010B60008F066EF08F0000E486E000E496E000E4E
:1010C6004A6E000E4B6E4A8E000E4B6E73EF08F0A2
:1010D600000E486E000E496E000E4A6E000E4B6EF4
:1010E6005250515CD8B07AEF08F07CEF08F0A3EFCD
:1010F60008F050AC81EF08F083EF08F085EF08F0B8
:10110600800E501A52C053F051C052F053C051F0E5
:1011160044C053F048C044F053C048F045C053F0B3
:1011260049C045F053C049F046C053F04AC046F0A6
:1011360053C04AF047C053F04BC047F053C04BF082
:10114600000E536E525051C04CF04D6A4C5E000E6C
:101156004D5A4DBEB8EF08F04D5009E11A0E4C5CE1
:10116600D8A0B8EF08F0BAEF08F0F1EF08F0445055
:10117600451046104710D8A4C3EF08F0C6EF08F094
:10118600010EC7EF08F0000E536E000E446E000EFF
:10119600456E000E466E000E476E51C052F0FAEFD5
:1011A60008F053A0D9EF08F0DBEF08F0E1EF08F004
:1011B600D89053300109536EE3EF08F0D8905332BC
:1011C60044A0E8EF08F0EAEF08F0EBEF08F0538EE2
:1011D60047344732463245324432522A5150525CE5
:1011E600D8A0F8EF08F0FAEF08F0D4EF08F050BCFA
:1011F600FFEF08F001EF09F041EF09F05250D8A4D3
:1012060007EF09F009EF09F013EF09F0000E446E3D
:10121600000E456E000E466E000E476E62EF0AF037
:1012260048504426495045224A5046224B504722B0
:1012360047A020EF09F022EF09F0CEEF09F053A006
:1012460027EF09F029EF09F02FEF09F0D890533076
:101256000109536E31EF09F0D890533244A036EFAE
:1012660009F038EF09F039EF09F0538E4734473269
:10127600463245324432522ACEEF09F04850445C99
:10128600495045584A5046584750800A4C6E4B5074
:10129600800A4C58D8B052EF09F054EF09F07FEFAE
:1012A60009F04450485C4C6E455049584D6E4650C6
:1012B6004A584E6E47504B584F6EFF0E4C24446EA4
:1012C600FF0E4D20456EFF0E4E20466EFF0E4F2040
:1012D600476E800E501A536C5350D8A475EF09F020
:1012E60077EF09F087EF09F0010E4426000E45223C
:1012F6004622472287EF09F04850445E4950455A36
:101306004A50465A4B50475A4450451046104710CB
:10131600D8A490EF09F092EF09F0C7EF09F0535007
:10132600D8A498EF09F09AEF09F0C7EF09F0000E7C
:10133600446E000E456E000E466E000E476E62EF5E
:101346000AF0D890443645364636473653AEAEEFA9
:1013560009F0B0EF09F0B1EF09F0448053A0B6EF01
:1013660009F0B8EF09F0BCEF09F0D8805336BEEFAC
:1013760009F0D89053365250D8B4C4EF09F0C6EFEE
:1013860009F0C7EF09F0520646AECCEF09F0CEEFF2
:1013960009F0A4EF09F0000E516E53AED5EF09F037
:1013A600D7EF09F0EFEF09F053C04CF07F0E4C1663
:1013B600D8B4E0EF09F0E2EF09F0E6EF09F0010E2C
:1013C600516EEFEF09F044A0EBEF09F0EDEF09F0F5
:1013D600EFEF09F0E2EF09F05150D8B4F5EF09F05C
:1013E600F7EF09F022EF0AF0010E4426000E45221F
:1013F6004622472247A002EF0AF004EF0AF022EF46
:101406000AF044C04CF045C04DF046C04EF047C00F
:101416004FF04F344F324E324D324C324CC044F0C6
:101426004DC045F04EC046F04FC047F05228D8B4E4
:101436001FEF0AF021EF0AF022EF0AF0522A522893
:10144600D8B428EF0AF02AEF0AF032EF0AF0525029
:10145600D8A430EF0AF032EF0AF044EF0AF0000E9B
:10146600446E000E456E000E466E000E476E5250DC
:10147600D8A440EF0AF042EF0AF044EF0AF0000E5B
:10148600506E52A049EF0AF04BEF0AF04EEF0AF009
:10149600468E4FEF0AF0469ED8905230476E50AEB9
:1014A60057EF0AF059EF0AF05AEF0AF0478E44C098
:1014B60044F045C045F046C046F047C047F012002C
:1014C6001550800B1E6E15501524246E14AE6EEF4B
:1014D6000AF070EF0AF071EF0AF024802450D8B4B5
:1014E60077EF0AF079EF0AF08CEF0AF02428D8A4F7
:1014F6007FEF0AF081EF0AF089EF0AF0000E126E14
:10150600000E136E000E146E000E156E148E94EF00
:101516000AF0000E126E000E136E000E146E000E10
:10152600156E1950800B1E1A19501924236E18AE09
:101536009FEF0AF0A1EF0AF0A2EF0AF023802350F2
:10154600D8B4A8EF0AF0AAEF0AF0BDEF0AF02328F4
:10155600D8A4B0EF0AF0B2EF0AF0BAEF0AF0000E24
:10156600166E000E176E000E186E000E196E188E8F
:10157600C5EF0AF0000E166E000E176E000E186EFE
:10158600000E196E2350D8B4CBEF0AF0CDEF0AF057
:10159600D5EF0AF02450D8A4D3EF0AF0D5EF0AF01D
:1015A600DFEF0AF0000E126E000E136E000E146EC0
:1015B600000E156E77EF0CF018501202F3CF29F0DB
:1015C600F4CF2AF029501F6E206A216A226A2A5017
:1015D600256E266A276A286A17501302F3CF29F068
:1015E600F4CF2AF029501F26000E20222122222283
:1015F6002A502526000E26222722282216501402BB
:10160600F3CF29F0F4CF2AF029501F26000E20220E
:10161600212222222A502526000E2622272228228F
:1016260021C022F020C021F01FC020F01F6A1650F2
:101636001302F3CF29F0F4CF2AF029501F262A509F
:101646002022000E2122000E222217501202F3CF72
:1016560029F0F4CF2AF029501F262A502022000E06
:101666002122000E222221C022F020C021F01FC01C
:1016760020F01F6A16501202F3CF29F0F4CF2AF099
:1016860029501F262A502022000E2122000E222237
:1016960018501302F3CF29F0F4CF2AF0295025264B
:1016A6002A502622000E2722000E28221750140246
:1016B600F3CF29F0F4CF2AF0295025262A502622E6
:1016C600000E2722000E282218501402F3CF29F00C
:1016D600F4CF2AF029501A6E2A501B6E1C6A1D6A16
:1016E6001CC01DF01BC01CF01AC01BF01A6A1A5051
:1016F60025261B5026221C5027221D5028221FC09B
:101706001AF020C01BF021C01CF022C01DF0190EDB
:1017160092EF0BF0D8901D321C321B321A32E82E93
:101726008DEF0BF01A5025261B5026221C5027221F
:101736001D50282221C022F020C021F01FC020F019
:101746001F6A235024C01AF01B6A1A26000E1B2299
:10175600820E1A24296EFF0E1B202A6EC8EF0BF08C
:10176600D890253626362736283622AEBDEF0BF022
:10177600BFEF0BF0C0EF0BF02580D8901F36203658
:10178600213622362906D8A02A0627AECDEF0BF041
:10179600CFEF0BF0B3EF0BF0000E236E22AED6EFB9
:1017A6000BF0D8EF0BF0FCEF0BF0FF0E1F141A6EC8
:1017B600FF0E20141B6EFF0E21141C6E7F0E2214CA
:1017C6001D6E1A501B101C101D10D8B4EDEF0BF037
:1017D600EFEF0BF0F3EF0BF0010E236EFCEF0BF0C7
:1017E60025A0F8EF0BF0FAEF0BF0FCEF0BF0EFEFA4
:1017F6000BF02350D8B402EF0CF004EF0CF028EFF6
:101806000CF0010E2526000E26222722282228A0CB
:101816000FEF0CF011EF0CF028EF0CF025C01AF0CA
:1018260026C01BF027C01CF028C01DF01D341D3239
:101836001C321B321A321AC025F01BC026F01CC0FF
:1018460027F01DC028F0294A2A2A2ABE33EF0CF0B9
:101856002A5008E12928D8A033EF0CF035EF0CF018
:101866003FEF0CF0000E256E000E266E800E276EE2
:101876007F0E286E6DEF0CF02ABE4CEF0CF02A504E
:1018860006E12904D8B04AEF0CF04CEF0CF058EF03
:101896000CF0000E256E000E266E000E276E000E52
:1018A600286E000E1E6E6DEF0CF029C024F0FF0EA0
:1018B6002516FF0E26167F0E2716000E281624A0C4
:1018C60067EF0CF069EF0CF06AEF0CF0278ED890FA
:1018D6002430286E1E50281225C012F026C013F0A0
:1018E60027C014F028C015F012000600FACF02F047
:1018F600FBCF03F0F2A882EF0CF084EF0CF08DEF33
:101906000CF0F2A289EF0CF08BEF0CF08DEF0CF0DF
:10191600EEEC13F0F0A692EF0CF094EF0CF09DEFC6
:101926000CF0F0A099EF0CF09BEF0CF09DEF0CF093
:10193600ECEC13F0F0A8A2EF0CF0A4EF0CF0ADEF76
:101946000CF0F0A2A9EF0CF0ABEF0CF0ADEF0CF041
:10195600EAEC13F0F2A6B2EF0CF0B4EF0CF0CFEF16
:101966000CF0F2A0B9EF0CF0BBEF0CF0CFEF0CF0DF
:1019760081A8C0EF0CF0C2EF0CF0CFEF0CF07A04A8
:10198600D8A4C8EF0CF0CAEF0CF0CFEF0CF0000EA5
:101996007A6E010EAEEC13F0F2A6D4EF0CF0D6EF91
:1019A6000CF0F1EF0CF0F2A0DBEF0CF0DDEF0CF039
:1019B600F1EF0CF081B8E2EF0CF0E4EF0CF0F1EF90
:1019C6000CF07A50D8A4EAEF0CF0ECEF0CF0F1EF43
:1019D6000CF0010E7A6E000EAEEC13F0F2A6F6EFE6
:1019E6000CF0F8EF0CF013EF0DF0F2A0FDEF0CF099
:1019F600FFEF0CF013EF0DF081AA04EF0DF006EFE8
:101A06000DF013EF0DF07904D8A40CEF0DF00EEFE6
:101A16000DF013EF0DF0000E796E010EA1EC13F030
:101A2600F2A618EF0DF01AEF0DF035EF0DF0F2A05B
:101A36001FEF0DF021EF0DF035EF0DF081BA26EF17
:101A46000DF028EF0DF035EF0DF07950D8A42EEFFC
:101A56000DF030EF0DF035EF0DF0010E796E000E42
:101A6600A1EC13F0F2A63AEF0DF03CEF0DF057EFB4
:101A76000DF0F2A041EF0DF043EF0DF057EF0DF032
:101A860081AC48EF0DF04AEF0DF057EF0DF07804FA
:101A9600D8A450EF0DF052EF0DF057EF0DF0000EF9
:101AA600786E010E94EC13F0F2A65CEF0DF05EEF8B
:101AB6000DF079EF0DF0F2A063EF0DF065EF0DF08C
:101AC60079EF0DF081BC6AEF0DF06CEF0DF079EF58
:101AD6000DF07850D8A472EF0DF074EF0DF079EF99
:101AE6000DF0010E786E000E94EC13F0F2A67EEF68
:101AF6000DF080EF0DF09BEF0DF0F2A085EF0DF0ED
:101B060087EF0DF09BEF0DF081AE8CEF0DF08EEFB1
:101B16000DF09BEF0DF07704D8A494EF0DF096EF3F
:101B26000DF09BEF0DF0000E776E010E87EC13F0B3
:101B3600F2A6A0EF0DF0A2EF0DF0BDEF0DF0F2A0B2
:101B4600A7EF0DF0A9EF0DF0BDEF0DF081BEAEEFE2
:101B56000DF0B0EF0DF0BDEF0DF07750D8A4B6EF55
:101B66000DF0B8EF0DF0BDEF0DF0010E776E000E23
:101B760087EC13F09DACC2EF0DF0C4EF0DF0CDEF86
:101B86000DF09EACC9EF0DF0CBEF0DF0CDEF0DF0E3
:101B9600F6EC13F0F2AAD2EF0DF0D4EF0DF0DDEF74
:101BA6000DF0F2A4D9EF0DF0DBEF0DF0DDEF0DF047
:101BB600DAEC13F09DA0E2EF0DF0E4EF0DF0EDEF9F
:101BC6000DF09EA0E9EF0DF0EBEF0DF0EDEF0DF04F
:101BD600D4EC13F09DA2F2EF0DF0F4EF0DF0FDEF53
:101BE6000DF09EA2F9EF0DF0FBEF0DF0FDEF0DF0FD
:101BF600E0EC13F0A0A202EF0EF004EF0EF00DEFF2
:101C06000EF0A1A209EF0EF00BEF0EF00DEF0EF0A5
:101C1600CEEC13F09DA412EF0EF014EF0EF01DEFB4
:101C26000EF09EA419EF0EF01BEF0EF01DEF0EF056
:101C3600F4EC13F0A0A022EF0EF024EF0EF02DEF3F
:101C46000EF0A1A029EF0EF02BEF0EF02DEF0EF007
:101C5600F2EC13F09DA832EF0EF034EF0EF03DEFEC
:101C66000EF09EA839EF0EF03BEF0EF03DEF0EF0B2
:101C7600F0EC13F09DAA42EF0EF044EF0EF04DEF9C
:101C86000EF09EAA49EF0EF04BEF0EF04DEF0EF060
:101C9600F8EC13F09DA652EF0EF054EF0EF05DEF48
:101CA6000EF09EA659EF0EF05BEF0EF05DEF0EF014
:101CB6005AEC13F0A0A662EF0EF064EF0EF06DEF93
:101CC6000EF0A1A669EF0EF06BEF0EF06DEF0EF0C1
:101CD600E8EC13F003C0FBFF02C0FAFF7B92110091
:101CE6002E50800B3B6E2E502E24426E2DAE7EEF74
:101CF6000EF080EF0EF081EF0EF042804250D8B425
:101D060087EF0EF089EF0EF09EEF0EF04228D8A472
:101D16008FEF0EF091EF0EF099EF0EF0000E2B6E96
:101D2600000E2C6E000E2D6E000E2E6E2D8E000EE9
:101D36002E6EA6EF0EF0000E2B6E000E2C6E000E11
:101D46002D6E000E2E6E3250800B3B1A325032240E
:101D5600436E31AEB1EF0EF0B3EF0EF0B4EF0EF00E
:101D660043804350D8B4BAEF0EF0BCEF0EF0D1EF7B
:101D76000EF04328D8A4C2EF0EF0C4EF0EF0CCEF5D
:101D86000EF0000E2F6E000E306E000E316E000E3D
:101D9600326E318E000E326ED9EF0EF0000E2F6EBF
:101DA600000E306E000E316E000E326E2F50301067
:101DB60031103210D8A4E2EF0EF0E4EF0EF0FCEF93
:101DC6000EF0000E2B6E000E2C6E000E2D6E000E09
:101DD6002E6E800E2D127F0E2E123B502E122BC011
:101DE6002BF02CC02CF02DC02DF02EC02EF03FEF86
:101DF60010F04250D8A402EF0FF004EF0FF00EEFF0
:101E06000FF0000E2B6E000E2C6E000E2D6E000EC7
:101E16002E6E3FEF10F0435042C033F0346A335E0B
:101E2600000E345A7F0E33243C6E000E34203D6E75
:101E36002BC037F02CC038F02DC039F02EC03AF048
:101E4600000E2B6E000E2C6E000E2D6E000E2E6EEA
:101E5600000E3E6E000E3F6E000E406E000E416E8E
:101E6600000E436E6FEF0FF04350D8B43DEF0FF006
:101E76003FEF0FF056EF0FF0D89037363836393639
:101E86003A36D8902B362C362D362E3641AE4EEFBE
:101E96000FF050EF0FF051EF0FF02B80D8903E3639
:101EA6003F36403641362F50375C30503858315027
:101EB600395832503A58D8A063EF0FF065EF0FF05B
:101EC6006EEF0FF0418C2F50375E3050385A31503C
:101ED600395A32503A5A432A190E436475EF0FF0B5
:101EE60077EF0FF037EF0FF03750381039103A1000
:101EF600D8B480EF0FF082EF0FF09AEF0FF03E802C
:101F06009AEF0FF0D8902B362C362D362E3641AE62
:101F16008FEF0FF091EF0FF092EF0FF02B80D8902C
:101F26003E363F36403641363C06D8A03D062DAEFD
:101F36009FEF0FF0A1EF0FF085EF0FF0000E436E4D
:101F460041AEA8EF0FF0AAEF0FF0CEEF0FF0FF0EA5
:101F56003E14336EFF0E3F14346EFF0E4014356E82
:101F66007F0E4114366E3350341035103610D8B407
:101F7600BFEF0FF0C1EF0FF0C5EF0FF0010E436E8C
:101F8600CEEF0FF02BA0CAEF0FF0CCEF0FF0CEEF95
:101F96000FF0C1EF0FF04350D8B4D4EF0FF0D6EFE7
:101FA6000FF0FAEF0FF0010E2B26000E2C222D2239
:101FB6002E222EA0E1EF0FF0E3EF0FF0FAEF0FF075
:101FC6002BC033F02CC034F02DC035F02EC036F0C7
:101FD6003634363235323432333233C02BF034C0F5
:101FE6002CF035C02DF036C02EF03C4A3D2A3DBEC1
:101FF60005EF10F03D5008E13C28D8A005EF10F0A1
:1020060007EF10F012EF10F0000E3D6E3C68000E68
:102016002B6E000E2C6E000E2D6E000E2E6E3DBE2B
:102026001FEF10F03D5006E13C04D8B01DEF10F054
:102036001FEF10F02DEF10F0000E3D6E000E3C6EFF
:10204600000E2B6E000E2C6E000E2D6E000E2E6EE8
:10205600000E3B6E3CC042F042A034EF10F036EF6B
:1020660010F039EF10F02D8E3AEF10F02D9ED8902B
:1020760042302E6EF0EF0EF012000001F151F21117
:10208600D8B448EF10F04AEF10F0BBEF11F0C69A43
:102096009488948620EE0BF0F151D926F251DA227B
:1020A600DFA058EF10F05AEF10F0E6EF10F0CBEF8C
:1020B60010F020EE0AF0F151D926F251DA22DF5063
:1020C600F36FC650F319F00BF319C66E000E486E87
:1020D600000E496E800E4A6EBF0E4B6E000E166ED7
:1020E600000E176E800E186E400E196EF1C0D9FFE5
:1020F600F2C0DAFFDECF04F0DECF05F0DECF06F069
:10210600DECF07F0000EBCEC11F004C012F005C0E3
:1021160013F006C014F007C015F063EC0AF012C005
:102126002FF013C030F014C031F015C032F0000E9D
:102136002B6E240E2C6EF40E2D6E4A0E2E6E73EC44
:102146000EF02BC044F02CC045F02DC046F02EC03A
:1021560047F003EC08F044C054F045C055F046C0C3
:1021660056F047C057F096EC12F05450C86E59EF2F
:1021760011F020EE0AF0F151D926F251DA22DF50A1
:10218600F36FC650F319F00BF319C66E59EF11F041
:1021960020EE0AF0F151D926F251DA22DF50F36F20
:1021A600F46BF451000AD8B4DBEF10F059EF11F0DC
:1021B600F351080AD8B45CEF10F0030AD8B4BCEFA8
:1021C60010F059EF11F020EE0BF0F151D926F25133
:1021D600DA22DFB0F1EF10F0F3EF10F059EF11F063
:1021E60020EE0DF0F151D926F251DA22DFA4FEEFEE
:1021F60010F000EF11F003EF11F0C58E33EF11F080
:1022060020EE0DF0F151D926F251DA22DFB40EEFAD
:1022160011F010EF11F013EF11F0C59E33EF11F02E
:1022260033EF11F020EE0AF0F151D926F251DA22FD
:10223600DF50F36FC650F319F00BF319C66E4EEF6D
:1022460011F020EE0AF0F151D926F251DA22DF50D0
:10225600F36FC650F319F00BF319C66E4EEF11F07B
:1022660020EE0AF0F151D926F251DA22DF50F36F4F
:10227600F46BF451000AD8B443EF11F04EEF11F0AD
:10228600F351060AD8B415EF11F0080AD8B424EFB2
:1022960011F04EEF11F0C69EC69CC68820EE0CF0DB
:1022A600F151D926F251DA22DF50C86E000120EE34
:1022B6000DF0F151D926F251DA22DFB065EF11F0B7
:1022C60067EF11F06AEF11F0C79E78EF11F020EE7C
:1022D6000DF0F151D926F251DA22DFA075EF11F097
:1022E60077EF11F078EF11F0C78E20EE0DF0F15177
:1022F600D926F251DA22DFA083EF11F085EF11F033
:1023060088EF11F0C78C96EF11F020EE0DF0F15129
:10231600D926F251DA22DFB093EF11F095EF11F0E2
:1023260096EF11F0C79C9D969E9620EE08F0F1510F
:10233600D926F251DA22DECF64F0DDCF65F020EE49
:1023460006F0F151D926F251DA22DECFB5F0DDCF13
:10235600B6F020EE04F0F151D926F251DA22DECFA2
:10236600B3F0DDCFB4F0F28EF28C9D86A086C68ADD
:1023760012000C6E0C50D8B4C3EF11F0C5EF11F07B
:10238600E7EF11F007BECCEF11F0CAEF11F0E7EF5F
:1023960011F004C008F005C009F006C00AF007C035
:1023A6000BF0081E091E0A1E0B1E082A000E092223
:1023B6000A220B2208C00EF009C00FF00AC010F066
:1023C6000BC011F0EFEF11F004C00EF005C00FF0D6
:1023D60006C010F007C011F00450051006100710D3
:1023E600D8A4F8EF11F0FAEF11F004EF12F0000E96
:1023F600046E000E056E000E066E000E076E95EF5B
:1024060012F0960E0D6E0EEF12F00D2AD8901132C4
:1024160010320F320E32000E0E14086E000E0F141C
:10242600096E000E10140A6EFE0E11140B6E085083
:1024360009100A100B10D8A423EF12F025EF12F0A2
:1024460008EF12F033EF12F00D2A010E0E26000EE1
:102456000F2210221122D890113210320F320E3272
:10246600000E0E14086E000E0F14096E000E1014E6
:102476000A6EFF0E11140B6E085009100A100B108D
:10248600D8A448EF12F04AEF12F027EF12F052EFFD
:1024960012F00D06D8900E360F361036113610BED5
:1024A60057EF12F059EF12F061EF12F0020E0D60C5
:1024B6005FEF12F061EF12F04CEF12F00DB066EF25
:1024C60012F068EF12F069EF12F0109ED8900D32FC
:1024D6000DC008F0096A0A6A0B6A08C00BF00A6A9E
:1024E600096A086A08500E1209500F120A50101293
:1024F6000B5011120C50D8B483EF12F085EF12F086
:102506008DEF12F007BE8CEF12F08AEF12F08DEF0E
:1025160012F0118E0EC004F00FC005F010C006F0C8
:1025260011C007F01200563457345D6E5D50D8A4C2
:102536009FEF12F0A1EF12F0ABEF12F0000E546E07
:10254600000E556E000E566E000E576E18EF13F005
:1025560054C058F055C059F056C05AF057C05BF0F9
:10256600200EBBEF12F0D8905B325A3259325832F5
:10257600E82EB6EF12F058505C6E568EFF0E5416CB
:10258600FF0E5516FF0E5616000E5716960E5D5E7A
:102596005DBED2EF12F0D0EF12F0E8EF12F05D5010
:1025A600800A970FD8B0DAEF12F0DCEF12F0DEEF08
:1025B60012F0A1EF12F0D8905732563255325432FB
:1025C6005D3EDEEF12F000EF13F01F0E5D64EEEFDE
:1025D60012F0F0EF12F0F8EF12F0A1EF12F0D8902F
:1025E60054365536563657365D065D50D8A4FEEF3E
:1025F60012F000EF13F0F2EF12F05C50D8B406EFD1
:1026060013F008EF13F010EF13F0571E561E551E69
:10261600546C000E55225622572254C054F055C011
:1026260055F056C056F057C057F012008C0EF66E95
:10263600270EF76E000EF86E01EE00F010EE10F0A9
:102646000900F5CFEEFFE550E150FAE1E20EF66E35
:10265600260EF76E000EF86E00EEC5F010EE2CF0AA
:102666000900F5CFEEFFE550E150FAE1C80EF66E2F
:10267600270EF76E000EF86E00EE77F010EE04F0FF
:102686000900F5CFEEFFE550E150FAE100EE80F0EB
:10269600450EEE6AE806FDE100EE5EF0190EEE6A02
:1026A600E806FDE17B907B920001BBEF13F09E965E
:1026B60064506510D8B462EF13F064EF13F070EF56
:1026C60013F002D870EF13F00500FA6E6450FD6E39
:1026D6006550FE6EFF6AFA5012001200920F930FB9
:1026E600940F950F960F890F8A0F8B0F8C0F8D0FF6
:1026F600800F810F820F830F840F000000000000FF
:102706000000CC2706006101016EF2900104D8A4F6
:102716008FEF13F091EF13F093EF13F093EF13F0A5
:102726001200016EF2900104D8A49CEF13F09EEF04
:1027360013F0A0EF13F0A0EF13F01200016EF29069
:102746000104D8A4A9EF13F0ABEF13F0ADEF13F02B
:10275600ADEF13F01200016EF2900104D8A4B6EFAB
:1027660013F0B8EF13F0BAEF13F0BAEF13F012004C
:10277600E30E0001F16F000EF26F40EC10F0C2EFB5
:1027860013F007EF00F03738392F3435362A313257
:10279600332D23303D2BA1925F50B36E5EC0B2FF46
:1027A60012009E906150CF6E60C0CEFF1200F29470
:1027B6006350D76E62C0D6FF12009E926EC0CCFFE9
:1027C6001200010101016C2A1200A1961200F0927A
:1027D6001200F0901200F29212009D981200A19041
:0C27E60012009E9412009E9C1200120033
:020000040020DA
:08000000FFFFFFFFFFFFFFFF00
:020000040030CA
:0E000000FF02091EFF8181FF0FC00FE00F40BD
:00000001FF
