:0400000007EF00F016
:0A000800798203ED08F08BEF0AF097
:05100000002575000051
:101006000600FACF73F0FBCF74F0D9CF75F0DACFC4
:1010160076F0F3CF77F0F4CF78F0F2A815EF08F07A
:1010260017EF08F020EF08F0F2A21CEF08F01EEF11
:1010360008F020EF08F03EEC0BF0F0A625EF08F0E4
:1010460027EF08F030EF08F0F0A02CEF08F02EEFB5
:1010560008F030EF08F03CEC0BF0F0A835EF08F0A4
:1010660037EF08F040EF08F0F0A23CEF08F03EEF53
:1010760008F040EF08F03AEC0BF0F2A645EF08F066
:1010860047EF08F062EF08F0F2A04CEF08F04EEFE1
:1010960008F062EF08F081A853EF08F055EF08F06A
:1010A60062EF08F05F04D8A45BEF08F05DEF08F08C
:1010B60062EF08F0000E5F6E010E0DEC0BF0F2A66B
:1010C60067EF08F069EF08F084EF08F0F2A06EEF22
:1010D60008F070EF08F084EF08F081B875EF08F0BB
:1010E60077EF08F084EF08F05F50D8A47DEF08F0A2
:1010F6007FEF08F084EF08F0010E5F6E000E0DEC36
:101106000BF0F2A689EF08F08BEF08F0A6EF08F0D7
:10111600F2A090EF08F092EF08F0A6EF08F081AA8F
:1011260097EF08F099EF08F0A6EF08F05E04D8A450
:101136009FEF08F0A1EF08F0A6EF08F0000E5E6E34
:10114600010E00EC0BF0F2A6ABEF08F0ADEF08F0E5
:10115600C8EF08F0F2A0B2EF08F0B4EF08F0C8EF5D
:1011660008F081BAB9EF08F0BBEF08F0C8EF08F055
:101176005E50D8A4C1EF08F0C3EF08F0C8EF08F03E
:10118600010E5E6E000E00EC0BF0F2A6CDEF08F03D
:10119600CFEF08F0EAEF08F0F2A0D4EF08F0D6EFB0
:1011A60008F0EAEF08F081ACDBEF08F0DDEF08F0BD
:1011B600EAEF08F05D04D8A4E3EF08F0E5EF08F0E5
:1011C600EAEF08F0000E5D6E010EF3EC0AF0F2A6EF
:1011D600EFEF08F0F1EF08F00CEF09F0F2A0F6EFF0
:1011E60008F0F8EF08F00CEF09F081BCFDEF08F00D
:1011F600FFEF08F00CEF09F05D50D8A405EF09F0F9
:1012060007EF09F00CEF09F0010E5D6E000EF3EC2E
:101216000AF0F2A611EF09F013EF09F02EEF09F02C
:10122600F2A018EF09F01AEF09F02EEF09F081AEDF
:101236001FEF09F021EF09F02EEF09F05C04D8A4A6
:1012460027EF09F029EF09F02EEF09F0000E5C6E8A
:10125600010EE6EC0AF0F2A633EF09F035EF09F0DD
:1012660050EF09F0F2A03AEF09F03CEF09F050EF29
:1012760009F081BE41EF09F043EF09F050EF09F0A4
:101286005C50D8A449EF09F04BEF09F050EF09F094
:10129600010E5C6E000EE6EC0AF09DAC55EF09F00F
:1012A60057EF09F060EF09F09EAC5CEF09F05EEFD6
:1012B60009F060EF09F040EC0BF0F2AA65EF09F0D7
:1012C60067EF09F070EF09F0F2A46CEF09F06EEF2A
:1012D60009F070EF09F034EC0BF09DA075EF09F002
:1012E60077EF09F080EF09F09EA07CEF09F07EEF22
:1012F60009F080EF09F0B6EC0AF078C0F4FF77C089
:10130600F3FF76C0DAFF75C0D9FF74C0FBFF73C068
:10131600FAFF79921100000190519111D8B496EF1D
:1013260009F098EF09F01CEF0AF0CD9020EE06F0D8
:101336009051D9269151DA22DFB0A4EF09F0A6EF39
:1013460009F0A9EF09F0CD92AAEF09F0CD8220EEBF
:1013560006F09051D9269151DA22DFB6B5EF09F0A1
:10136600B7EF09F0DBEF09F0CD9E20EE04F09051C7
:10137600D9269151DA22DECF16F0DDCF17F020EE16
:1013860004F09051D9269151DA22DECF92F0DDCFCA
:1013960093F093C092F0936B9251CF6E20EE04F0CF
:1013A6009051D9269151DA22DF50CE6EDCEF09F04A
:1013B600CD8E20EE06F09051D9269151DA22DFB477
:1013C600E7EF09F0E9EF09F0ECEF09F0CD94EDEF66
:1013D60009F0CD8420EE06F09051D9269151DA22FB
:1013E600DFA2F8EF09F0FAEF09F0FDEF09F0CD867C
:1013F600FEEF09F0CD9620EE03F09051D9269151DB
:10140600DA22DF50926F923BCD509219CF0B921990
:10141600CD6E9D909E9090C0D9FF91C0DAFFDECF31
:1014260018F0DDCF19F0F28EF28C9D80CD801CEF86
:101436000AF012003AC072F072906FC0D9FF70C005
:10144600DAFFDFAE02D0728201D072926FC0D9FF8E
:1014560070C0DAFFDF38070B716E71467146725045
:101466007118E30B7118726E6FC0D9FF70C0DAFF86
:10147600DF500F0B716E713A7146725071181F0B67
:101486007118726E6F507010D8B44CEF0AF04EEFB0
:101496000AF054EF0AF0720E686E000E696E55EC93
:1014A6000AF0120068506910D8B45CEF0AF05EEFDB
:1014B6000AF08AEF0AF068C0D9FF69C0DAFFDF30A8
:1014C600E832070B6A6E010E6B6E6A2A6DEF0AF040
:1014D600D8906B366A2E6BEF0AF068C0D9FF69C0E8
:1014E600DAFFDF38E832070B6C6E6C50020D480EDF
:1014F600F324D96E000EF420DA6EDECF6DF0DDCF68
:101506006EF06DC0D9FF6EC0DAFF6B50DF1A1200A5
:101516004A0EF66E160EF76E000EF86E00EE80F0AE
:1015260010EE10F00900F5CFEEFFE550E150FAE1BC
:10153600A20EF66E150EF76E000EF86E00EE3EF079
:1015460010EE2AF00900F5CFEEFFE550E150FAE182
:1015560000EE01F03D0EEE6AE806FDE17990799223
:1015660000011AEF0BF09E901750CF6E16C0CEFFFB
:1015760018501910D8B4C2EF0AF0C4EF0AF0D0EF31
:101586000AF002D8D0EF0AF00500FA6E1850FD6E88
:101596001950FE6EFF6AFA5012001200920F930F56
:1015A600940F950F960F890F8A0F8B0F8C0F8D0F47
:1015B600800F810F820F830F840F010101015A16DC
:1015C600000300000502686EF2906804D8A4EEEFEE
:1015D6000AF0F0EF0AF0F2EF0AF0F2EF0AF012006A
:1015E600686EF2906804D8A4FBEF0AF0FDEF0AF0EB
:1015F600FFEF0AF0FFEF0AF01200686EF29068043F
:10160600D8A408EF0BF00AEF0BF00CEF0BF00CEF81
:101616000BF01200686EF2906804D8A415EF0BF078
:1016260017EF0BF019EF0BF019EF0BF01200600E2D
:101636000001906F000E916F8EEC09F021EF0BF018
:1016460007EF00F03738392F3435362A3132332D4B
:1016560023303D2B670E6F6E000E706E1DEC0AF088
:101666001200F2941B50D76E1AC0D6FF1200F092E9
:0E1676001200F0901200F29212009E9C1200E0
:020000040020DA
:08000000FFFFFFFFFFFFFFFF00
:020000040030CA
:0E000000FF02091EFF8181FF0FC00FE00F40BD
:00000001FF
