:0400000007EF00F016
:0A0008007E8203ED08F0B6EF09F068
:05100000002575000051
:101006000600F2A809EF08F00BEF08F014EF08F05D
:10101600F2A210EF08F012EF08F014EF08F03CEC23
:101026000AF0F0A619EF08F01BEF08F024EF08F01D
:10103600F0A020EF08F022EF08F024EF08F03AECD9
:101046000AF0F0A829EF08F02BEF08F034EF08F0CB
:10105600F0A230EF08F032EF08F034EF08F038EC89
:101066000AF0F2A639EF08F03BEF08F056EF08F069
:10107600F2A040EF08F042EF08F056EF08F081A822
:1010860047EF08F049EF08F056EF08F07C04D8A4C3
:101096004FEF08F051EF08F056EF08F0000E7C6EA7
:1010A600010E11EC0AF0F2A65BEF08F05DEF08F016
:1010B60078EF08F0F2A062EF08F064EF08F078EF3E
:1010C60008F081B869EF08F06BEF08F078EF08F0E8
:1010D6007C50D8A471EF08F073EF08F078EF08F0B1
:1010E600010E7C6E000E11EC0AF0F2A67DEF08F000
:1010F6007FEF08F09AEF08F0F2A084EF08F086EF91
:1011060008F09AEF08F081AA8BEF08F08DEF08F04F
:101116009AEF08F07B04D8A493EF08F095EF08F057
:101126009AEF08F0000E7B6E010E04EC0AF0F2A6B0
:101136009FEF08F0A1EF08F0BCEF08F0F2A0A6EFD1
:1011460008F0A8EF08F0BCEF08F081BAADEF08F0A0
:10115600AFEF08F0BCEF08F07B50D8A4B5EF08F06D
:10116600B7EF08F0BCEF08F0010E7B6E000E04EC42
:101176000AF0F2A6C1EF08F0C3EF08F0DEEF08F0C0
:10118600F2A0C8EF08F0CAEF08F0DEEF08F081AC75
:10119600CFEF08F0D1EF08F0DEEF08F07A04D8A41C
:1011A600D7EF08F0D9EF08F0DEEF08F0000E7A6E00
:1011B600010EF7EC09F0F2A6E3EF08F0E5EF08F010
:1011C60000EF09F0F2A0EAEF08F0ECEF08F000EF0C
:1011D60009F081BCF1EF08F0F3EF08F000EF09F039
:1011E6007A50D8A4F9EF08F0FBEF08F000EF09F009
:1011F600010E7A6E000EF7EC09F0F2A605EF09F083
:1012060007EF09F022EF09F0F2A00CEF09F00EEF5C
:1012160009F022EF09F081AE13EF09F015EF09F09E
:1012260022EF09F07904D8A41BEF09F01DEF09F0AD
:1012360022EF09F0000E796E010EEAEC09F0F2A633
:1012460027EF09F029EF09F044EF09F0F2A02EEF9D
:1012560009F030EF09F044EF09F081BE35EF09F0EF
:1012660037EF09F044EF09F07950D8A43DEF09F0C3
:101276003FEF09F044EF09F0010E796E000EEAEC3B
:1012860009F09DAC49EF09F04BEF09F054EF09F076
:101296009EAC50EF09F052EF09F054EF09F042EC22
:1012A6000AF0F2AA59EF09F05BEF09F064EF09F0D2
:1012B600F2A460EF09F062EF09F064EF09F02AEC9E
:1012C6000AF09DA069EF09F06BEF09F074EF09F0E1
:1012D6009EA070EF09F072EF09F074EF09F024ECAC
:1012E6000AF09DA279EF09F07BEF09F084EF09F08F
:1012F6009EA280EF09F082EF09F084EF09F034EC4A
:101306000AF0A0A289EF09F08BEF09F094EF09F03B
:10131600A1A290EF09F092EF09F094EF09F01EEC0C
:101326000AF09DA499EF09F09BEF09F0A4EF09F0EC
:101336009EA4A0EF09F0A2EF09F0A4EF09F040EC9B
:101346000AF0A0A0A9EF09F0ABEF09F0B4EF09F09D
:10135600A1A0B0EF09F0B2EF09F0B4EF09F03EEC4E
:101366000AF07E921100A20EF66E130EF76E000EB4
:10137600F86E00EE4BF010EE32F00900F5CFEEFFFE
:10138600E550E150FAE100EE01F04A0EEE6AE80699
:10139600FDE17E907E92000130EF0AF03738392F5A
:1013A6003435362A3132332D23303D2B920F930FAD
:1013B600940F950F960F890F8A0F8B0F8C0F8D0F39
:1013C600800F810F820F830F840F010101017D6E53
:1013D600F2907D04D8A4F2EF09F0F4EF09F0F6EFED
:1013E60009F0F6EF09F012007D6EF2907D04D8A4A4
:1013F600FFEF09F001EF0AF003EF0AF003EF0AF03E
:1014060012007D6EF2907D04D8A40CEF0AF00EEF68
:101416000AF010EF0AF010EF0AF012007D6EF2905B
:101426007D04D8A419EF0AF01BEF0AF01DEF0AF0AD
:101436001DEF0AF01200A1921750B36E16C0B2FF4C
:1014460012009E901D50CF6E1CC0CEFF1200F2946B
:101456002150D76E20C0D6FF120030EF0AF007EFFA
:1014660000F09E9242C0CCFF1200F0921200F09063
:101476001200F2921200A19012009E9412009E9CFD
:02148600120052
:020000040020DA
:08000000FFFFFFFFFFFFFFFF00
:020000040030CA
:0E000000FF02091EFF8181FF0FC00FE00F40BD
:00000001FF
