:0400000007EF00F016
:0A0008007E8278ED0CF059EF13F042
:05100000002575000051
:101006004550800B4E6E45504524506E44AE0EEF53
:1010160008F010EF08F011EF08F050805050D8B4E7
:1010260017EF08F019EF08F02EEF08F05028D8A4B3
:101036001FEF08F021EF08F029EF08F0000E426ECE
:10104600000E436E000E446E000E456E448E000E7A
:10105600456E36EF08F0000E426E000E436E000E2F
:10106600446E000E456E4950800B4F6E4E504F1821
:10107600D8B440EF08F042EF08F043EF08F04E8C8A
:10108600495049244F6E48AE4BEF08F04DEF08F03B
:101096004EEF08F04F804F50D8B454EF08F056EF9B
:1010A60008F06BEF08F04F28D8A45CEF08F05EEF6D
:1010B60008F066EF08F0000E466E000E476E000E52
:1010C600486E000E496E488E000E496E73EF08F0AA
:1010D600000E466E000E476E000E486E000E496EFC
:1010E60050504F5CD8B07AEF08F07CEF08F0A3EFD1
:1010F60008F04EAC81EF08F083EF08F085EF08F0BA
:10110600800E4E1A50C051F04FC050F051C04FF0F3
:1011160042C051F046C042F051C046F043C051F0C3
:1011260047C043F051C047F044C051F048C044F0B6
:1011360051C048F045C051F049C045F051C049F092
:10114600000E516E50504FC04AF04B6A4A5E000E78
:101156004B5A4BBEB8EF08F04B5009E11A0E4A5CE9
:10116600D8A0B8EF08F0BAEF08F0F1EF08F0425057
:10117600431044104510D8A4C3EF08F0C6EF08F09A
:10118600010EC7EF08F0000E516E000E426E000E03
:10119600436E000E446E000E456E4FC050F0FAEFDF
:1011A60008F051A0D9EF08F0DBEF08F0E1EF08F006
:1011B600D89051300109516EE3EF08F0D8905132C2
:1011C60042A0E8EF08F0EAEF08F0EBEF08F0518EE6
:1011D60045344532443243324232502A4F50505CF5
:1011E600D8A0F8EF08F0FAEF08F0D4EF08F04EBCFC
:1011F600FFEF08F001EF09F041EF09F05050D8A4D5
:1012060007EF09F009EF09F013EF09F0000E426E3F
:10121600000E436E000E446E000E456E62EF0AF03D
:1012260046504226475043224850442249504522C0
:1012360045A020EF09F022EF09F0CEEF09F051A00A
:1012460027EF09F029EF09F02FEF09F0D890513078
:101256000109516E31EF09F0D890513242A036EFB4
:1012660009F038EF09F039EF09F0518E453445326F
:10127600443243324232502ACEEF09F04650425CA5
:1012860047504358485044584550800A4A6E495082
:10129600800A4A58D8B052EF09F054EF09F07FEFB0
:1012A60009F04250465C4A6E435047584B6E4450D4
:1012B60048584C6E455049584D6EFF0E4A24426EB2
:1012C600FF0E4B20436EFF0E4C20446EFF0E4D204A
:1012D600456E800E4E1A516C5150D8A475EF09F028
:1012E60077EF09F087EF09F0010E4226000E432240
:1012F6004422452287EF09F04650425E4750435A42
:101306004850445A4950455A4250431044104510DB
:10131600D8A490EF09F092EF09F0C7EF09F0515009
:10132600D8A498EF09F09AEF09F0C7EF09F0000E7C
:10133600426E000E436E000E446E000E456E62EF66
:101346000AF0D890423643364436453651AEAEEFB3
:1013560009F0B0EF09F0B1EF09F0428051A0B6EF05
:1013660009F0B8EF09F0BCEF09F0D8805136BEEFAE
:1013760009F0D89051365050D8B4C4EF09F0C6EFF2
:1013860009F0C7EF09F0500644AECCEF09F0CEEFF6
:1013960009F0A4EF09F0000E4F6E51AED5EF09F03B
:1013A600D7EF09F0EFEF09F051C04AF07F0E4A1669
:1013B600D8B4E0EF09F0E2EF09F0E6EF09F0010E2C
:1013C6004F6EEFEF09F042A0EBEF09F0EDEF09F0F9
:1013D600EFEF09F0E2EF09F04F50D8B4F5EF09F05E
:1013E600F7EF09F022EF0AF0010E4226000E432223
:1013F6004422452245A002EF0AF004EF0AF022EF4C
:101406000AF042C04AF043C04BF044C04CF045C01D
:101416004DF04D344D324C324B324A324AC042F0D6
:101426004BC043F04CC044F04DC045F05028D8B4F2
:101436001FEF0AF021EF0AF022EF0AF0502A502897
:10144600D8B428EF0AF02AEF0AF032EF0AF050502B
:10145600D8A430EF0AF032EF0AF044EF0AF0000E9B
:10146600426E000E436E000E446E000E456E5050E6
:10147600D8A440EF0AF042EF0AF044EF0AF0000E5B
:101486004E6E50A049EF0AF04BEF0AF04EEF0AF00D
:10149600448E4FEF0AF0449ED8905030456E4EAEC3
:1014A60057EF0AF059EF0AF05AEF0AF0458E42C09C
:1014B60042F043C043F044C044F045C045F012003A
:1014C6001350800B1C6E13501324226E12AE6EEF57
:1014D6000AF070EF0AF071EF0AF022802250D8B4B9
:1014E60077EF0AF079EF0AF08CEF0AF02228D8A4F9
:1014F6007FEF0AF081EF0AF089EF0AF0000E106E16
:10150600000E116E000E126E000E136E128E94EF08
:101516000AF0000E106E000E116E000E126E000E16
:10152600136E1750800B1C1A17501724216E16AE17
:101536009FEF0AF0A1EF0AF0A2EF0AF021802150F6
:10154600D8B4A8EF0AF0AAEF0AF0BDEF0AF02128F6
:10155600D8A4B0EF0AF0B2EF0AF0BAEF0AF0000E24
:10156600146E000E156E000E166E000E176E168E99
:10157600C5EF0AF0000E146E000E156E000E166E04
:10158600000E176E2150D8B4CBEF0AF0CDEF0AF05B
:10159600D5EF0AF02250D8A4D3EF0AF0D5EF0AF01F
:1015A600DFEF0AF0000E106E000E116E000E126EC6
:1015B600000E136E77EF0CF016501002F3CF27F0E3
:1015C600F4CF28F027501D6E1E6A1F6A206A285025
:1015D600236E246A256A266A15501102F3CF27F076
:1015E600F4CF28F027501D26000E1E221F2220228F
:1015F60028502326000E24222522262214501202C9
:10160600F3CF27F0F4CF28F027501D26000E1E2218
:101616001F22202228502326000E2422252226229D
:101626001FC020F01EC01FF01DC01EF01D6A145002
:101636001102F3CF27F0F4CF28F027501D262850AB
:101646001E22000E1F22000E202215501002F3CF7C
:1016560027F0F4CF28F027501D2628501E22000E12
:101666001F22000E20221FC020F01EC01FF01DC02A
:101676001EF01D6A14501002F3CF27F0F4CF28F0A5
:1016860027501D2628501E22000E1F22000E202243
:1016960016501102F3CF27F0F4CF28F02750232657
:1016A60028502422000E2522000E26221550120252
:1016B600F3CF27F0F4CF28F02750232628502422F2
:1016C600000E2522000E262216501202F3CF27F016
:1016D600F4CF28F02750186E2850196E1A6A1B6A24
:1016E6001AC01BF019C01AF018C019F0186A185061
:1016F6002326195024221A5025221B5026221DC0AB
:1017060018F01EC019F01FC01AF020C01BF0190EE9
:1017160092EF0BF0D8901B321A3219321832E82E9B
:101726008DEF0BF018502326195024221A5025222B
:101736001B5026221FC020F01EC01FF01DC01EF029
:101746001D6A215022C018F0196A1826000E1922A7
:10175600820E1824276EFF0E1920286EC8EF0BF094
:10176600D890233624362536263620AEBDEF0BF02C
:10177600BFEF0BF0C0EF0BF02380D8901D361E365E
:101786001F3620362706D8A0280625AECDEF0BF04B
:10179600CFEF0BF0B3EF0BF0000E216E20AED6EFBD
:1017A6000BF0D8EF0BF0FCEF0BF0FF0E1D14186ECC
:1017B600FF0E1E14196EFF0E1F141A6E7F0E2014D4
:1017C6001B6E185019101A101B10D8B4EDEF0BF041
:1017D600EFEF0BF0F3EF0BF0010E216EFCEF0BF0C9
:1017E60023A0F8EF0BF0FAEF0BF0FCEF0BF0EFEFA6
:1017F6000BF02150D8B402EF0CF004EF0CF028EFF8
:101806000CF0010E2326000E24222522262226A0D5
:101816000FEF0CF011EF0CF028EF0CF023C018F0CE
:1018260024C019F025C01AF026C01BF01B341B3249
:101836001A321932183218C023F019C024F01AC00F
:1018460025F01BC026F0274A282A28BE33EF0CF0C5
:10185600285008E12728D8A033EF0CF035EF0CF01C
:101866003FEF0CF0000E236E000E246E800E256EE8
:101876007F0E266E6DEF0CF028BE4CEF0CF0285054
:1018860006E12704D8B04AEF0CF04CEF0CF058EF05
:101896000CF0000E236E000E246E000E256E000E58
:1018A600266E000E1C6E6DEF0CF027C022F0FF0EA8
:1018B6002316FF0E24167F0E2516000E261622A0CE
:1018C60067EF0CF069EF0CF06AEF0CF0258ED890FC
:1018D6002230266E1C50261223C010F024C011F0B0
:1018E60025C012F026C013F012000600F2A87EEF03
:1018F6000CF080EF0CF089EF0CF0F2A285EF0CF003
:1019060087EF0CF089EF0CF080EC14F0F0A68EEF68
:101916000CF090EF0CF099EF0CF0F0A095EF0CF0B6
:1019260097EF0CF099EF0CF07EEC14F0F0A89EEF18
:101936000CF0A0EF0CF0A9EF0CF0F0A2A5EF0CF064
:10194600A7EF0CF0A9EF0CF07CEC14F0F2A6AEEFCA
:101956000CF0B0EF0CF0CBEF0CF0F2A0B5EF0CF002
:10196600B7EF0CF0CBEF0CF081A8BCEF0CF0BEEF9C
:101976000CF0CBEF0CF07D04D8A4C4EF0CF0C6EF4E
:101986000CF0CBEF0CF0000E7D6E010E4BEC14F05C
:10199600F2A6D0EF0CF0D2EF0CF0EDEF0CF0F2A0C7
:1019A600D7EF0CF0D9EF0CF0EDEF0CF081B8DEEFCD
:1019B6000CF0E0EF0CF0EDEF0CF07D50D8A4E6EF64
:1019C6000CF0E8EF0CF0EDEF0CF0010E7D6E000E62
:1019D6004BEC14F0F2A6F2EF0CF0F4EF0CF00FEF74
:1019E6000DF0F2A0F9EF0CF0FBEF0CF00FEF0DF09D
:1019F60081AA00EF0DF002EF0DF00FEF0DF07C0461
:101A0600D8A408EF0DF00AEF0DF00FEF0DF0000E61
:101A16007C6E010E3EEC14F0F2A614EF0DF016EFFC
:101A26000DF031EF0DF0F2A01BEF0DF01DEF0DF0F4
:101A360031EF0DF081BA22EF0DF024EF0DF031EF0A
:101A46000DF07C50D8A42AEF0DF02CEF0DF031EFFD
:101A56000DF0010E7C6E000E3EEC14F0F2A636EF91
:101A66000DF038EF0DF053EF0DF0F2A03DEF0DF055
:101A76003FEF0DF053EF0DF081AC44EF0DF046EF64
:101A86000DF053EF0DF07B04D8A44CEF0DF04EEFA4
:101A96000DF053EF0DF0000E7B6E010E31EC14F0DD
:101AA600F2A658EF0DF05AEF0DF075EF0DF0F2A01B
:101AB6005FEF0DF061EF0DF075EF0DF081BC66EF95
:101AC6000DF068EF0DF075EF0DF07B50D8A46EEFBA
:101AD6000DF070EF0DF075EF0DF0010E7B6E000E40
:101AE60031EC14F0F2A67AEF0DF07CEF0DF097EFE3
:101AF6000DF0F2A081EF0DF083EF0DF097EF0DF0F2
:101B060081AE88EF0DF08AEF0DF097EF0DF07A04B5
:101B1600D8A490EF0DF092EF0DF097EF0DF0000EB8
:101B26007A6E010E24EC14F0F2A69CEF0DF09EEFF7
:101B36000DF0B9EF0DF0F2A0A3EF0DF0A5EF0DF04B
:101B4600B9EF0DF081BEAAEF0DF0ACEF0DF0B9EFD5
:101B56000DF07A50D8A4B2EF0DF0B4EF0DF0B9EF56
:101B66000DF0010E7A6E000E24EC14F09DACBEEF63
:101B76000DF0C0EF0DF0C9EF0DF09EACC5EF0DF006
:101B8600C7EF0DF0C9EF0DF088EC14F0F2AACEEF16
:101B96000DF0D0EF0DF0D9EF0DF0F2A4D5EF0DF06A
:101BA600D7EF0DF0D9EF0DF06CEC14F09DA0DEEF41
:101BB6000DF0E0EF0DF0E9EF0DF09EA0E5EF0DF072
:101BC600E7EF0DF0E9EF0DF066EC14F09DA2EEEFF5
:101BD6000DF0F0EF0DF0F9EF0DF09EA2F5EF0DF020
:101BE600F7EF0DF0F9EF0DF072EC14F0A0A2FEEF96
:101BF6000DF000EF0EF009EF0EF0A1A205EF0EF0CA
:101C060007EF0EF009EF0EF060EC14F09DA40EEF56
:101C16000EF010EF0EF019EF0EF09EA415EF0EF079
:101C260017EF0EF019EF0EF086EC14F0A0A01EEFE1
:101C36000EF020EF0EF029EF0EF0A1A025EF0EF02A
:101C460027EF0EF029EF0EF084EC14F09DA82EEF8E
:101C56000EF030EF0EF039EF0EF09EA835EF0EF0D5
:101C660037EF0EF039EF0EF082EC14F09DAA3EEF3E
:101C76000EF040EF0EF049EF0EF09EAA45EF0EF083
:101C860047EF0EF049EF0EF08AEC14F09DA64EEFEA
:101C96000EF050EF0EF059EF0EF09EA655EF0EF037
:101CA60057EF0EF059EF0EF078EC14F0A0A65EEFA9
:101CB6000EF060EF0EF069EF0EF0A1A665EF0EF0E4
:101CC60067EF0EF069EF0EF07AEC14F07E921100D9
:101CD6002C50800B396E2C502C24406E2BAE76EF98
:101CE6000EF078EF0EF079EF0EF040804050D8B449
:101CF6007FEF0EF081EF0EF096EF0EF04028D8A49D
:101D060087EF0EF089EF0EF091EF0EF0000E296EC0
:101D1600000E2A6E000E2B6E000E2C6E2B8E000E01
:101D26002C6E9EEF0EF0000E296E000E2A6E000E2F
:101D36002B6E000E2C6E3050800B391A305030242A
:101D4600416E2FAEA9EF0EF0ABEF0EF0ACEF0EF03A
:101D560041804150D8B4B2EF0EF0B4EF0EF0C9EFA7
:101D66000EF04128D8A4BAEF0EF0BCEF0EF0C4EF87
:101D76000EF0000E2D6E000E2E6E000E2F6E000E53
:101D8600306E2F8E000E306ED1EF0EF0000E2D6EDF
:101D9600000E2E6E000E2F6E000E306E2D502E1081
:101DA6002F103010D8A4DAEF0EF0DCEF0EF0F4EFBF
:101DB6000EF0000E296E000E2A6E000E2B6E000E1F
:101DC6002C6E800E2B127F0E2C1239502C1229C02D
:101DD60029F02AC02AF02BC02BF02CC02CF037EFAC
:101DE60010F04050D8A4FAEF0EF0FCEF0EF006EF1C
:101DF6000FF0000E296E000E2A6E000E2B6E000EDE
:101E06002C6E37EF10F0415040C031F0326A315E2F
:101E1600000E325A7F0E31243A6E000E32203B6E8F
:101E260029C035F02AC036F02BC037F02CC038F068
:101E3600000E296E000E2A6E000E2B6E000E2C6E02
:101E4600000E3C6E000E3D6E000E3E6E000E3F6EA6
:101E5600000E416E67EF0FF04150D8B435EF0FF02A
:101E660037EF0FF04EEF0FF0D8903536363637365F
:101E76003836D89029362A362B362C363FAE46EFE2
:101E86000FF048EF0FF049EF0FF02980D8903C365D
:101E96003D363E363F362D50355C2E5036582F5047
:101EA600375830503858D8A05BEF0FF05DEF0FF081
:101EB60066EF0FF03F8C2D50355E2E50365A2F5060
:101EC600375A3050385A412A190E41646DEF0FF0D7
:101ED6006FEF0FF02FEF0FF0355036103710381028
:101EE600D8B478EF0FF07AEF0FF092EF0FF03C8056
:101EF60092EF0FF0D89029362A362B362C363FAE85
:101F060087EF0FF089EF0FF08AEF0FF02980D89056
:101F16003C363D363E363F363A06D8A03B062BAE1B
:101F260097EF0FF099EF0FF07DEF0FF0000E416E77
:101F36003FAEA0EF0FF0A2EF0FF0C6EF0FF0FF0ECF
:101F46003C14316EFF0E3D14326EFF0E3E14336E9E
:101F56007F0E3F14346E3150321033103410D8B423
:101F6600B7EF0FF0B9EF0FF0BDEF0FF0010E416EB6
:101F7600C6EF0FF029A0C2EF0FF0C4EF0FF0C6EFC7
:101F86000FF0B9EF0FF04150D8B4CCEF0FF0CEEF11
:101F96000FF0F2EF0FF0010E2926000E2A222B2257
:101FA6002C222CA0D9EF0FF0DBEF0FF0F2EF0FF0A1
:101FB60029C031F02AC032F02BC033F02CC034F0E7
:101FC6003434343233323232313231C029F032C015
:101FD6002AF033C02BF034C02CF03A4A3B2A3BBEE1
:101FE600FDEF0FF03B5008E13A28D8A0FDEF0FF0C7
:101FF600FFEF0FF00AEF10F0000E3B6E3A68000E8E
:10200600296E000E2A6E000E2B6E000E2C6E3BBE45
:1020160017EF10F03B5006E13A04D8B015EF10F078
:1020260017EF10F025EF10F0000E3B6E000E3A6E23
:10203600000E296E000E2A6E000E2B6E000E2C6E00
:10204600000E396E3AC040F040A02CEF10F02EEF93
:1020560010F031EF10F02B8E32EF10F02B9ED8904F
:1020660040302C6EE8EF0EF012005C505D10D8B4D4
:102076003FEF10F041EF10F0B1EF11F0C69A9488DF
:10208600948620EE0BF05C50D9265D50DA22DFA054
:102096004FEF10F051EF10F0DDEF10F0C2EF10F03F
:1020A60020EE0AF05C50D9265D50DA22DF505E6ED3
:1020B600C6505E18F00B5E18C66E000E466E000E19
:1020C600476E800E486EBF0E496E000E146E000EEF
:1020D600156E800E166E400E176E5CC0D9FF5DC081
:1020E600DAFFDECF02F0DECF03F0DECF04F0DECF84
:1020F60005F0000EB2EC11F002C010F003C011F0B2
:1021060004C012F005C013F063EC0AF010C02DF005
:1021160011C02EF012C02FF013C030F0000E296E41
:10212600240E2A6EF40E2B6E4A0E2C6E6BEC0EF0FD
:1021360029C042F02AC043F02BC044F02CC045F021
:1021460003EC08F042C052F043C053F044C054F0D0
:1021560045C055F08CEC12F05250C86E50EF11F09D
:1021660020EE0AF05C50D9265D50DA22DF505E6E12
:10217600C6505E18F00B5E18C66E50EF11F020EEDA
:102186000AF05C50D9265D50DA22DF505E6E5F6A37
:102196005F50000AD8B4D2EF10F050EF11F05E5045
:1021A600080AD8B453EF10F0030AD8B4B3EF10F00E
:1021B60050EF11F020EE0BF05C50D9265D50DA227C
:1021C600DFB0E8EF10F0EAEF10F050EF11F020EE7C
:1021D6000DF05C50D9265D50DA22DFA4F5EF10F041
:1021E600F7EF10F0FAEF10F0C58E2AEF11F020EE9F
:1021F6000DF05C50D9265D50DA22DFB405EF11F000
:1022060007EF11F00AEF11F0C59E2AEF11F02AEF41
:1022160011F020EE0AF05C50D9265D50DA22DF502C
:102226005E6EC6505E18F00B5E18C66E45EF11F076
:1022360020EE0AF05C50D9265D50DA22DF505E6E41
:10224600C6505E18F00B5E18C66E45EF11F020EE14
:102256000AF05C50D9265D50DA22DF505E6E5F6A66
:102266005F50000AD8B43AEF11F045EF11F05E5016
:10227600060AD8B40CEF11F0080AD8B41BEF11F017
:1022860045EF11F0C69EC69CC68820EE0CF05C5049
:10229600D9265D50DA22DF50C86E20EE0DF05C5074
:1022A600D9265D50DA22DFB05BEF11F05DEF11F059
:1022B60060EF11F0C79E6EEF11F020EE0DF05C504E
:1022C600D9265D50DA22DFA06BEF11F06DEF11F029
:1022D6006EEF11F0C78E20EE0DF05C50D9265D50E2
:1022E600DA22DFA079EF11F07BEF11F07EEF11F02B
:1022F600C78C8CEF11F020EE0DF05C50D9265D50A6
:10230600DA22DFB089EF11F08BEF11F08CEF11F0CC
:10231600C79C9D969E9620EE08F05C50D9265D508F
:10232600DA22DECFB7F0DDCFB8F020EE06F05C5053
:10233600D9265D50DA22DECFB5F0DDCFB6F020EE3D
:1023460004F05C50D9265D50DA22DECFB3F0DDCF43
:10235600B4F0F28EF28C9D86A086C68A12000A6EB2
:102366000A50D8B4B9EF11F0BBEF11F0DDEF11F060
:1023760005BEC2EF11F0C0EF11F0DDEF11F002C0A3
:1023860006F003C007F004C008F005C009F0061EF9
:10239600071E081E091E062A000E07220822092209
:1023A60006C00CF007C00DF008C00EF009C00FF013
:1023B600E5EF11F002C00CF003C00DF004C00EF002
:1023C60005C00FF00250031004100510D8A4EEEF5C
:1023D60011F0F0EF11F0FAEF11F0000E026E000EA0
:1023E600036E000E046E000E056E8BEF12F0960E55
:1023F6000B6E04EF12F00B2AD8900F320E320D320C
:102406000C32000E0C14066E000E0D14076E000E34
:102416000E14086EFE0E0F14096E065007100810F3
:102426000910D8A419EF12F01BEF12F0FEEF11F00D
:1024360029EF12F00B2A010E0C26000E0D220E2299
:102446000F22D8900F320E320D320C32000E0C14C1
:10245600066E000E0D14076E000E0E14086EFF0EAB
:102466000F14096E0650071008100910D8A43EEF85
:1024760012F040EF12F01DEF12F048EF12F00B06CB
:10248600D8900C360D360E360F360EBE4DEF12F0C6
:102496004FEF12F057EF12F0020E0B6055EF12F0ED
:1024A60057EF12F042EF12F00BB05CEF12F05EEF56
:1024B60012F05FEF12F00E9ED8900B320BC006F0B2
:1024C600076A086A096A06C009F0086A076A066A9E
:1024D60006500C1207500D1208500E1209500F121A
:1024E6000A50D8B479EF12F07BEF12F083EF12F0B6
:1024F60005BE82EF12F080EF12F083EF12F00F8E1E
:102506000CC002F00DC003F00EC004F00FC005F0C1
:102516001200543455345B6E5B50D8A495EF12F01C
:1025260097EF12F0A1EF12F0000E526E000E536EEE
:10253600000E546E000E556E0EEF13F052C056F09C
:1025460053C057F054C058F055C059F0200EB1EFA3
:1025560012F0D8905932583257325632E82EACEF34
:1025660012F056505A6E548EFF0E5216FF0E531628
:10257600FF0E5416000E5516960E5B5E5BBEC8EF38
:1025860012F0C6EF12F0DEEF12F05B50800A970FE2
:10259600D8B0D0EF12F0D2EF12F0D4EF12F097EFDE
:1025A60012F0D89055325432533252325B3ED4EF49
:1025B60012F0F6EF12F01F0E5B64E4EF12F0E6EF96
:1025C60012F0EEEF12F097EF12F0D8905236533623
:1025D600543655365B065B50D8A4F4EF12F0F6EF8E
:1025E60012F0E8EF12F05A50D8B4FCEF12F0FEEFFA
:1025F60012F006EF13F0551E541E531E526C000EB9
:1026060053225422552252C052F053C053F054C0A4
:1026160054F055C055F01200E30E5C6E000E5D6E70
:1026260038EC10F0610E076E600ECAEC13F00B0E5C
:10263600616E260E606E5E0EE82EFED7602EFCD70B
:10264600612EFAD7620E076E610ECAEC13F00B0EFE
:10265600616E260E606E5E0EE82EFED7602EFCD7EB
:10266600612EFAD7630E076E600ECAEC13F00B0EDE
:10267600616E260E606E5E0EE82EFED7602EFCD7CB
:10268600612EFAD7640E076E610ECAEC13F00B0EBC
:10269600616E260E606E5E0EE82EFED7602EFCD7AB
:1026A600612EFAD715EF13F007EF00F0B00EF66EB5
:1026B600280EF76E000EF86E01EE00F010EE10F028
:1026C6000900F5CFEEFFE550E150FAE1D00EF66EC7
:1026D600270EF76E000EF86E00EEC5F010EE2CF029
:1026E6000900F5CFEEFFE550E150FAE1EC0EF66E8B
:1026F600280EF76E000EF86E00EE7AF010EE04F07B
:102706000900F5CFEEFFE550E150FAE100EE80F06A
:10271600450EEE6AE806FDE100EE62F0180EEE6A7E
:10272600E806FDE17E907E9200010FEF13F0025065
:102736000310D8B4A1EF13F0A3EF13F0C9EF13F011
:1027460005500610D8B4AAEF13F0ACEF13F0C9EF9A
:1027560013F004C0C9FFC7B0B3EF13F0B5EF13F021
:10276600AEEF13F0C5BCBAEF13F0BCEF13F0C3EF36
:1027760013F005C0D9FF06C0DAFFDF6AC9EF13F010
:1027860005C0D9FF06C0DAFF010EDF6E1200086E23
:1027960011EC14F0E30E026E000E036E08C004F096
:1027A600790E056E000E066E9AEC13F0E30E026EBD
:1027B600000E036E07C004F0790E056E000E066E5D
:1027C6009AEC13F0FEEC13F01200920F930F940F95
:1027D600950F960F890F8A0F8B0F8C0F8D0F800F19
:1027E600810F820F830F840FA08601000000000076
:1027F600000008010001C584C5B404EF14F006EF1B
:1028060014F0FFEF13F09E96C7A80CEF14F00EEF2E
:1028160014F010EF14F010EF14F01200C580C5B0DC
:1028260017EF14F019EF14F012EF14F09E96C7A6E6
:102836001FEF14F021EF14F023EF14F023EF14F040
:102846001200016EF2900104D8A42CEF14F02EEFC2
:1028560014F030EF14F030EF14F01200016EF29025
:102866000104D8A439EF14F03BEF14F03DEF14F057
:102876003DEF14F01200016EF2900104D8A446EF69
:1028860014F048EF14F04AEF14F04AEF14F0120077
:10289600016EF2900104D8A453EF14F055EF14F032
:1028A60057EF14F057EF14F012003738392F34353C
:1028B600362A3132332D23303D2BA1926350B36E2D
:1028C60062C0B2FF12009E906550CF6E64C0CEFF0C
:1028D6001200F2946750D76E66C0D6FF12009E9221
:1028E60070C0CCFF1200010101019E961200A19654
:1028F6001200F0921200F0901200F29212009D98CF
:102906001200A19012009E9412009E9C12001200CA
:020000040020DA
:08000000FFFFFFFFFFFFFFFF00
:020000040030CA
:0E000000FF02091EFF8181FF0FC00FE00F40BD
:00000001FF
