:0400000007EF00F016
:0A0008006E8203ED08F03FEF0CF0EC
:05100000002575000051
:101006000600FACF64F0FBCF65F0D9CF66F0DACFF1
:1010160067F0F3CF68F0F4CF69F0F2A815EF08F0A7
:1010260017EF08F020EF08F0F2A21CEF08F01EEF11
:1010360008F020EF08F02BEC0DF0F0A625EF08F0F5
:1010460027EF08F030EF08F0F0A02CEF08F02EEFB5
:1010560008F030EF08F029EC0DF0F0A835EF08F0B5
:1010660037EF08F040EF08F0F0A23CEF08F03EEF53
:1010760008F040EF08F027EC0DF0F2A645EF08F077
:1010860047EF08F062EF08F0F2A04CEF08F04EEFE1
:1010960008F062EF08F081A853EF08F055EF08F06A
:1010A60062EF08F05704D8A45BEF08F05DEF08F094
:1010B60062EF08F0000E576E010E0BEC0DF0F2A673
:1010C60067EF08F069EF08F084EF08F0F2A06EEF22
:1010D60008F070EF08F084EF08F081B875EF08F0BB
:1010E60077EF08F084EF08F05750D8A47DEF08F0AA
:1010F6007FEF08F084EF08F0010E576E000E0BEC40
:101106000DF0F2A689EF08F08BEF08F0A6EF08F0D5
:10111600F2A090EF08F092EF08F0A6EF08F081AA8F
:1011260097EF08F099EF08F0A6EF08F05604D8A458
:101136009FEF08F0A1EF08F0A6EF08F0000E566E3C
:10114600010EFEEC0CF0F2A6ABEF08F0ADEF08F0E6
:10115600C8EF08F0F2A0B2EF08F0B4EF08F0C8EF5D
:1011660008F081BAB9EF08F0BBEF08F0C8EF08F055
:101176005650D8A4C1EF08F0C3EF08F0C8EF08F046
:10118600010E566E000EFEEC0CF0F2A6CDEF08F046
:10119600CFEF08F0EAEF08F0F2A0D4EF08F0D6EFB0
:1011A60008F0EAEF08F081ACDBEF08F0DDEF08F0BD
:1011B600EAEF08F05504D8A4E3EF08F0E5EF08F0ED
:1011C600EAEF08F0000E556E010EF1EC0CF0F2A6F7
:1011D600EFEF08F0F1EF08F00CEF09F0F2A0F6EFF0
:1011E60008F0F8EF08F00CEF09F081BCFDEF08F00D
:1011F600FFEF08F00CEF09F05550D8A405EF09F001
:1012060007EF09F00CEF09F0010E556E000EF1EC38
:101216000CF0F2A611EF09F013EF09F02EEF09F02A
:10122600F2A018EF09F01AEF09F02EEF09F081AEDF
:101236001FEF09F021EF09F02EEF09F05404D8A4AE
:1012460027EF09F029EF09F02EEF09F0000E546E92
:10125600010EE4EC0CF0F2A633EF09F035EF09F0DD
:1012660050EF09F0F2A03AEF09F03CEF09F050EF29
:1012760009F081BE41EF09F043EF09F050EF09F0A4
:101286005450D8A449EF09F04BEF09F050EF09F09C
:10129600010E546E000EE4EC0CF09DAC55EF09F017
:1012A60057EF09F060EF09F09EAC5CEF09F05EEFD6
:1012B60009F060EF09F02DEC0DF0F2AA65EF09F0E8
:1012C60067EF09F070EF09F0F2A46CEF09F06EEF2A
:1012D60009F070EF09F0B4EC0CF069C0F4FF68C0D7
:1012E600F3FF67C0DAFF66C0D9FF65C0FBFF64C0C5
:1012F600FAFF6E9211006A506B10D8B485EF09F0B0
:1013060087EF09F012EF0AF020EE04F06A50D926B2
:101316006B50DA22DECF0BF0DDCF0CF0D59E20EE3F
:1013260006F06A50D9266B50DA22DFA69DEF09F047
:101336009FEF09F0AAEF09F0D58C20EE04F06A5071
:10134600D9266B50DA22DF50D66EC2EF09F0D59C53
:1013560020EE04F06A50D9266B50DA22DECF6CF00C
:10136600DDCF6DF06DC06CF06D6A6C50D76E20EEFF
:1013760004F06A50D9266B50DA22DF50D66E20EE82
:1013860006F06A50D9266B50DA22DFB4CDEF09F0A9
:10139600CFEF09F0DFEF09F0D59620EE03F06A50A3
:1013A600D9266B50DA22DF506C6ED5506C18F80BCC
:1013B6006C18D56EE0EF09F0D58620EE06F06A507F
:1013C600D9266B50DA22DFA0EBEF09F0EDEF09F03A
:1013D60001EF0AF0D59A20EE06F06A50D9266B5036
:1013E600DA22DFA2F9EF09F0FBEF09F0FEEF09F0D0
:1013F600D58802EF0AF0D59802EF0AF0D59AF29A4C
:10140600F2946AC0D9FF6BC0DAFFDECF0DF0DDCFF4
:101416000EF0F28EF28CF28AD58E12EF0AF01200DE
:101426006A506B10D8B41AEF0AF01CEF0AF0A1EF5D
:101436000AF07FEF0AF06AC0D9FF6BC0DAFFDF302F
:10144600E832070B906F010E916F902B2DEF0AF08B
:10145600D8909137902F2BEF0AF000019151FF0A97
:10146600926F6AC0D9FF6BC0DAFFDF38E832070B2C
:10147600936F9351020D2F0EF324D96E000EF420B4
:10148600DA6EDECF94F0DDCF95F094C0D9FF95C02B
:10149600DAFF9251DF16A1EF0AF06AC0D9FF6BC0DE
:1014A600DAFFDF30E832070B906F010E916F902B59
:1014B6005FEF0AF0D8909137902F5DEF0AF06AC07F
:1014C600D9FF6BC0DAFFDF38E832070B0001926FF5
:1014D6009251020D2F0EF324D96E000EF420DA6E0F
:1014E600DECF93F0DDCF94F093C0D9FF94C0DAFF3E
:1014F6009151DF124EEF0AF06AC0D9FF6BC0DAFFD6
:10150600DFB088EF0AF08BEF0AF0010E8CEF0AF0DD
:10151600000E0001906F916B9151000AD8B496EFBE
:101526000AF0A1EF0AF09051000AD8B41EEF0AF0B3
:10153600010AD8B450EF0AF0A1EF0AF012006A507F
:101546006B10D8B4A9EF0AF0ABEF0AF024EF0BF05A
:101556000EEF0BF06AC0D9FF6BC0DAFFDF30E8325E
:10156600070B906F010E916F902BBCEF0AF0D8908D
:101576009137902FBAEF0AF06AC0D9FF6BC0DAFF35
:10158600DF38E832070B0001926F9251020D390ED7
:10159600F324D96E000EF420DA6EDECF93F0DDCFA1
:1015A60094F093C0D9FF94C0DAFF9151DF1224EF73
:1015B6000BF06AC0D9FF6BC0DAFFDF30E832070BE9
:1015C600906F010E916F902BEBEF0AF0D890913748
:1015D600902FE9EF0AF000019151FF0A926F6AC05D
:1015E600D9FF6BC0DAFFDF38E832070B936F9351F0
:1015F600020D390EF324D96E000EF420DA6EDECF1A
:1016060094F0DDCF95F094C0D9FF95C0DAFF9251E2
:10161600DF1624EF0BF06C500001906F916B915127
:10162600000AD8B419EF0BF024EF0BF09051000A22
:10163600D8B4DCEF0AF0010AD8B4ADEF0AF024EF13
:101646000BF012002BC096F0000196916CC0D9FFEA
:101656006DC0DAFFDFAE02D0968302D0000196930A
:101666006CC0D9FF6DC0DAFFDF38070B956F954761
:10167600954796519519E30B9519966F6CC0D9FF4E
:101686006DC0DAFFDF500F0B956F953B954796516E
:1016960095191F0B9519966F6C506D10D8B456EFAF
:1016A6000BF058EF0BF05EEF0BF0960E6A6E000E25
:1016B6006B6E99EC0BF012002EC09AF000019A9115
:1016C60098C0D9FF99C0DAFFDFAE02D09A8302D064
:1016D60000019A9398C0D9FF99C0DAFFDF38070B4B
:1016E6006D6E6D466D469A516D18E30B6D189A6FC7
:1016F60098C0D9FF99C0DAFFDF500F0B6D6E6D3AB7
:101706006D469A516D181F0B6D189A6F9851991165
:10171600D8B490EF0BF092EF0BF098EF0BF09A0E17
:10172600966F000E976F94EC0CF012006A506B10D7
:10173600D8B4A0EF0BF0A2EF0BF0D0EF0BF06AC01D
:10174600D9FF6BC0DAFFDF30E832070B0001906F7C
:10175600010E916F902BB2EF0BF0D8909137902F2E
:10176600B0EF0BF06AC0D9FF6BC0DAFFDF38E832A2
:10177600070B0001926F9251020D390EF324D96EB8
:10178600000EF420DA6EDECF93F0DDCF94F093C036
:10179600D9FF94C0DAFF9151DF1A12002BC063F013
:1017A600639060C0D9FF61C0DAFFDFAE02D063820A
:1017B60001D0639260C0D9FF61C0DAFFDF38070B42
:1017C600626E6246624663506218E30B6218636E8D
:1017D60060C0D9FF61C0DAFFDF500F0B626E623A5C
:1017E6006246635062181F0B6218636E6050611088
:1017F600D8B400EF0CF002EF0CF008EF0CF0630E1B
:10180600596E000E5A6E09EC0CF0120059505A101F
:10181600D8B410EF0CF012EF0CF03EEF0CF059C0FC
:10182600D9FF5AC0DAFFDF30E832070B5B6E010ED4
:101836005C6E5B2A21EF0CF0D8905C365B2E1FEFB6
:101846000CF059C0D9FF5AC0DAFFDF38E832070B6F
:101856005D6E5D50020D390EF324D96E000EF42034
:10186600DA6EDECF5EF0DDCF5FF05EC0D9FF5FC01F
:10187600DAFF5C50DF1A1200300EF66E1A0EF76EA3
:10188600000EF86E00EE80F010EE10F00900F5CFB5
:10189600EEFFE550E150FAE19E0EF66E190EF76E78
:1018A600000EF86E00EE2FF010EE2AF00900F5CFCC
:1018B600EEFFE550E150FAE100EE9DF00B0EEE6A08
:1018C600E806FDE100EE01F02E0EEE6AE806FDE107
:1018D6006E906E92000170EF0CF0580E0001986F3A
:1018E600000E996F5FEC0BF0400E6A6E1A0E6B6E6F
:1018F6007EEC09F0580E6C6E000E6D6E25EC0BF04A
:10190600060E00019C6F130E9B6FAD0EE82EFED7E0
:101916009B2FFCD79C2FFAD700D07DEF0CF007EF5A
:1019260000F0000196519711D8B49CEF0CF09EEF91
:101936000CF0B3EF0CF096C06AF097C06BF013ECA6
:101946000AF096C06AF097C06BF096C0D9FF97C0B0
:10195600DAFF0001000EDFB2010E6C6EA2EC0AF097
:101966001200F2940C50D76E0BC0D6FF0D500E101D
:10197600D8B4C0EF0CF0C2EF0CF0CEEF0CF002D8EA
:10198600CEEF0CF00500FA6E0D50FD6E0E50FE6E99
:10199600FF6AFA5012001200920F930F940F950FE0
:1019A600960F890F8A0F8B0F8C0F8D0F800F810F6B
:1019B600820F830F840F401A0002DC0B0201010123
:1019C6000102596EF2905904D8A4ECEF0CF0EEEF38
:1019D6000CF0F0EF0CF0F0EF0CF01200596EF290F4
:1019E6005904D8A4F9EF0CF0FBEF0CF0FDEF0CF066
:1019F600FDEF0CF01200596EF2905904D8A406EFD0
:101A06000DF008EF0DF00AEF0DF00AEF0DF01200E1
:101A1600596EF2905904D8A413EF0DF015EF0DF09E
:101A260017EF0DF017EF0DF012003738392F343558
:101A3600362A3132332D23303D2B580E606E000E80
:101A4600616ED1EC0BF01200F0921200F0901200D1
:081A5600F29212009E9C1200A6
:020000040020DA
:08000000FFFFFFFFFFFFFFFF00
:020000040030CA
:0E000000FF02091EFF8181FF0FC00FE00F40BD
:00000001FF
