:0400000007EF00F016
:0A0008007B8203ED08F01DEF0AF003
:05100000002575000051
:101006000600FACF75F0FBCF76F0F2A80DEF08F0E8
:101016000FEF08F018EF08F0F2A214EF08F016EF41
:1010260008F018EF08F0FEEC0AF0F0A61DEF08F045
:101036001FEF08F028EF08F0F0A024EF08F026EFE5
:1010460008F028EF08F0FCEC0AF0F0A82DEF08F005
:101056002FEF08F038EF08F0F0A234EF08F036EF83
:1010660008F038EF08F0FAEC0AF0F2A63DEF08F0C7
:101076003FEF08F05AEF08F0F2A044EF08F046EF11
:1010860008F05AEF08F081A84BEF08F04DEF08F092
:101096005AEF08F06D04D8A453EF08F055EF08F0A6
:1010A6005AEF08F0000E6D6E010ECEEC0AF0F2A6B5
:1010B6005FEF08F061EF08F07CEF08F0F2A066EF52
:1010C60008F068EF08F07CEF08F081B86DEF08F0E3
:1010D6006FEF08F07CEF08F06D50D8A475EF08F0BC
:1010E60077EF08F07CEF08F0010E6D6E000ECEEC87
:1010F6000AF0F2A681EF08F083EF08F09EEF08F001
:10110600F2A088EF08F08AEF08F09EEF08F081AAB7
:101116008FEF08F091EF08F09EEF08F06C04D8A46A
:1011260097EF08F099EF08F09EEF08F0000E6C6E4E
:10113600010EC1EC0AF0F2A6A3EF08F0A5EF08F045
:10114600C0EF08F0F2A0AAEF08F0ACEF08F0C0EF8D
:1011560008F081BAB1EF08F0B3EF08F0C0EF08F07D
:101166006C50D8A4B9EF08F0BBEF08F0C0EF08F058
:10117600010E6C6E000EC1EC0AF0F2A6C5EF08F087
:10118600C7EF08F0E2EF08F0F2A0CCEF08F0CEEFE0
:1011960008F0E2EF08F081ACD3EF08F0D5EF08F0E5
:1011A600E2EF08F06B04D8A4DBEF08F0DDEF08F0FF
:1011B600E2EF08F0000E6B6E010EB4EC0AF0F2A638
:1011C600E7EF08F0E9EF08F004EF09F0F2A0EEEF20
:1011D60008F0F0EF08F004EF09F081BCF5EF08F035
:1011E600F7EF08F004EF09F06B50D8A4FDEF08F014
:1011F600FFEF08F004EF09F0010E6B6E000EB4EC81
:101206000AF0F2A609EF09F00BEF09F026EF09F054
:10121600F2A010EF09F012EF09F026EF09F081AE07
:1012260017EF09F019EF09F026EF09F06A04D8A4C0
:101236001FEF09F021EF09F026EF09F0000E6A6EA4
:10124600010EA7EC0AF0F2A62BEF09F02DEF09F03C
:1012560048EF09F0F2A032EF09F034EF09F048EF59
:1012660009F081BE39EF09F03BEF09F048EF09F0CC
:101276006A50D8A441EF09F043EF09F048EF09F0AE
:10128600010E6A6E000EA7EC0AF09DAC4DEF09F058
:101296004FEF09F058EF09F09EAC54EF09F056EF06
:1012A60009F058EF09F000EC0BF0F2AA5DEF09F037
:1012B6005FEF09F068EF09F0F2A464EF09F066EF5A
:1012C60009F068EF09F0F0EC0AF09DA06DEF09F067
:1012D6006FEF09F078EF09F09EA074EF09F076EF52
:1012E60009F078EF09F0EAEC0AF09DA27DEF09F02B
:1012F6007FEF09F088EF09F09EA284EF09F086EFF0
:1013060009F088EF09F0F6EC0AF0A0A28DEF09F0DB
:101316008FEF09F098EF09F0A1A294EF09F096EF8C
:1013260009F098EF09F063EC0AF076C0FBFF75C090
:10133600FAFF7B92110077507810D8B4A5EF09F028
:10134600A7EF09F01CEF0AF0B190B18E20EE02F083
:101356007750D9267850DA22DF50796E7950B26EFE
:10136600B36A20EE02F07750D9267850DA22DF50A1
:10137600796E79501A6E1B6A20EE03F07750D926E3
:101386007850DA22DF50796E793AB1507918CF0B5E
:101396007918B16E20EE05F07750D9267850DA220A
:1013A600DFB2D8EF09F0DAEF09F0DDEF09F0B1921C
:1013B600EFEF09F0B18220EE05F07750D92678508C
:1013C600DA22DFB0E9EF09F0EBEF09F0EEEF09F012
:1013D600B194EFEF09F0B18420EE04F07750D926EE
:1013E6007850DA22DF50796E7A6A7A50000AD8B4D9
:1013F600FFEF09F00EEF0AF07950000AD8B40EEFAD
:101406000AF0010AD8B40EEF0AF0030AD8B40EEFB8
:101416000AF00EEF0AF0A092A19277C0D9FF78C029
:10142600DAFFDECF1CF0DDCF1DF0F28EF28CA0824B
:10143600B1801200B60EF66E150EF76E000EF86E3F
:1014460000EE80F010EE10F00900F5CFEEFFE5504B
:10145600E150FAE1FC0EF66E140EF76E000EF86E11
:1014660000EE4BF010EE29F00900F5CFEEFFE55047
:10147600E150FAE100EE01F04A0EEE6AE806FDE1FF
:101486007B907B92000193EF0AF077507810D8B4E6
:101496004FEF0AF051EF0AF062EF0AF079507A1036
:1014A600D8B458EF0AF05AEF0AF062EF0AF079C0A2
:1014B600D9FF7AC0DAFFB2CFDEFFB3CFDDFF12006D
:1014C600A1921AC0B2FF1BC0B3FF1C501D10D8B4A6
:1014D6006FEF0AF071EF0AF07DEF0AF002D87DEFA8
:1014E6000AF00500FA6E1C50FD6E1D50FE6EFF6A76
:1014F600FA5012001200920F930F940F950F960F49
:10150600890F8A0F8B0F8C0F8D0F800F810F820F23
:0F151600830F840F0201010101C61500000003BD
:101526006E0E776E000E786E9EEC09F06E0E776E7C
:10153600000E786E490E796E000E7A6E48EC0AF04F
:1015460099EF0AF007EF00F0746EF2907404D8A4D5
:10155600AFEF0AF0B1EF0AF0B3EF0AF0B3EF0AF01B
:101566001200746EF2907404D8A4BCEF0AF0BEEFB9
:101576000AF0C0EF0AF0C0EF0AF01200746EF290A3
:101586007404D8A4C9EF0AF0CBEF0AF0CDEF0AF045
:10159600CDEF0AF01200746EF2907404D8A4D6EF60
:1015A6000AF0D8EF0AF0DAEF0AF0DAEF0AF01200E2
:1015B6003738392F3435362A3132332D23303D2B07
:1015C600010E1226000E13221422152212009E90DE
:1015D6002150CF6E20C0CEFF1200F2942550D76E58
:1015E60024C0D6FF12009E9240C0CCFF1200F0929B
:0E15F6001200F0901200F29212009E9C120061
:020000040020DA
:08000000FFFFFFFFFFFFFFFF00
:020000040030CA
:0E000000FF02091EFF8181FF0FC00FE00F40BD
:00000001FF
