:0400000007EF00F016
:0A000800778203ED08F018EF0CF00A
:05100000002575000051
:101006000600FACF69F0FBCF6AF0F2A80DEF08F000
:101016000FEF08F018EF08F0F2A214EF08F016EF41
:1010260008F018EF08F036EC0DF0F0A61DEF08F00A
:101036001FEF08F028EF08F0F0A024EF08F026EFE5
:1010460008F028EF08F034EC0DF0F0A82DEF08F0CA
:101056002FEF08F038EF08F0F0A234EF08F036EF83
:1010660008F038EF08F032EC0DF0F2A63DEF08F08C
:101076003FEF08F05AEF08F0F2A044EF08F046EF11
:1010860008F05AEF08F081A84BEF08F04DEF08F092
:101096005AEF08F05904D8A453EF08F055EF08F0BA
:1010A6005AEF08F0000E596E010E15EC0DF0F2A67F
:1010B6005FEF08F061EF08F07CEF08F0F2A066EF52
:1010C60008F068EF08F07CEF08F081B86DEF08F0E3
:1010D6006FEF08F07CEF08F05950D8A475EF08F0D0
:1010E60077EF08F07CEF08F0010E596E000E15EC54
:1010F6000DF0F2A681EF08F083EF08F09EEF08F0FE
:10110600F2A088EF08F08AEF08F09EEF08F081AAB7
:101116008FEF08F091EF08F09EEF08F05804D8A47E
:1011260097EF08F099EF08F09EEF08F0000E586E62
:10113600010E08EC0DF0F2A6A3EF08F0A5EF08F0FB
:10114600C0EF08F0F2A0AAEF08F0ACEF08F0C0EF8D
:1011560008F081BAB1EF08F0B3EF08F0C0EF08F07D
:101166005850D8A4B9EF08F0BBEF08F0C0EF08F06C
:10117600010E586E000E08EC0DF0F2A6C5EF08F051
:10118600C7EF08F0E2EF08F0F2A0CCEF08F0CEEFE0
:1011960008F0E2EF08F081ACD3EF08F0D5EF08F0E5
:1011A600E2EF08F05704D8A4DBEF08F0DDEF08F013
:1011B600E2EF08F0000E576E010EFBEC0CF0F2A603
:1011C600E7EF08F0E9EF08F004EF09F0F2A0EEEF20
:1011D60008F0F0EF08F004EF09F081BCF5EF08F035
:1011E600F7EF08F004EF09F05750D8A4FDEF08F028
:1011F600FFEF08F004EF09F0010E576E000EFBEC4E
:101206000CF0F2A609EF09F00BEF09F026EF09F052
:10121600F2A010EF09F012EF09F026EF09F081AE07
:1012260017EF09F019EF09F026EF09F05604D8A4D4
:101236001FEF09F021EF09F026EF09F0000E566EB8
:10124600010EEEEC0CF0F2A62BEF09F02DEF09F0F3
:1012560048EF09F0F2A032EF09F034EF09F048EF59
:1012660009F081BE39EF09F03BEF09F048EF09F0CC
:101276005650D8A441EF09F043EF09F048EF09F0C2
:10128600010E566E000EEEEC0CF09DAC4DEF09F023
:101296004FEF09F058EF09F09EAC54EF09F056EF06
:1012A60009F058EF09F03AEC0DF0F2AA5DEF09F0FB
:1012B6005FEF09F068EF09F0F2A464EF09F066EF5A
:1012C60009F068EF09F028EC0DF09DA06DEF09F02C
:1012D6006FEF09F078EF09F09EA074EF09F076EF52
:1012E60009F078EF09F022EC0DF09DA27DEF09F0F0
:1012F6007FEF09F088EF09F09EA284EF09F086EFF0
:1013060009F088EF09F02EEC0DF0A0A28DEF09F0A0
:101316008FEF09F098EF09F0A1A294EF09F096EF8C
:1013260009F098EF09F049EC0CF09DA49DEF09F047
:101336009FEF09F0A8EF09F09EA4A4EF09F0A6EF2D
:1013460009F0A8EF09F064EC0CF0A0A0ADEF09F0ED
:10135600AFEF09F0B8EF09F0A1A0B4EF09F0B6EFCE
:1013660009F0B8EF09F038EC0DF06AC0FBFF69C070
:10137600FAFF7792110073507410D8B4C5EF09F0D4
:10138600C7EF09F0F6EF0AF0F00EBD1673C0D9FFED
:1013960074C0DAFFDF50D8A4D3EF09F0D5EF09F017
:1013A6005FEF0AF0F7EF09F0BD50F00B0809BD6ECC
:1013B6001EEF0AF0BD50F00B0909BD6E1EEF0AF0D4
:1013C600BD50F00B0A09BD6E1EEF0AF0BD50F00BC2
:1013D6000209BD6E1EEF0AF0BD50F00B0B09BD6E83
:1013E6001EEF0AF01EEF0AF020EE01F07350D92628
:1013F6007450DA22DF50756E766A7650000AD8B4D9
:1014060007EF0AF0F5EF09F07550020AD8B4E9EFD4
:1014160009F00A0AD8B4D7EF09F0010AD8B4DDEF0B
:1014260009F0030AD8B4E3EF09F0010AD8B4EFEFE4
:1014360009F0F5EF09F0020E73246B6E000E7420AE
:101446006C6EF7EC0AF020EE03F07350D926745058
:10145600DA22DF50D8A432EF0AF034EF0AF038EF80
:101466000AF0B196B18CE7EF0AF020EE03F0735064
:10147600D9267450DA22DE04D8A444EF0AF046EFE7
:101486000AF04AEF0AF0B186B19CE7EF0AF020EEC7
:1014960003F07350D9267450DA22020EDE18D8A44F
:1014A60057EF0AF059EF0AF05DEF0AF0B196B19CDA
:1014B600E7EF0AF0E7EF0AF073C0D9FF74C0DAFF6E
:1014C600DE04D8A469EF0AF06BEF0AF0E7EF0AF042
:1014D60087EF0AF0BD50F00B0409BD6EAAEF0AF0C3
:1014E600BD50F00B0509BD6EAAEF0AF0BD50F00B1A
:1014F6000609BD6EAAEF0AF0BD50F00B0709BD6ED6
:10150600AAEF0AF0AAEF0AF020EE01F07350D926EE
:101516007450DA22DF50756E766A7650000AD8B4B7
:1015260097EF0AF085EF0AF07550040AD8B46DEF0C
:101536000AF0010AD8B473EF0AF0030AD8B479EFB7
:101546000AF0010AD8B47FEF0AF085EF0AF0020E1E
:1015560073246B6E000E74206C6EF7EC0AF020EEAE
:1015660003F07350D9267450DA22DF50D8A4BEEFA8
:101576000AF0C0EF0AF0C4EF0AF0B196B18CE7EFBB
:101586000AF020EE03F07350D9267450DA22DE04F6
:10159600D8A4D0EF0AF0D2EF0AF0D6EF0AF0B1865F
:1015A600B19CE7EF0AF020EE03F07350D926745091
:1015B600DA22020EDE18D8A4E3EF0AF0E5EF0AF00D
:1015C6005DEF0AF0B196B19C9D949E9420EE04F0D6
:1015D6007350D9267450DA22DECF33F0DDCF34F0E3
:1015E600F28EF28C9D8412006B506C10D8B4FEEF14
:1015F6000AF000EF0BF082EF0BF061EF0BF06BC01F
:10160600D9FF6CC0DAFFDF30E832070B6D6E010ED2
:101616006E6E6D2A11EF0BF0D8906E366D2E0FEFB1
:101626000BF06E50FF0A6F6E6BC0D9FF6CC0DAFF0D
:10163600DF38E832070B706E7050020D420EF3244D
:10164600D96E000EF420DA6EDECF71F0DDCF72F0C7
:1016560071C0D9FF72C0DAFF6F50DF1682EF0BF050
:101666006BC0D9FF6CC0DAFFDF30E832070B6D6E56
:10167600010E6E6E6D2A42EF0BF0D8906E366D2E0F
:1016860040EF0BF06BC0D9FF6CC0DAFFDF38E832F1
:10169600070B6F6E6F50020D420EF324D96E000ECB
:1016A600F420DA6EDECF70F0DDCF71F070C0D9FFB6
:1016B60071C0DAFF6E50DF1231EF0BF06BC0D9FF4D
:1016C6006CC0DAFFDFB06AEF0BF06DEF0BF0010EC6
:1016D6006EEF0BF0000E6D6E6E6A6E50000AD8B497
:1016E60077EF0BF082EF0BF06D50000AD8B402EFE3
:1016F6000BF0010AD8B433EF0BF082EF0BF01200B7
:101706006B506C10D8B48AEF0BF08CEF0BF0E2EF55
:101716000BF0B190B19E20EE02F06B50D9266C50C2
:10172600DA22DF506D6E6D50B26EB36A20EE02F0B3
:101736006B50D9266C50DA22DF506D6E6D500B6EF1
:101746000C6A20EE03F06B50D9266C50DA22DF507B
:101756006D6E6D3AB1506D18CF0B6D18B16E20EEEF
:1017660004F06B50D9266C50DA22DFB2BDEF0BF0D5
:10177600BFEF0BF0C2EF0BF0B192D4EF0BF0B182DA
:1017860020EE04F06B50D9266C50DA22DFB0CEEF93
:101796000BF0D0EF0BF0D3EF0BF0B194D4EF0BF0CE
:1017A600B184A092A1926BC0D9FF6CC0DAFFDECFE4
:1017B6000DF0DDCF0EF0F28EF28CA082B180120019
:1017C600372A600E656E000E666E000E686E000E9D
:1017D600676EBDEC0CF03704D8A4F4EF0BF0F6EF0F
:1017E6000BF002EF0CF0300E666ED40E656EA7ECB1
:1017F6000CF0BD50F00B0809BD6E17EF0CF0020E91
:101806003718D8A409EF0CF00BEF0CF017EF0CF01B
:10181600920E666E7C0E656EA7EC0CF0BD50F00B5A
:101826000909BD6E000E376E1200C10EF66E190E56
:10183600F76E000EF86E00EE80F010EE1AF009005A
:10184600F5CFEEFFE550E150FAE19E0EF66E190E69
:10185600F76E000EF86E00EE42F010EE23F009006F
:10186600F5CFEEFFE550E150FAE100EE9AF00B0EEF
:10187600EE6AE806FDE100EE01F0410EEE6AE806CA
:10188600FDE17790779200017BEF0CF0A1920C506E
:10189600B36E0BC0B2FF0D500E10D8B455EF0CF05E
:1018A60057EF0CF063EF0CF002D863EF0CF0050075
:1018B600FA6E0D50FD6E0E50FE6EFF6AFA50120063
:1018C60012009E9433503410D8B46CEF0CF06EEFC7
:1018D6000CF07AEF0CF002D87AEF0CF00500FA6EF5
:1018E6003350FD6E3450FE6EFF6AFA50120012003D
:1018F600920E6C6E7C0E6B6E91EC0CF05A0E736E43
:10190600000E746EBEEC09F0600E6B6E000E6C6E0F
:1019160083EC0BF08DEF0CF007EF00F06B506C10C2
:10192600D8B498EF0CF09AEF0CF0A6EF0CF031C09B
:101936006DF032C06EF06BC06DF06CC06EF06EC0B4
:10194600BFFF6DC0BEFF120065506610D8B4AEEF83
:101956000CF0B0EF0CF0BCEF0CF031C067F032C009
:1019660068F065C067F066C068F068C0BFFF67C012
:10197600BEFF120065506610D8B4C4EF0CF0C6EF77
:101986000CF0CEEF0CF067C00BF068C00CF068509E
:10199600B36E67C0B2FF1200920F930F940F950FAC
:1019A600960F890F8A0F8B0F8C0F8D0F0101010186
:1019B60000094800C617781A0001003738392F3455
:1019C60035362A3132332D23303D2B800F810F825D
:0519D6000F830F840FD8
:1019DC00656EF2906504D8A4F6EF0CF0F8EF0CF0FD
:1019EC00FAEF0CF0FAEF0CF01200656EF290650451
:1019FC00D8A403EF0DF005EF0DF007EF0DF007EF96
:101A0C000DF01200656EF2906504D8A410EF0DF085
:101A1C0012EF0DF014EF0DF014EF0DF01200656ED7
:101A2C00F2906504D8A41DEF0DF01FEF0DF021EF1F
:101A3C000DF021EF0DF012009E901250CF6E11C0E0
:101A4C00CEFF1200F2941650D76E15C0D6FF1200BE
:101A5C009E9239C0CCFF1200F0921200F09012004E
:0E1A6C00F2921200A19012009E9C1200120035
:020000040020DA
:08000000FFFFFFFFFFFFFFFF00
:020000040030CA
:0E000000FF02091EFF8181FF0FC00FE00F40BD
:00000001FF
