:0400000007EF00F016
:0A0008006E8203ED08F0E8EF0BF044
:05100000002575000051
:101006000600FACF68F0FBCF69F0D9CF6AF0DACFE5
:101016006BF0F3CF6CF0F4CF6DF0F2A815EF08F09B
:1010260017EF08F020EF08F0F2A21CEF08F01EEF11
:1010360008F020EF08F0D8EC0CF0F0A625EF08F049
:1010460027EF08F030EF08F0F0A02CEF08F02EEFB5
:1010560008F030EF08F0D6EC0CF0F0A835EF08F009
:1010660037EF08F040EF08F0F0A23CEF08F03EEF53
:1010760008F040EF08F0D4EC0CF0F2A645EF08F0CB
:1010860047EF08F062EF08F0F2A04CEF08F04EEFE1
:1010960008F062EF08F081A853EF08F055EF08F06A
:1010A60062EF08F05504D8A45BEF08F05DEF08F096
:1010B60062EF08F0000E556E010EB7EC0CF0F2A6CA
:1010C60067EF08F069EF08F084EF08F0F2A06EEF22
:1010D60008F070EF08F084EF08F081B875EF08F0BB
:1010E60077EF08F084EF08F05550D8A47DEF08F0AC
:1010F6007FEF08F084EF08F0010E556E000EB7EC96
:101106000CF0F2A689EF08F08BEF08F0A6EF08F0D6
:10111600F2A090EF08F092EF08F0A6EF08F081AA8F
:1011260097EF08F099EF08F0A6EF08F05404D8A45A
:101136009FEF08F0A1EF08F0A6EF08F0000E546E3E
:10114600010EAAEC0CF0F2A6ABEF08F0ADEF08F03A
:10115600C8EF08F0F2A0B2EF08F0B4EF08F0C8EF5D
:1011660008F081BAB9EF08F0BBEF08F0C8EF08F055
:101176005450D8A4C1EF08F0C3EF08F0C8EF08F048
:10118600010E546E000EAAEC0CF0F2A6CDEF08F09C
:10119600CFEF08F0EAEF08F0F2A0D4EF08F0D6EFB0
:1011A60008F0EAEF08F081ACDBEF08F0DDEF08F0BD
:1011B600EAEF08F05304D8A4E3EF08F0E5EF08F0EF
:1011C600EAEF08F0000E536E010E9DEC0CF0F2A64D
:1011D600EFEF08F0F1EF08F00CEF09F0F2A0F6EFF0
:1011E60008F0F8EF08F00CEF09F081BCFDEF08F00D
:1011F600FFEF08F00CEF09F05350D8A405EF09F003
:1012060007EF09F00CEF09F0010E536E000E9DEC8E
:101216000CF0F2A611EF09F013EF09F02EEF09F02A
:10122600F2A018EF09F01AEF09F02EEF09F081AEDF
:101236001FEF09F021EF09F02EEF09F05204D8A4B0
:1012460027EF09F029EF09F02EEF09F0000E526E94
:10125600010E90EC0CF0F2A633EF09F035EF09F031
:1012660050EF09F0F2A03AEF09F03CEF09F050EF29
:1012760009F081BE41EF09F043EF09F050EF09F0A4
:101286005250D8A449EF09F04BEF09F050EF09F09E
:10129600010E526E000E90EC0CF09DAC55EF09F06D
:1012A60057EF09F060EF09F09EAC5CEF09F05EEFD6
:1012B60009F060EF09F0DAEC0CF0F2AA65EF09F03C
:1012C60067EF09F070EF09F0F2A46CEF09F06EEF2A
:1012D60009F070EF09F0CAEC0CF09DA075EF09F06B
:1012E60077EF09F080EF09F09EA07CEF09F07EEF22
:1012F60009F080EF09F0C4EC0CF09DA285EF09F02F
:1013060087EF09F090EF09F09EA28CEF09F08EEFBF
:1013160009F090EF09F0D0EC0CF0A0A295EF09F0DF
:1013260097EF09F0A0EF09F0A1A29CEF09F09EEF5C
:1013360009F0A0EF09F039EC0CF06DC0F4FF6CC0B9
:10134600F3FF6BC0DAFF6AC0D9FF69C0FBFF68C054
:10135600FAFF6E92110000019A519B11D8B4B6EFB4
:1013660009F0B8EF09F03CEF0AF01BEF0AF09AC05B
:10137600D9FF9BC0DAFFDF30E832070B9C6F010E06
:101386009D6F9C2BC9EF09F0D8909D379C2FC7EF16
:1013960009F000019D51FF0A9E6F9AC0D9FF9BC0BC
:1013A600DAFFDF38E832070B9F6F9F51020D3E0EC2
:1013B600F324D96E000EF420DA6EDECFA0F0DDCF76
:1013C600A1F0A0C0D9FFA1C0DAFF9E51DF163CEF05
:1013D6000AF09AC0D9FF9BC0DAFFDF30E832070B6C
:1013E6009C6F010E9D6F9C2BFBEF09F0D8909D37EB
:1013F6009C2FF9EF09F09AC0D9FF9BC0DAFFDF38BE
:10140600E832070B00019E6F9E51020D3E0EF3243B
:10141600D96E000EF420DA6EDECF9FF0DDCFA0F09D
:101426009FC0D9FFA0C0DAFF9D51DF12EAEF09F095
:101436009AC0D9FF9BC0DAFFDFB024EF0AF027EF8E
:101446000AF0010E28EF0AF0000E9C6F9D6B9D516D
:10145600000AD8B431EF0AF03CEF0AF09C51000ABA
:10146600D8B4BAEF09F0010AD8B4ECEF09F03CEFB2
:101476000AF0120000019A519B11D8B445EF0AF008
:1014860047EF0AF0BFEF0AF0AAEF0AF09AC0D9FFB9
:101496009BC0DAFFDF30E832070B9D6F010E9E6FAF
:1014A6009D2B58EF0AF0D8909E379D2F56EF0AF0E5
:1014B6009AC0D9FF9BC0DAFFDF38E832070B00017C
:1014C6009F6F9F51020D480EF324D96E000EF42033
:1014D600DA6EDECFA0F0DDCFA1F0A0C0D9FFA1C0AB
:1014E600DAFF9E51DF12BFEF0AF09AC0D9FF9BC008
:1014F600DAFFDF30E832070B9D6F010E9E6F9D2BE2
:1015060087EF0AF0D8909E379D2F85EF0AF00001ED
:101516009E51FF0A9F6F9AC0D9FF9BC0DAFFDF3842
:10152600E832070BA06FA051020D480EF324D96EC6
:10153600000EF420DA6EDECFA1F0DDCFA2F0A1C05E
:10154600D9FFA2C0DAFF9F51DF16BFEF0AF09C5108
:101556009D6F9E6B9E51000AD8B4B4EF0AF0BFEFA0
:101566000AF09D51000AD8B478EF0AF0010AD8B4FF
:1015760049EF0AF0BFEF0AF0120000019A519B11E1
:10158600D8B4C8EF0AF0CAEF0AF03FEF0BF0B190FB
:10159600B18E20EE02F09A51D9269B51DA22DF5005
:1015A6009C6F9C51B26EB36A20EE02F09A51D92616
:1015B6009B51DA22DF509C6F9C510F6E106A20EE11
:1015C60003F09A51D9269B51DA22DF509C6F9C3B3F
:1015D600B1509C19CF0B9C19B16E20EE05F09A51B3
:1015E600D9269B51DA22DFB2FBEF0AF0FDEF0AF0B3
:1015F60000EF0BF0B19212EF0BF0B18220EE05F086
:101606009A51D9269B51DA22DFB00CEF0BF00EEF80
:101616000BF011EF0BF0B19412EF0BF0B18420EE4A
:1016260004F09A51D9269B51DA22DF509C6F9D6BAC
:101636009D51000AD8B422EF0BF031EF0BF09C510C
:10164600000AD8B431EF0BF0010AD8B431EF0BF031
:10165600030AD8B431EF0BF031EF0BF0A092A19250
:101666009AC0D9FF9BC0DAFFDECF11F0DDCF12F0B2
:10167600F28EF28CA082B18012003DC0A8F000016B
:10168600A891A5C0D9FFA6C0DAFFDFAE02D0A88315
:1016960002D00001A893A5C0D9FFA6C0DAFFDF38A3
:1016A600070BA76FA747A747A851A719E30BA719C9
:1016B600A86FA5C0D9FFA6C0DAFFDF500F0BA76F32
:1016C600A73BA747A851A7191F0BA719A86FA55194
:1016D600A611D8B471EF0BF073EF0BF079EF0BF0A6
:1016E600A80EA36F000EA46F19EC0CF012003AC0FE
:1016F60067F0679064C0D9FF65C0DAFFDFAE02D03D
:10170600678201D0679264C0D9FF65C0DAFFDF380F
:10171600070B666E6646664667506618E30B6618E4
:10172600676E64C0D9FF65C0DAFFDF500F0B666EC7
:10173600663A6646675066181F0B6618676E6450F1
:101746006510D8B4A9EF0BF0ABEF0BF0B1EF0BF0CF
:10175600670E5D6E000E5E6EB2EC0BF012005D5011
:101766005E10D8B4B9EF0BF0BBEF0BF0E7EF0BF060
:101776005DC0D9FF5EC0DAFFDF30E832070B5F6E6F
:10178600010E606E5F2ACAEF0BF0D89060365F2EAE
:10179600C8EF0BF05DC0D9FF5EC0DAFFDF38E83274
:1017A600070B616E6150020D480EF324D96E000ED0
:1017B600F420DA6EDECF62F0DDCF63F062C0D9FFCF
:1017C60063C0DAFF6050DF1A1200EB0EF66E180ED9
:1017D600F76E000EF86E00EE80F010EE1AF00900BB
:1017E600F5CFEEFFE550E150FAE1CC0EF66E180E9D
:1017F600F76E000EF86E00EE3EF010EE1FF00900D8
:10180600F5CFEEFFE550E150FAE100EEA9F00B0E40
:10181600EE6AE806FDE100EE01F03D0EEE6AE8062E
:10182600FDE16E906E92000154EF0CF00001A351A1
:10183600A411D8B421EF0CF023EF0CF038EF0CF024
:10184600A3C09AF0A4C09BF0AEEC09F0A3C09AF036
:10185600A4C09BF0A3C0D9FFA4C0DAFF0001000E0C
:10186600DFB2010E9C6F3DEC0AF01200A1920FC090
:10187600B2FF10C0B3FF11501210D8B445EF0CF0F0
:1018860047EF0CF053EF0CF002D853EF0CF00500C5
:10189600FA6E1150FD6E1250FE6EFF6AFA5012007B
:1018A60012005C0E0001A56F000EA66F40EC0BF057
:1018B600560E00019A6F000E9B6FC0EC0AF062EFA5
:1018C6000CF007EF00F0920F930F940F950F960F01
:1018D600890F8A0F8B0F8C0F8D0F010101010619DD
:1018E600DC030000023738392F3435362A313233DB
:0F18F6002D23303D2B800F810F820F830F840F26
:101906005C0E646E000E656E7AEC0BF0010E072617
:10191600000E082209220A2212005D6EF2905D0472
:10192600D8A498EF0CF09AEF0CF09CEF0CF09CEF1B
:101936000CF012005D6EF2905D04D8A4A5EF0CF0D9
:10194600A7EF0CF0A9EF0CF0A9EF0CF012005D6EFA
:10195600F2905D04D8A4B2EF0CF0B4EF0CF0B6EF41
:101966000CF0B6EF0CF012005D6EF2905D04D8A498
:10197600BFEF0CF0C1EF0CF0C3EF0CF0C3EF0CF0AF
:1019860012009E901650CF6E15C0CEFF1200F29434
:101996001A50D76E19C0D6FF12009E9235C0CCFFE2
:1019A6001200F0921200F0901200F29212009E9C29
:0219B60012001D
:020000040020DA
:08000000FFFFFFFFFFFFFFFF00
:020000040030CA
:0E000000FF02091EFF8181FF0FC00FE00F40BD
:00000001FF
